:100000000C945F010C9487010C9487010C94870178
:100010000C9487010C9487010C9487010C94870140
:100020000C9487010C9487010C9486090C94520857
:100030000C9487010C9487010C9487010C94870120
:100040000C9487010C9487010C9487010C94870110
:100050000C9487010C9487010C9487010C944A0539
:100060000C9487010C9487010C9487010C948701F0
:100070000C9487010C9487010C9487010C948701E0
:100080000C9487010C9487010C9487010C948701D0
:100090000C94CA0D0C9487010C9487010C94870171
:1000A0000C9487010C9487010C948701681E6B1EC9
:1000B0005A1E5E1E641E8C1E8C1E8C1E6F1E731EAE
:1000C000771E7D1E811E8C1E871E00C18081C1127D
:1000D000010002020000404F1B04920001010200D7
:1000E0000112010002000000404F1B0492000101B8
:1000F000020001537061726B46756E0055534220C9
:10010000494F20426F61726400040309040000003B
:1001100000000000002A2B28000000000000000062
:10012000000000000000000000000000002C9EB451
:10013000A0A1A2A434A6A7A5AE362D3738271E1F2E
:1001400020212223242526B333B62EB7B89F8485D9
:10015000868788898A8B8C8D8E8F909192939495C7
:10016000969798999A9B9C9D2F3130A3AD350405A5
:10017000060708090A0B0C0D0E0F101112131415A7
:10018000161718191A1B1C1DAFB1B0B500090402CF
:1001900000010300000009210101000122650007A0
:1001A00005840340000105010902A1010901A10024
:1001B000850105091901290315002501950375011C
:1001C000810295017505810305010930093109385E
:1001D0001581257F750895038106C0C005010906B4
:1001E000A1018502050719E029E715002501750120
:1001F000950881029501750881039506750815001B
:1002000025650507190029658100C0080B00020259
:100210000201000904000001020200000524001090
:10022000010524010101042402060524060001073A
:1002300005810310004009040100020A00000007C4
:100240000502024000000705830240000000000094
:100250000200090F0000030401000C000004080262
:10026000011040804010204080408008020401803E
:1002700040201002011080102040400404040404B7
:100280000304050202020204030202020206060639
:1002900006060604040202020400000000250028ED
:1002A000002B002E00310000000000240027002A4F
:1002B000002D003000002705300BFA0BE80C11244C
:1002C0001FBECFEFDAE0DEBFCDBF11E0A0E0B1E0AE
:1002D000E2EBFEE302C005900D92AA35B107D9F713
:1002E00025E0AAE5B1E001C01D92AF32B207E1F707
:1002F00012E0CEEBD2E004C02297FE010E94531F11
:10030000C63BD107C9F70E9443060C94241F0C94E6
:100310000000EF92FF920F931F93CF93DF9300D0D3
:10032000CDB7DEB7062F142F682F8BE694E0298314
:100330003A830E94C80C602F8BE694E00E946F0CF9
:100340002981022FE22E3A81F32E8E2D801B8117F8
:1003500040F4F70161917F018BE694E00E946F0CFD
:10036000F4CF8BE694E00E94E50C91E0811190E0DF
:10037000892F0F900F90DF91CF911F910F91FF90D8
:10038000EF900895CF93DF931F92CDB7DEB74983E7
:100390009E012F5F3F4F41E00E9489010F90DF9146
:1003A000CF9108953F924F925F926F927F928F927A
:1003B0009F92AF92BF92CF92DF92EF92FF920F93F4
:1003C0001F93CF93DF9300D000D000D0CDB7DEB71E
:1003D000682E562E742E3A8329830E9494056B0151
:1003E0007C01312C412C872D90E09C838B8348012C
:1003F000A12CB12C3714B0F5662D8BE694E00E9449
:10040000C80C652D8BE694E00E946F0C8BE694E09F
:100410000E94E50C662D8BE694E00E94C80C4B818F
:100420005C81431951094132510514F040E250E01A
:10043000662D8BE694E00E94C50C8BE694E00E944A
:10044000170C892B59F10115110599F10E9494059A
:100450006C197D098E099F09681579058A059B0528
:1004600040F11CC001151105A9F10E9494056C19F9
:100470007D098E099F0920E030E06017710782072F
:10048000930740F1872D90E0242D332727FD3095E9
:1004900028173907FCF444244A941CC08BE694E0E6
:1004A0000E94E50C872D90E2971508F480E2380E43
:1004B000A1CFE981FA81E40DF11D47FCFA95FE8395
:1004C000ED838BE694E00E941F0CED81FE8180831A
:1004D0004394B3CF842D26960FB6F894DEBF0FBE9B
:1004E000CDBFDF91CF911F910F91FF90EF90DF90E3
:1004F000CF90BF90AF909F908F907F906F905F90C4
:100500004F903F9008950F931F9389019A0141E006
:100510000E94D2011F910F910895CF92DF92EF9226
:10052000FF920F931F93CF93DF931F92CDB7DEB748
:10053000C42ED22E9701AE014F5F5F4F0E948302FF
:100540008823F1F04C2D50E04D1951094F5F5F4F5A
:1005500061E070E002C0660F771FDA94E2F7615045
:100560007109042E01C0660F0A94EAF72981262337
:1005700030E002C0359527954A95E2F7F8012083CF
:100580000F90DF91CF911F910F91FF90EF90DF902F
:10059000CF900895EF92FF920F931F93CF93DF9325
:1005A0001F92CDB7DEB7182F062FF42EE22E209122
:1005B000060130910701AE014F5F5F4F0E94830239
:1005C000898121E030E00F2C01C0220F0A94EAF764
:1005D000EE2019F0482F422B03C0422F40954823AC
:1005E0004983602F812F0E94C2010F90DF91CF912C
:1005F0001F910F91FF90EF900895DF92EF92FF927D
:100600000F931F93CF93DF931F92CDB7DEB7F82ED2
:10061000E62ED42E122F2091060130910701AE0153
:100620004F5F5F4F0E948302882319F14D2D50E0E8
:10063000411B51094F5F5F4FE1E0F0E002C0EE0F58
:10064000FF1F1A95E2F73197042E01C0EE0F0A94AE
:10065000EAF701C0000F4A95EAF74E2F40958981CD
:100660004823E0234E2B49836E2D8F2D0E94C2011B
:1006700001C080E00F90DF91CF911F910F91FF900B
:10068000EF90DF90089528E6FC01208308950F93F2
:10069000062F22E044E06BE1FC0180810E94FD0214
:1006A0000F9108950F93062F22E044E06CE1FC01C6
:1006B00080810E94FD020F9108954F925F926F9288
:1006C0007F928F929F92AF92BF92CF92DF92EF92E2
:1006D000FF920F931F93CF93DF93EC015B013A01DD
:1006E0004901280100910601109107019C012F5F2B
:1006F0003F4F4EE06BE388810E94D201898190E0F8
:10070000982F88272A81822BF501918380838B8102
:1007100090E0982F88272C81822BF301918380838E
:100720008D8190E0982F88272E81822BF401918370
:100730008083898590E0982F88272A85822BF20173
:10074000918380838B8590E0982F88272C85822B3E
:10075000F701918380838D8590E0982F88272E85DF
:10076000822BF60191838083DF91CF911F910F91AE
:10077000FF90EF90DF90CF90BF90AF909F908F90C1
:100780007F906F905F904F900895262F46E06BE624
:10079000FC0180810C94CA020F93062F23E042E0F3
:1007A0006BE6FC0180810E94FD020F910895CF93BA
:1007B000DF93EC0161E00E94CC0361E0CE010E9476
:1007C000470363E0CE010E94520360E0CE01DF9157
:1007D000CF910C94C503EF92FF920F931F93CF9389
:1007E000DF93EC01E0900601F09007018C010F5FB0
:1007F0001F4F26E046E065E788810E948D028981CF
:10080000DF91CF911F910F91FF90EF9008950E947B
:10081000EB0391E0843309F090E0892F089504966A
:100820000C942719895B9D4F0C94A110895B9D4FF7
:100830000C940811CF93DF931F92CDB7DEB7698375
:1008400041E050E0BE016F5F7F4F04960E94271980
:100850000F90DF91CF9108958BE694E00E94AE0C4B
:100860008CE08093B8008AE791E00E94D7038AE782
:1008700091E00E940704882381F122E04AE06BEFB7
:1008800073E084EF93E00E94E60F882331F184ED5A
:1008900093E00E94991861E08DEA91E00E94A6130E
:1008A000882349F06DEA71E084ED93E00E945015D1
:1008B000882399F008C060E08DEA91E00E94A613B9
:1008C0008111F0CF08958091D403807731F084EDC9
:1008D00093E090932E0580932D050895CF92DF929B
:1008E000EF92FF920F931F93EAE5F1E011921192BC
:1008F00081E0E836F807D1F70E949405609368011B
:100900007093690180936A0190936B0170935B010E
:1009100060935A0110926D0110926C0180916C01EC
:1009200090916D01181619060CF472C08EE6C82E4F
:1009300081E0D82E90E7E92E91E0F92E02E711E050
:1009400024E731E046E751E068E771E08AE791E0AB
:100950000E945D03809178019091790120915C0162
:1009600030915D01820F931F90935D0180935C0134
:10097000809176019091770120915E0130915F0125
:10098000820F931F90935F0180935E0180917401A9
:10099000909175012091600130916101820F931F48
:1009A0009093610180936001809172019091730135
:1009B0002091620130916301820F931F9093630134
:1009C0008093620180917001909171012091640186
:1009D00030916501820F931F9093650180936401AC
:1009E00080916E0190916F012091660130916701B5
:1009F000820F931F909367018093660180916C0131
:100A000090916D01019690936D0180936C0186CF5A
:100A100060912D0570912E0526E442E151E08DE8AC
:100A200091E00E94A218882341F04EE050E06AE570
:100A300071E08DE891E00E9427198DE891E01F9107
:100A40000F91FF90EF90DF90CF900C949918109237
:100A5000B2011092D4031092D50389E18093F70379
:100A60001092FA0387E291E09093AE018093AD017A
:100A700010928D0110928E0110928C0110928B01B8
:100A80008FE191E090938A01809389018AE791E058
:100A90000C9443031F920F920FB60F9211242F93C1
:100AA0003F938F939F93AF93BF938091FD0390915A
:100AB000FE03A091FF03B09100043091FC0326E0F7
:100AC000230F2D3720F40296A11DB11D05C029E882
:100AD000230F0396A11DB11D2093FC038093FD03FA
:100AE0009093FE03A093FF03B09300048091010450
:100AF00090910204A0910304B09104040196A11DF9
:100B0000B11D8093010490930204A0930304B09359
:100B10000404BF91AF919F918F913F912F910F90BE
:100B20000FBE0F901F9018952FB7F8946091FD039A
:100B30007091FE038091FF03909100042FBF0895F0
:100B40003FB7F8948091010490910204A0910304AE
:100B5000B091040426B5A89B05C02F3F19F001965B
:100B6000A11DB11D3FBF6627782F892F9A2F620FD5
:100B7000711D811D911D43E0660F771F881F991F0E
:100B80004A95D1F70895CF92DF92EF92FF92CF93DB
:100B9000DF936B017C010E94A005EB01C114D1041D
:100BA000E104F10489F00E9441060E94A0056C1B3B
:100BB0007D0B683E734090F381E0C81AD108E108CC
:100BC000F108C851DC4FEACFDF91CF91FF90EF9051
:100BD000DF90CF900895789484B5826084BD84B509
:100BE000816084BD85B5826085BD85B5816085BD28
:100BF000EEE6F0E0808181608083E1E8F0E0108241
:100C0000808182608083808181608083E0E8F0E081
:100C1000808181608083E1E9F0E08081826080836F
:100C2000808181608083E0E9F0E080818160808361
:100C3000E1ECF0E080818460808380818260808349
:100C4000808181608083E3ECF0E08081816080833B
:100C5000E0ECF0E0808182608083E2ECF0E0808173
:100C600081608083EAE7F0E0808184608083808116
:100C70008260808380818E7F808380818068808392
:100C80000895089508950E94EB050E94420685E0AC
:100C900094E00E94DC090E942C04C0E0D0E00E9495
:100CA0006E042097E1F30E940000F9CF40910904FF
:100CB00050910A0420910704309108044217530709
:100CC000B4F49091E8009570E1F39091E80092FD02
:100CD00019C08093F1008091090490910A04019653
:100CE0008F739927892B19F48EEF8093E8008091F8
:100CF000090490910A04019690930A0480930904D0
:100D000081E0089580E00895CF92DF92FF920F93E3
:100D10001F93CF93DF931F92CDB7DEB7082F162F07
:100D2000862F880F8E5F99830E94560683E00E946B
:100D30005606F02EC02E9981D92E8C2D8F19811731
:100D400078F4F60184910E945606082F80E00E94F4
:100D500056068023FFEFCF1ADF0A8111EECF01C0C4
:100D600081E00F90DF91CF911F910F91FF90DF9065
:100D7000CF900895615030F02091F100FC01208364
:100D80000196F8CF289884E680930C0408952FB735
:100D9000FC012083F89467706093E9000895CF9375
:100DA000DF931F92CDB7DEB7682FCE0101960E9468
:100DB000C7068091F20099819FBF0F90DF91CF917C
:100DC0000895FF920F931F93CF93DF9300D0CDB779
:100DD000DEB7F62E8A0190910B04992311F057FF8C
:100DE00003C08FEF9FEF2BC0682FCE0101967A834F
:100DF0000E94C7068091F20090E0A8017A818017D6
:100E000091070CF4AC01EF2DF72FF40E84E6FE16DB
:100E100039F0289880930C049091F1009193F7CFCA
:100E20004115510521F08091F200882321F089813C
:100E30008FBFCA0104C08BE68093E800F8CF0F9003
:100E40000F90DF91CF911F910F91FF900895CF9355
:100E5000DF931F92CDB7DEB741E050E0BE016F5F78
:100E60007F4F0E94E106019719F4898190E002C04A
:100E70008FEF9FEF0F90DF91CF910895CF93DF9386
:100E80001F92CDB7DEB7682FCE0101960E94C7062C
:100E90009091E800892F807295FF04C09091F20034
:100EA00080E4891B99819FBF0F90DF91CF910895B6
:100EB0006F927F928F929F92AF92BF92CF92DF926A
:100EC000EF92FF920F931F93CF93DF931F92CDB7B3
:100ED000DEB7782E7B01C42EB52E80910B048823BB
:100EE00069F0042F152F8AEFD82E872D8072982E47
:100EF0009AE3A92E872D8074882E11C08FEF9FEF63
:100F000057C0872D0E943E07682E81110CC0DA94CD
:100F1000A9F361E070E080E090E00E94C305011554
:100F2000110579F73BC0282F30E0021713070CF4A6
:100F3000602E672DCE0101960E94C7068091E800C1
:100F400085FF29C0262D30E0021B130B992039F0B4
:100F50006A948FEF6816B1F01092F100F9CFF701A3
:100F6000862D77FE07C0815058F094919093F10040
:100F70003196F9CF815020F091919093F100FACF02
:100F8000E20EF31E8091E80085FF0FC001151105E8
:100F900011F481100AC089818FBFC1CF5D9884E6AA
:100FA00080930D048C2D9B2D03C0A092E800F3CFFD
:100FB0000F90DF91CF911F910F91FF90EF90DF90F5
:100FC000CF90BF90AF909F908F907F906F9008953B
:100FD0001092E90010920A041092090490930804F8
:100FE000809307040895CF92DF92FF920F931F938F
:100FF000CF93DF9300D0CDB7DEB7F82E8A016B0117
:1010000001151105B1F0F601F7FE02C0849101C08F
:10101000808149835A830E94560601501109FFEFCF
:10102000CF1ADF0A49815A818111EACF8FEF9FEFF2
:1010300001C0CA010F900F90DF91CF911F910F91C6
:10104000FF90DF90CF9008951F93CF93DF931F926F
:10105000CDB7DEB7162F2091E80022FFFCCF612F1D
:1010600079830E94BA068BEF8093E800812F798103
:10107000972F0F90DF91CF911F910895CF93DF931A
:101080001F92CDB7DEB71982CE0101960E949A0B4E
:10109000CE0101960E94180A898190E00F90DF919D
:1010A000CF9108951F920F920FB60F921124EF92D5
:1010B000FF920F931F932F933F934F935F936F93E1
:1010C0007F938F939F93AF93BF93EF93FF93CF93B0
:1010D000DF93CDB7DEB76297DEBFCDBF1092E900D8
:1010E0008091E80083FFEBC068E0CE010A960E9481
:1010F000BA0682EF8093E8009A8597FF05C0809139
:10110000E80080FFFCCF03C08EEF8093E800892FBA
:10111000807609F0B9C08B85811105C01092F1006D
:101120001092F100C5C0282F2D7F213009F4C0C0D6
:10113000853049F48091E80080FFFCCF8C85806881
:101140008093E300B5C0863009F076C02D85E8882D
:10115000F988223071F580E090E02A8B0E94E80740
:101160000E943E0899E08E010F5F1F4FF801392F52
:1011700011923A95E9F799832A892A8391E09E830F
:1011800090E898879AEF99872091090430910A0492
:10119000275F3F4F3C832B838D83C7010E94E80765
:1011A00049E050E0B80180E00E94F3070E943E0849
:1011B0007FC0C7012A8B0E94E8072A89223241F4A6
:1011C00082E290E00E94230A892B09F071C074C06A
:1011D000213069F488899989089711F420930604CD
:1011E00080910604811118C061EE70E01AC02330AE
:1011F00009F062C08C85882391F0823021F46CE084
:101200008CEF90E006C0813009F056C068E083EFB3
:1012100090E00E9484064AC06FEC70E002C069E072
:1012200071E06115710509F447C0FB01449150E07C
:1012300080E80E94F3073CC0873009F43DC0883045
:1012400021F481E08093F10033C0893089F59370F7
:1012500099F5EBECF0E081E021E096E38093E90082
:101260002093EB0034913093EC009093ED008F5F6E
:101270003196853099F78EE78093EA001092EA0064
:101280008C8580930B0414C0888999890E94E80793
:101290008E85811105C0CE010A960E94A50B06C05D
:1012A000823051F4CE010A960E944B0A882321F025
:1012B0008EEF8093E80003C081E28093EB0062969A
:1012C0000FB6F894DEBF0FBECDBFDF91CF91FF9177
:1012D000EF91BF91AF919F918F917F916F915F91AE
:1012E0004F913F912F911F910F91FF90EF900F9091
:1012F0000FBE0F901F9018958093E9008091F20027
:10130000882319F08AE38093E80008951F920F92D2
:101310000FB60F9211242F933F934F935F936F93C8
:101320007F938F939F93AF93BF93EF93FF9380919E
:10133000E1001092E10083FF0FC01092E90091E0FC
:101340009093EB001092EC0092E39093ED001092DA
:101350000B0498E09093F00082FF1DC083E00E9490
:101360007C0980910D04882339F080910D0481500F
:1013700080930D04882369F080910C04882359F030
:1013800080910C04815080930C04811104C0289A30
:1013900002C05D9AF1CFFF91EF91BF91AF919F9104
:1013A0008F917F916F915F914F913F912F910F900E
:1013B0000FBE0F901F90189510920B0481E0809340
:1013C000D70080EA8093D80082E089BD09B400FE8E
:1013D000FDCF61E070E080E090E00E94C30580E90D
:1013E0008093D8008CE08093E2001092E000559A40
:1013F000209A0895FF920F931F93CF93DF93EC01F0
:10140000F62EE881F9810480F581E02D09958C01A3
:10141000E881F9810680F781E02D6F2DCE010995D5
:10142000C8019927DF91CF911F910F91FF900895E7
:10143000FC0120812F5F208349E150E06DE871E0DD
:1014400080E80C94F30745E650E066EA71E080E836
:101450000C94F307EF92FF920F931F93CF93DF93B8
:101460001F92CDB7DEB789838B017A0141E050E04E
:10147000BE016F5F7F4F84E00E945807A701B8014B
:1014800084E40E9458070F90DF91CF911F910F9134
:10149000FF90EF900895FC0191818081813A31F4B1
:1014A00081E0913091F0933089F411C0813271F470
:1014B0009B3021F482818093090105C09A3031F478
:1014C00082818093080181E00895089580E0089565
:1014D00048E050E082E00C942A0ACF93DF93DC01CD
:1014E000683818F0E8E7E60F25C0E62FF0E067FF60
:1014F00011C0E058F10981E090E001C0880FEA9541
:10150000EAF714969C911497982B14969C93149731
:10151000E0E010C0E35FFE4FE491EE2309F440C029
:10152000E7FF08C014968C911497826014968C93F0
:101530001497EF7716968C9116978E1741F11796A0
:101540008C9117978E1719F118968C9118978E1702
:10155000F1F019968C9119978E17C9F01A968C9103
:101560001A978E17A1F01B968C911B978E1779F006
:1015700080E090E0ED01C80FD91F2E81211102C03B
:10158000EE8305C0019686309105A1F709C0BD0123
:101590006C5F7F4FCD010E94680A81E090E008C037
:1015A00081E090E013969C938E93129780E090E0F8
:1015B000DF91CF910895683818F0E8E7E60F25C06D
:1015C000E62FF0E067FF12C0E058F10921E030E0BB
:1015D00001C0220FEA95EAF72095DC0114963C91B0
:1015E0001497322314963C93E0E00FC0E35FFE4F64
:1015F000E491EE2329F1E7FF08C0DC0114962C9159
:1016000014972D7F14962C93EF7720E030E0EE2393
:1016100051F0DC01A20FB31F16964C9116974E1392
:1016200002C016961C922F5F3F4F2630310579F786
:10163000BC016C5F7F4F0E94680A81E090E00895D2
:1016400080E090E00895FC011682178210861186D2
:10165000128613861482BC016C5F7F4F0C94680A5B
:1016600010921A0410921104109210048FE291E06B
:1016700090930F0480930E040895CF93DF931F92ED
:10168000CDB7DEB76983DC01ED91FC910280F38177
:10169000E02D41E050E0BE016F5F7F4F09950F9054
:1016A000DF91CF910895CF93DF93EC018C859D85D9
:1016B00097FF05C082E00E9427079D878C878C8555
:1016C0009D85DF91CF91089583E00C947C09FC0106
:1016D0008485958597FD06C082E00E94CF0690E044
:1016E0000196089582E00E94CF0690E00895FC01E3
:1016F0008485958597FD05C02FEF3FEF35872487BB
:10170000089582E00C942707CF93DF93EC0180913A
:101710001101882331F083E00E945807181619063A
:1017200034F081E090E09B838A8380E090E0DF9159
:10173000CF910895FC0120812E5F208342E450E088
:101740006BE072E080E80C94F307FC0181819081EA
:10175000913A59F4813209F03CC047E050E06AE028
:1017600071E080E00E94F30743C0913291F580322E
:1017700039F467E070E08AE091E00E94240806C036
:10178000823209F035C082818093110180910A0173
:1017900090910B01A0910C01B0910D01803B944000
:1017A000A105B105C1F48091110180FD14C087E746
:1017B00097E790930108809300082BE088E190E080
:1017C0000FB6F894A895809360000FBE2093600038
:1017D0000FC080E0089588E10FB6F8948093600010
:1017E000109260000FBEA895109201081092000898
:1017F00081E0089510921E0410921D0488EE93E07B
:10180000A0E0B0E080931F0490932004A0932104F3
:10181000B09322048DE391E090931C0480931B0409
:101820008FEF9FEF90932804809327040895809171
:101830009B0490E020919C04821B910908952091C3
:101840009C0480919B04281750F4E22FF0E0E356AB
:10185000FB4F808190E02F5F20939C0408958FEFD1
:101860009FEF0895E0919C0480919B04E81730F469
:10187000F0E0E356FB4F808190E008958FEF9FEFFB
:1018800008950895CF92DF92EF92FF920F931F93E6
:10189000CF93DF937C01CB018A012091770422232F
:1018A00089F0EB016B01C40ED51ECC15DD0569F086
:1018B0006991D701ED91FC910190F081E02DC70174
:1018C0000995F3CF642F0E94A10DC801DF91CF913C
:1018D0001F910F91FF90EF90DF90CF900895CF93DD
:1018E000DF931F92CDB7DEB769832091770422235F
:1018F000D1F020917804203240F021E030E0FC016A
:101900003383228380E090E015C080917904E82F32
:10191000F0E0E658FB4F998190838F5F80937904C4
:101920008093780405C061E0CE0101960E94A10D6C
:1019300081E090E00F90DF91CF910895FC01138238
:10194000128248EE53E060E070E044835583668382
:1019500077838DE491E091838083089510929C04B5
:1019600010929B0410927904109278040C94EC0C61
:10197000862F413208F040E26DE974E00E940A0DC2
:1019800010929C0480939B04089521E00C94B80C61
:1019900081E08093770460939A0410927904109206
:1019A000780408950F93062F21E0409178046AE7A8
:1019B00074E080919A040E944E0D10927904109266
:1019C0007804109277040F91089561E00C94D20C82
:1019D0008BE694E00C949E0C10922A0581E0809393
:1019E00028051092270561E082E00E94C61E61E092
:1019F00083E00E94C61EE9EBF0E080818E7F808349
:101A000080818D7F808382E08093B80085E480931D
:101A1000BC000895413208F03FC090912A05911111
:101A2000FCCF91E090932A05209328052FEF209377
:101A3000BD0410920205240F2093010590932905FF
:101A400090912905880F892B80932905809127057E
:101A5000813041F410922705809129058093BB00C5
:101A600085EC01C085EE8093BC0080912A05813011
:101A7000E1F380910205841710F44091020523E000
:101A800035E0FB01D9018A2F821B841718F48D9150
:101A90008193F9CF842F089580E008950F93413208
:101AA00008F046C090912A059111FCCF92E09093E6
:101AB0002A05009328059FEF9093BD04109202051C
:101AC00040930105FB0163E075E0DB019A2F961B53
:101AD000941718F491919D93F9CF10922905909144
:101AE0002905880F892B809329058091270581304E
:101AF00041F410922705809129058093BB0085EC65
:101B000001C085EE8093BC00222321F080912A053C
:101B10008230E1F38091BD048F3F61F08091BD047C
:101B2000803251F08091BD04803341F483E007C0DE
:101B300081E005C080E003C082E001C084E00F9135
:101B40000895613298F420912A05243089F4609335
:101B5000DF04FC0181EE94E0DC012A2F281B26170C
:101B600018F421912D93F9CF80E0089581E0089534
:101B700082E0089585ED8093BC008091BC0084FDD7
:101B8000FCCF10922A05089585EC8093BC0010923A
:101B90002A0508951F920F920FB60F9211242F93CA
:101BA0003F934F935F936F937F938F939F93AF93E5
:101BB000BF93EF93FF938091B900887F803609F43B
:101BC0009CC068F5883209F45BC090F4803109F458
:101BD00054C038F4882309F4F5C0883009F44DC0A6
:101BE000F5C0883109F44CC0803209F45DC0EEC004
:101BF000803409F468C048F4803309F455C0883350
:101C000009F0E4C08093BD04A8C0803509F44FC03A
:101C1000883509F45DC0883409F0D8C0D5C088394A
:101C200009F4C6C0A8F4883709F467C038F48836C8
:101C300009F463C0803709F460C0C8C0883809F46B
:101C4000B7C0803909F45FC0803809F0BFC05BC0FD
:101C5000803B09F485C038F4803A09F466C0883ABC
:101C600009F47EC0B3C0803C09F4A6C0883C09F4E6
:101C7000A3C0883B09F489C0A9C08091290510C080
:101C80009091020580910105981770F5E091020589
:101C900081E08E0F80930205F0E0ED5FFA4F8081C6
:101CA0008093BB0085EC85C08093BD048DC0E0911E
:101CB000020581E08E0F809302058091BB00F0E069
:101CC000ED5FFA4F808390910205809101056DC010
:101CD000E091020581E08E0F809302058091BB00A8
:101CE000F0E0ED5FFA4F80838091280581116CC090
:101CF00081E08093270584EA60C083E080932A0511
:101D00001092BE04CFCF8091BE04803208F050C044
:101D1000E091BE0481E08E0F8093BE048091BB00F1
:101D2000F0E0E154FB4F8083BDCF8091BE04803250
:101D300030F4E091BE04F0E0E154FB4F10820E94C9
:101D4000BA0D6091BE0470E0E0912305F091240586
:101D50008FEB94E009951092BE040E94C40D36C02A
:101D600084E080932A051092E0041092DF04E09151
:101D70002505F091260509958091DF04811105C0A4
:101D800081E08093DF041092E104E091E00481E0BF
:101D90008E0F8093E004F0E0EF51FB4F8081809341
:101DA000BB009091E0048091DF04981708F47ACF8B
:101DB00085E88093BC000AC085EC8093BC0010923B
:101DC0002A0504C01092BD040E94BA0DFF91EF9144
:101DD000BF91AF919F918F917F916F915F914F9143
:101DE0003F912F910F900FBE0F901F90189590E08C
:101DF00022E0281740F0892F806A86958CBD909547
:101E000091709DBD08959730B0F7220F953010F472
:101E100031E001C032E0930FECCF8FEF8EBD0DB4F7
:101E200007FEFDCF8EB508958EBD0DB407FEFDCF24
:101E3000089561E0FC0182810E94C61E8FEF0C9420
:101E4000140FCF93DF93EC018C810E94F70E60E0BA
:101E50008A81DF91CF910C94C61ECF92DF92EF92D0
:101E6000FF920F931F93CF93DF93EC018B017A01C5
:101E70000E9494056B010E940D0F8D838F3F49F4E2
:101E80000E9494056C197D096D327140A0F381E1C7
:101E900003C08E3F39F08FE08B83CE010E94190F73
:101EA00080E028C0E114F104E1F081E0E81AF108D3
:101EB0008FEF8EBDF8012FEFCF01801B910B8E1598
:101EC0009F0538F40DB407FEFDCF8EB52EBD81936E
:101ED000F3CF0DB407FEFDCF8EB5F801EE0DFF1D5B
:101EE00080831D820E940D0F0E940D0FCE010E9463
:101EF000190F81E0DF91CF911F910F91FF90EF902B
:101F0000DF90CF9008950F931F93CF93DF93EB0152
:101F10000E9494058B010E940D0F8F3F49F00E9493
:101F20009405601B710B6C177D07A8F380E001C05E
:101F300081E0DF91CF911F910F910895FF920F9350
:101F40001F93CF93DF9300D000D0CDB7DEB78C01C5
:101F5000F62E29833A834B835C830E94210F68E528
:101F600072E0C8010E94830F8F2D80640E94140FBD
:101F70008C810E94140F8B810E94140F8A810E9411
:101F8000140F89810E94140FF11002C085E901C06D
:101F900087E80E94140F8CE0F81202C00E940D0F17
:101FA000F12C0E940D0FF801858387FF05C0FFEF1C
:101FB000FF1611F0F394F5CF0F900F900F900F9044
:101FC000DF91CF911F910F91FF900895BF92CF9213
:101FD000DF92EF92FF920F931F93CF93DF93EC0169
:101FE000B22E1E821B82798368834A830E949405E5
:101FF0008B0161E08A810E948D1E61E08A810E94CE
:10200000C61E61E081E10E94C61E61E081E10E947E
:102010008D1E61E080E10E948D1E61E08FE00E94D4
:102020008D1E80E48C830E94F70E2AE0F22E8FEF43
:102030000E94140FFA94D9F720E030E0A90160E083
:10204000CE010E949E0F813049F00E949405601BD2
:10205000710B613D774080F381E051C02AEA31E0A5
:1020600040E050E068E0CE010E949E0F853011F400
:1020700081E00AC094E0F92E0E940D0F8D83FA943E
:10208000D9F78A3A59F482E08E838E81823079F4CE
:10209000C12CD12CE12C80E4F82E0CC00E949405B8
:1020A000601B710B613D7740C8F282E028C0C12CF3
:1020B000D12C760120E030E0A90167E3CE010E9437
:1020C0009E0FA701960169E2CE010E949E0F882310
:1020D00049F00E949405601B710B613D774050F3FD
:1020E0008AE00DC08E818230E9F420E030E0A90161
:1020F0006AE3CE010E949E0F882339F088E08B832B
:10210000CE010E94190F80E012C00E940D0F807C4A
:10211000803C11F483E08E830E940D0F0E940D0F0E
:102120000E940D0FCE010E94190FBC8281E0DF9149
:10213000CF911F910F91FF90EF90DF90CF90BF90C4
:1021400008950F931F93CF93DF93EC0189018E8144
:10215000833039F039E0440F551F661F771F3A95D9
:10216000D1F79A01AB0161E1CE010E949E0F81116E
:102170000AC040E052E0B801CE01DF91CF911F913B
:102180000F910C942D0F84E08B83CE010E94190FC8
:1021900080E0DF91CF911F910F9108950F931F93CE
:1021A000CF93DF93EC01862F8A010E94140FF80170
:1021B00080818EBD818122E030E00DB407FEFDCF2D
:1021C0008EBD2115F2E03F0739F0F801E20FF31F51
:1021D00080812F5F3F4FF1CF0DB407FEFDCF8FEF12
:1021E0000E94140F8FEF0E94140F0E940D0F8D8319
:1021F0008F71853039F083E18B83CE010E94190FF6
:1022000080E001C081E0DF91CF911F910F9108958F
:102210000F931F93CF93DF93EC0189018E8183305D
:1022200039F089E0440F551F661F771F8A95D1F753
:102230009A01AB0168E1CE010E949E0F882319F03C
:1022400086E08B830CC0A8016EEFCE010E94CE10F9
:10225000182F882321F0CE010E94190F04C0CE014F
:102260000E94190F10E0812FDF91CF911F910F91E4
:102270000895BF92CF92DF92EF92FF920F931F9338
:10228000CF93DF93EC01888180FF39C089819A81E7
:102290008E01095F1F4FDC01ED91FC914B815C8148
:1022A0006D817E810280F381E02D98010995B82E21
:1022B000811102C0B12C25C0888181FD04C08881B4
:1022C0008E7F88831EC0A981BA81ED91FC91119700
:1022D0001C964D915D916D917C911F97CB80DC8018
:1022E000ED80FE804C0D5D1D6E1D7F1D0280F38113
:1022F000E02D9801CD0109958111E1CFDBCFBB2401
:10230000B3948B2DDF91CF911F910F91FF90EF90A0
:10231000DF90CF90BF900895CF92DF92EF92FF921F
:102320001F93CF93DF93EC016A017B01122F4B8146
:102330005C816D817E814C155D056E057F0501F127
:102340000E943911811103C080E090E01FC012FF8C
:1023500006C01882CB82DC82ED82FE8211C08981A8
:102360009A81DC01ED91FC910190F081E02D9E01BC
:10237000295F3F4FB701A60109958111EACFE4CF4C
:1023800013708881812B8883CE010796DF91CF91CE
:102390001F91FF90EF90DF90CF9008954250510928
:1023A00061097109FC01048004C0440F551F661FB8
:1023B000771F0A94D2F780899189A289B389480F3F
:1023C000591F6A1F7B1FCB01BA010895CF92DF927C
:1023D000EF92FF920F931F93CF93DF93EC016A016B
:1023E0007B0189018D81803251F5E7E07695679513
:1023F00057954795EA95D1F78C899D89AE89BF8914
:10240000480F591F6A1F7B1F22E0CE0180960E9451
:102410008C11009711F48FEF40C0E894C7F8DD24C9
:10242000EE24FF24F601EE0FFF1FEE0FFF1FE80F53
:10243000F91F40815181628173817F701DC080319D
:1024400051F74C895D896E897F894D0D511D611D44
:10245000711D22E0CE0180960E948C110097D9F266
:10246000DD24EE24FF24F601EE0FFF1FE80FF91F15
:102470004081518160E070E0888D998DAA8DBB8D7F
:1024800084179507A607B70738F0F80140835183F2
:102490006283738381E001C080E0DF91CF911F915F
:1024A0000F91FF90EF90DF90CF9008958F929F92C1
:1024B000AF92BF92CF92DF92EF92FF920F931F9352
:1024C0006A017B0148015901FC012581203231F567
:1024D00017E076956795579547951A95D1F7048932
:1024E000158926893789400F511F621F731F23E00A
:1024F00080960E948C11009799F0E894C7F8DD242B
:10250000EE24FF24F601EE0FFF1FEE0FFF1FE80F72
:10251000F91F80829182A282B3821DC0203111F006
:1025200080E01AC0FC0144895589668977894D0D80
:10253000511D611D711D23E080960E948C11009732
:1025400079F3DD24EE24FF24F601EE0FFF1FE80FE0
:10255000F91F9182808281E01F910F91FF90EF908F
:10256000DF90CF90BF90AF909F908F9008953F9253
:102570004F925F926F927F928F929F92AF92BF9293
:10258000CF92DF92EF92FF920F931F93CF93DF933F
:10259000CDB7DEB728970FB6F894DEBF0FBECDBF1C
:1025A0009E838D832A013B0138872F834115510576
:1025B0006105710531F4FC0180849184A284B384A7
:1025C00002C04A015B0175016401FFEFCF1ADF0A07
:1025D000EF0AFF0AED81FE81808D918DA28DB38D72
:1025E0008C159D05AE05BF0528F402E0C02ED12C48
:1025F000E12CF12C9E012F5F3F4FB701A6018D8189
:102600009E810E94E61187FD1DC0882341F08981CB
:102610009A81AB81BC81892B8A2B8B2B31F0C8141A
:10262000D904EA04FB0489F60DC00FEF1FEF2FEF6A
:102630003FE0B701A6018D819E810E945612382E7F
:10264000811102C0312C1CC0411451046104710479
:1026500059F097018601B301A2018D819E810E94EC
:102660005612811107C0EECFED81FE81C086D18662
:10267000E286F386EF81F885C082D182E282F3821E
:10268000832D28960FB6F894DEBF0FBECDBFDF9125
:10269000CF911F910F91FF90EF90DF90CF90BF905F
:1026A000AF909F908F907F906F905F904F903F90F2
:1026B00008959F92AF92BF92CF92DF92EF92FF92D6
:1026C0000F931F93CF93DF9300D000D0CDB7DEB729
:1026D0005C016A017B019E012F5F3F4FB701A6019C
:1026E000C5010E94E611982E87FF02C080E01EC03F
:1026F00000E010E09801B701A601C5010E94561242
:102700008823A1F3F5014085518562857385C41640
:10271000D506E606F70620F4C086D186E286F38663
:10272000C980DA80EB80FC809110D5CF0F900F909C
:102730000F900F90DF91CF911F910F91FF90EF902D
:10274000DF90CF90BF90AF909F900895CF92DF928F
:10275000EF92FF920F931F93CF93DF93EC01162F0D
:102760001D8281E090E0A0E0B0E088879987AA8789
:10277000BB87DAA3C9A318A28FEF9FEFDC018BA35D
:102780009CA3ADA3BEA3662321F1653008F0BFC0B2
:1027900020E040E050E0BA01CE0180960E948C110A
:1027A000009709F4B4C0FC0100E1109FE00DF11D99
:1027B0001124E255FE4F80818F7709F0A8C0C084B4
:1027C000D184E284F384C114D104E104F10421F43E
:1027D0009EC0C12CD12C760120E0B701A601CE010C
:1027E00080960E948C11FC01009709F490C08385AB
:1027F00094858115924009F08AC08089823009F061
:1028000086C086859785892B09F481C035853A83F2
:102810008FEF830F8B831C8289E090E021E03217D9
:1028200041F0019709F473C0220F4C814F5F4C8334
:10283000F6CF468957894115510519F060E070E0DF
:1028400004C044A155A166A177A14C875D876E871E
:102850007F878685978597018601080F191F211D9F
:10286000311D0C8B1D8B2E8B3F8B818992899F8311
:102870008E83440F551F661F771F400F511F621F25
:10288000731F4C8F5D8F6E8F7F8FB5E0880F991F00
:10289000BA95E1F781509E4F892F99278695480F69
:1028A000591F611D711D488B598B6A8B7B8B8389E6
:1028B0009489009719F0A0E0B0E004C080A191A134
:1028C000A2A1B3A197018601041B150B260B370BA0
:1028D000B901A801480F591F6A1F7B1F0C8004C053
:1028E00076956795579547950A94D2F7DB01CA010B
:1028F0000196A11DB11D888F998FAA8FBB8F453F6F
:102900001FE051076105710520F48CE08D8380E0A4
:1029100012C0453F5F4F6105710510F480E109C0A9
:1029200084A595A5A6A5B7A58C8F9D8FAE8FBF8FCB
:1029300080E28D8381E0DF91CF911F910F91FF9015
:10294000EF90DF90CF900895FC01828180688283B0
:102950009F01245F3F4F4485558566857785868135
:1029600097810C94B7129F92AF92BF92CF92DF9251
:10297000EF92FF920F931F93CF93DF93EC01888127
:1029800085FF02C0912C5EC088899989AA89BB897C
:1029900081159E4FAF41B105A8F7CE010E94A41446
:1029A000982E882379F34C855D856E857F858E8191
:1029B0009F810E94CE116B017C018E819F8125E059
:1029C000B701A60180960E948C115C010097D1F29C
:1029D00080E092E0F5019C01119221503040E1F736
:1029E00011E0AE81BF8112960C9112971017A0F4DE
:1029F000ED91FC9111970280F381E02D9501B701D3
:102A0000A601410F511D611D711DCD01099588233E
:102A100009F4B8CF1F5FE5CF10E020E030E089E097
:102A2000000F111F221F331F8A95D1F7488959893A
:102A30006A897B89400F511F621F731F488B598B16
:102A40006A8B7B8B892DDF91CF911F910F91FF9026
:102A5000EF90DF90CF90BF90AF909F900895CF936D
:102A6000DF93EC01262F4C895D896E897F898E81E9
:102A70009F8180960E948C119C01009761F08C814F
:102A80009D818F70992745E0880F991F4A95E1F73E
:102A9000820F931F02C080E090E0DF91CF910895F4
:102AA000FC018081811114C080E2DF01982F1D920A
:102AB0009A95E9F777836683DB0115969C919031AF
:102AC00019F0903229F480E4808381E082830895B4
:102AD00080E008952F923F924F925F926F927F9283
:102AE0008F929F92AF92BF92CF92DF92EF92FF921E
:102AF0000F931F93CF93DF9300D000D0CDB7DEB7F5
:102B00009C838B834B017A01DC018C91882309F132
:102B100012969C9190FF1DC027C0D380D822A1148B
:102B2000B10409F09CC0D1109AC0452B462B472B0D
:102B300009F47EC0AB81BC811C964D915D916D9175
:102B40007C911F9729813A81CF010E94E61187FF6E
:102B50007EC0AB81BC8111968C91119782601196D9
:102B60008C938FEF9FEFE3C083FF17C0EB81FC8155
:102B7000808D918DA28DB38D408951896289738931
:102B8000841B950BA60BB70BA70160E070E04817FC
:102B900059076A077B07D0F018C085FF17C0AB81C3
:102BA000BC811696ED91FC9117978681978155E02F
:102BB000880F991F5A95E1F750962D913C915197A6
:102BC000821B930B8E159F0508F47C018701EB8116
:102BD000FC813C96FA83E983612C42E0742E011556
:102BE000110509F468C0AB81BC8150964D915D918F
:102BF0006D917C9153975A01B1E0BB22EB81FC812E
:102C000020810680F781E02DDB01CA0139E0B6950D
:102C1000A795979587953A95D1F725FF7ECF448D57
:102C2000558D668D778D480F591F6A1F7B1F2BC0EE
:102C300026FD02C0EB81FC81848D958DA68DB78D1C
:102C4000EB81FC8184879587A687B78708C08111AF
:102C500006C0EB81FC818081807769F57ACFAB81FA
:102C6000BC811C964D915D916D917C911F9716963C
:102C70008D919C9117970E94CE11AB01BC014D0D17
:102C8000511D611D711DEB81FC8186819781A1140D
:102C9000B104B1F50115F2E01F0790F1DC01939644
:102CA0002D903D904D905C9096974215530564058C
:102CB000750529F425C0C701801B910B38C0DC01C4
:102CC000ED91FC910190F081E02D9401099588230C
:102CD00009F43FCFC12CF2E0DF2E8C0C9D1CEB8160
:102CE000FC8180899189A289B3898C0D9D1DA11DCC
:102CF000B11D808B918BA28BB38B0C191D096FCFEB
:102D000093012A193B0968012017310708F469016A
:102D100020E080960E948C11009709F41ACFBC0124
:102D20006A0D7B1DA601C4010E94341FD6CF0F90EF
:102D30000F900F900F90DF91CF911F910F91FF9007
:102D4000EF90DF90CF90BF90AF909F908F907F904B
:102D50006F905F904F903F902F900895FF920F9348
:102D60001F93CF93DF931F92CDB7DEB78C01262F31
:102D7000FC014089518962897389DB01CA01E5E060
:102D8000B695A79597958795EA95D1F7F82FFF7097
:102D9000FF2E11F0211117C041E050E0BE016F5F1E
:102DA0007F4FC8010E946A15813019F080E090E0E1
:102DB0001CC0F8014089518962897389415E5F4F67
:102DC0006F4F7F4F05C0405E5F4F6F4F7F4FF801E1
:102DD000408B518B628B738BF8018681978187962C
:102DE000F0E2FF9E800D911D11240F90DF91CF9195
:102DF0001F910F91FF9008954F925F926F927F9273
:102E00008F929F92AF92BF92CF92DF92EF92FF92FA
:102E10000F931F93CF93DF93EC016A017B014C84E6
:102E20005D846E847F84A881AA2309F48CC0411537
:102E300051056105710529F41C861D861E861F86B5
:102E40007CC0A3FF0BC0488D598D6A8D7B8D4C15BE
:102E50005D056E057F0508F476C014C0A5FF12C09D
:102E6000EE81FF8186819781F5E0880F991FFA95A1
:102E7000E1F7A0E0B0E084179507A607B70708F4CC
:102E800062C05BC0088919892A893B89EE81FF816C
:102E9000848190E00996B901A80141505109610966
:102EA0007109082E04C076956795579547950A9441
:102EB000D2F746015701B1E08B1A9108A108B10879
:102EC00004C0B694A794979487948A95D2F78416F1
:102ED0009506A606B70620F0012B022B032B81F4E2
:102EE000A6FF05C0848D958DA68DB78D04C08C8DF1
:102EF0009D8DAE8DBF8D8C879D87AE87BF8704C0AB
:102F0000841A950AA60AB70A8E01045F1F4F81141E
:102F10009104A104B10489F04C855D856E857F859F
:102F200098018E819F810E94E61191E0891A910893
:102F3000A108B10818165CF306C0C88AD98AEA8AC3
:102F4000FB8A81E005C04C865D866E867F8680E0C8
:102F5000DF91CF911F910F91FF90EF90DF90CF9075
:102F6000BF90AF909F908F907F906F905F904F90A9
:102F700008958F929F92AF92BF92FF920F931F93EB
:102F8000CF93DF93EC01F22E80E2DE011D928A9551
:102F9000E9F7FB01868197819F838E835D834C8354
:102FA000848C958CA68CB78C88869986AA86BB86DD
:102FB000FC01B7964F705527B5E0440F551FBA95E1
:102FC000E1F7E40FF51F338533FF03C0188280E07B
:102FD00054C0377138832385287111F438603883E1
:102FE0000B832F2D227319F02881217179F72F2D52
:102FF0002F702A83DC0193964D915D916D917C91A8
:1030000096974C8B5D8B6E8B7F8B4489558960E0E6
:1030100070E0BA0155274427028D138D20E030E07F
:10302000402B512B622B732BF4FE0AC04115510526
:1030300061057105E9F00E945913811119C0C6CFCD
:103040004C8F5D8F6E8F7F8F448D558D668D778D04
:10305000488F598F6A8F7B8FF5FE0EC0488D598D32
:103060006A8D7B8DCE010E94FC16811105C0AECF0A
:103070008A8180688A83F0CF81E0DF91CF911F91B0
:103080000F91FF90BF90AF909F908F9008950F93F6
:103090001F93CF93DF93EC018881882309F443C009
:1030A0008A8187FF38C061E0CE010E942F158C0114
:1030B000009729F489818160898380E035C0FC0113
:1030C0008081853EB9F3888183FF08C0488D598D82
:1030D0006A8D7B8D448F558F668F778F4C8D5D8D7C
:1030E0006E8D7F8DF801538F428F758B648BE091CD
:1030F0002B05F0912C05309759F0B8016A5E7F4F8F
:10310000C80148960995F801808D918D938B828B2B
:103110008A818F778A838E819F8180960E94391160
:10312000882341F201C081E0DF91CF911F910F917F
:103130000895CF93DF93EC010E9447181882DF9126
:10314000CF910895CF92DF92EF92FF920F931F934A
:10315000CF93DF93CDB7DEB7E3970FB6F894DEBF1A
:103160000FBECDBF8C017B015BAB4AABD22E198267
:103170001A82FC018081882311F080E059C0FB0194
:1031800080818077D1F3EAA9FBA980818F32D9F4BD
:10319000EAA9FBA980818F3221F43196FBABEAAB1F
:1031A000F7CFF70166817781811104C0C8010E94C1
:1031B00050153EC0CE0101960E9450158823E9F2B9
:1031C000CE0101967C0150E2C52EAE014E5C5F4FF0
:1031D000BE016F5D7F4F8AA99BA90E94991A88231F
:1031E00061F2EAA9FBA980818823D1F021E0AE0138
:1031F0004F5D5F4FB701C8010E941A1C882309F474
:10320000BCCFF801DE0111968C2D01900D928A95AC
:10321000E1F7C8010E949918FE0131967F01D5CFD0
:103220002D2DAE014F5D5F4FB701C8010E941A1CE2
:10323000E3960FB6F894DEBF0FBECDBFDF91CF91FE
:103240001F910F91FF90EF90DF90CF9008952F92F4
:103250003F924F925F926F927F928F929F92AF9226
:10326000BF92CF92DF92EF92FF920F931F93CF9373
:10327000DF93EC015B014A01888183FF0EC08A81E4
:1032800081FF0BC082FF0FC0488D598D6A8D7B8DE9
:10329000CE010E94FC16811106C08981816089835C
:1032A0008FEF9FEF06C1A40160E070E088899989E3
:1032B000AA89BB8980959095A095B09584179507AC
:1032C000A607B70750F364011E012CE0220E311C43
:1032D000488959896A897B89C114D10409F4C7C016
:1032E0008E819F812A013B0129E07694679457944F
:1032F00047942A95D1F7DC0113961C9114217A0189
:10330000B1E0FB22111134C0E114F10489F54C85C0
:103310005D856E857F85411551056105710569F0F3
:1033200091010E94E61187FDB8CF811121C0CE0125
:103330000E94A41481111CC0B0CF8C8D9D8DAE8DC8
:10334000BF8D0097A105B10579F4CE010E94A414A8
:10335000882309F4A2CF8C859D85AE85BF858C8F8F
:103360009D8FAE8FBF8F04C08C879D87AE87BF8730
:103370004C855D856E857F858E819F810E94CE11F3
:10338000AB01BC01410F511D611D711DEE81FF811B
:10339000E114F10421F4C11422E0D206B8F580E072
:1033A00092E08E199F0986018C159D0508F48C0109
:1033B000E114F10479F4488859886A887B88888DFB
:1033C000998DAA8DBB8D481659066A067B0610F0AA
:1033D00025E001C021E0CF0180960E948C1100976A
:1033E00009F45BCFA801B5018E0D9F1D0E94341F0B
:1033F000E00EF11EE11482E0F80641F58E819F8116
:1034000080960E943911811121C047CF83A194A1D8
:10341000A5A1B6A184179507A607B70741F410A286
:103420008FEF9FEFDC0183A394A3A5A3B6A38E81A6
:103430009F81DC01ED91FC910280F381E02D9501EB
:103440000995882309F429CF00E012E08889998939
:10345000AA89BB89800F911FA11DB11D888B998BF3
:10346000AA8BBB8BA00EB11EC01AD10A31CF888D9A
:10347000998DAA8DBB8D2A8184179507A607B7075A
:1034800028F4488F598F6A8F7B8F06C080912B0557
:1034900090912C05892B11F020682A838A8183FD65
:1034A00002C0C40106C0CE010E9447188111F9CFA5
:1034B000F4CEDF91CF911F910F91FF90EF90DF90AD
:1034C000CF90BF90AF909F908F907F906F905F90C4
:1034D0004F903F902F900895653040F4FC01E60F27
:1034E000F11DE60FF11D8181928108956B3040F44A
:1034F000FC01E60FF11DE60FF11D84819581089511
:10350000613140F4FC01E60FF11DE60FF11D8681EB
:103510009781089580E090E00895FC0190E080E0BC
:1035200080FB879587F92191820F9F5F9B30C1F7C0
:103530000895CF92DF92EF92FF920F931F93CF9354
:10354000DF93FB01DC0101962C912032D9F3B48387
:10355000A383ED01BE016A1B7B0B8991811105C01C
:10356000CD01860F971FEC0118C08F32C9F38C353F
:1035700011F480E0D0C0982F977F9232D1F38A3334
:10358000C1F3982F9F7B9C33A1F392EC980F92305C
:1035900080F380528F35F0F2ECCF1C2F3D2F299114
:1035A0002032D9F32F32C9F3EA0118833983EC01B1
:1035B0006115710561F08A918E3211F0803219F433
:1035C00061507109F5CF6F3F710509F094F6728370
:1035D000618380E090E020E2EF01C80FD91F2E83C5
:1035E00001968B309105C1F7ED01CE018A1B9B0B33
:1035F00029912E32D1F32032C1F351E0009709F026
:1036000050E09B012150310938F407E010E0C12C53
:10361000F12CC8E0EC2E0FC0ED01C20FD31F488182
:103620004E3281F7F2CFED01C80FD91F48814032E9
:1036300031F450E0019686179707ACF343C04E3241
:1036400021F428173907A9F704C04232A1F04C37FA
:1036500091F0C6EDC40FC63010F44D3261F4C6ECE3
:10366000C40FC63040F0C5EAC40FC33020F0CFED20
:10367000C40FCE3530F08217930709F150E04FE5C3
:1036800003C082179307D9F00117D0F1CFE9C40F17
:10369000CA3118F44052FE2805C0CFEBC40FCA311E
:1036A00008F4CE28DD24D394D10EEF01C10FD11D33
:1036B0004E8346E04D1508F0D5821D2DBBCF0A3054
:1036C000C9F450E08681803209F453CF552339F094
:1036D000CF2011F082E001C08F2D808309C081E0EE
:1036E00080838581E80FF11D8EE7868381E38783E0
:1036F00081E011C0C9010AE018E040E1E42E9ACF50
:103700000A30F9F228173907E4F2C9010AE018E093
:1037100050E1E52E8ECFDF91CF911F910F91FF9059
:10372000EF90DF90CF900895AF92BF92CF92DF924B
:10373000EF92FF920F931F93CF93DF937C01EB01E6
:10374000AD8002E010E07EE7B72E6E0186E0C80E85
:10375000D11C89819A819801280F391FEB81FC8146
:10376000AF01480F591FE417F50779F0C90165E06B
:10377000880F991F6A95E1F7820F931F21913327D4
:1037800027FD309528273927EECFE3E0EA1510F41E
:1037900053E0A52E84E08A0D922F9F70E82FF0E071
:1037A0009A3010F4905D01C0995CEC0FFD1F968378
:1037B00044E0369527954A95E1F78150A81660F3C5
:1037C000FE01EA0DF11DB68240E050E0BA01C701EA
:1037D0000E94FC1661E0C7010E94AE16BC01009772
:1037E00031F481E0F70191819923C9F017C0FC0100
:1037F0008081882359F0838583FDECCF4BE050E036
:10380000C6010E94271F892B29F702C081E007C04B
:103810000F5F1F4F0436110509F09BCF80E0DF9149
:10382000CF911F910F91FF90EF90DF90CF90BF90BD
:10383000AF9008952F923F924F925F926F927F9236
:103840008F929F92AF92BF92CF92DF92EF92FF92B0
:103850000F931F93CF93DF93CDB7DEB72B970FB6A0
:10386000F894DEBF0FBECDBF3C017B876A877A012B
:103870002A83DA0111968D909C901297FB0180812A
:10388000807711F480E0F3C1D3018C918111FACFDC
:10389000FA018081837009F4E1C1C4010C966DE0E6
:1038A00070E00E943D1F55245394560E40E050E0B6
:1038B000BA018A859B850E94FC161C821D82198292
:1038C000412C10E000E01B821701B6E02B0E311CEA
:1038D000AA85BB8550962D913D914D915C91539752
:1038E00065E056954795379527956A95D1F7590123
:1038F00061E0CD0128873E8349875F830E94AE1631
:103900006C0128853E81009739F4EA85FB85818129
:10391000882309F488C0B6CFDC018C91853E11F074
:1039200081110AC0111102C02C833D83151508F4C2
:103930001F5F811104C077C0151528F005C0853EB2
:1039400019F400E0C5CF10E08E32D9F3F60193856B
:103950009F3009F046C0011108C086FFB9CF082F7B
:103960000F7125852983402E07C04A948411E9CF21
:10397000858529812813E5CF842D90E00197ADE05E
:10398000A89F5001A99FB00C1124A814B904C8F62F
:1039900020E0622FC60128870E946C1A2885A8148F
:1039A000B90419F4892B69F693CF8F3F910509F07B
:1039B00040F63FEB380F3A3108F4805EA5014F5FC7
:1039C0005F4FD7011396ED91FC911497EA0DFB1D03
:1039D00090813FEB390F3A3108F4905E8913B1CFF3
:1039E00040C193FDAECF002351F0B1E04B124ACF5E
:1039F000C6010E948D1A2981821344CF10C04BE06A
:103A000050E0B101C6010E94271F892B09F060CF49
:103A1000D7018C9180FF03C021E02B8359CF2A81ED
:103A200027FF14C12FCF8A818274823409F02ACFF4
:103A3000112359F0AC80BD8008C060E08A859B8569
:103A40000E94AE16892B21F01F5F1515B0F318C028
:103A5000AA85BB8511968C91882391F013CF8A8516
:103A60009B850E94B314882309F40CCFAA85BB85DB
:103A70001696ED91FC9117978281823018F4105FB1
:103A8000151568F32B81222341F0B7018A859B85A8
:103A90000E94941B882309F4F5CEA50160E070E034
:103AA00025E0440F551F661F771F2A95D1F78A8599
:103AB0009B850E94FC16882309F4E4CE0FEF050DC8
:103AC000102F8FE0482E670186E0C80ED11C9DE0C4
:103AD000592E49C060E08A859B850E94AE165C0124
:103AE000009709F4CFCEAA85BB851696ED91FC917F
:103AF000179780A1816080A3412F101301C04064FB
:103B0000F501408343861486C60149870E948D1AB9
:103B1000D5011D968C931D975B961C921E925A9709
:103B2000F7012381348149854F7150E0415051099B
:103B3000549EC001559E900D1124F50160E088153A
:103B40009905A0F4D901A80FB91F4C91552747FD3D
:103B500050956530B0F4528341836F5F0196329681
:103B60006D3069F711501111B5CF13C041E050E02D
:103B70008815990511F440E050E05195419551099F
:103B8000E8CF6B3018F455834483E7CF57834683DF
:103B9000E4CFEA85FB8580899189A289B38915E004
:103BA000B695A795979587951A95D1F75C0160E032
:103BB000CF010E94AE166C01009709F463CE80E23B
:103BC000D6011D928A95E9F7F70136968BE0D6016A
:103BD00001900D928A95E1F7F70180818871D601F5
:103BE0001C968C93E0912B05F0912C05309739F0C1
:103BF000B601625F7F4FC6014096099509C081E218
:103C000098E2F601918B808B80E098E09787868719
:103C1000D60150968D919C91519753969C938E937B
:103C2000529759969C938E9358971E968D919C917E
:103C30001F9757969C938E935697AA85BB85169689
:103C4000ED91FC91179780A1816080A32A81A50145
:103C50006A857B85C3010E94B91709C05524539416
:103C600025CE2F5F2D3009F433CE5A0192CE2B96FC
:103C70000FB6F894DEBF0FBECDBFDF91CF911F917D
:103C80000F91FF90EF90DF90CF90BF90AF909F90FB
:103C90008F907F906F905F904F903F902F900895FE
:103CA00090E0FC013197EF30F105B0F5EA5AFF4F93
:103CB0000C94511F809180008F7703C08091800009
:103CC0008F7D80938000089580918000877FF9CF59
:103CD00084B58F7702C084B58F7D84BD08958091AF
:103CE00090008F7707C0809190008F7D03C08091F6
:103CF0009000877F8093900008958091C0008F7717
:103D000003C08091C0008F7D8093C0000895809192
:103D1000C200877F8093C2000895CF93DF9390E025
:103D2000FC01E35AFD4F2491FC01E558FD4F8491BD
:103D3000882349F190E0880F991FFC01E955FD4F58
:103D4000A591B49187569D4FFC01C591D4919FB721
:103D5000611108C0F8948C91209582238C938881FE
:103D600082230AC0623051F4F8948C91322F30953E
:103D700083238C938881822B888304C0F8948C9150
:103D8000822B8C939FBFDF91CF9108950F931F9348
:103D9000CF93DF931F92CDB7DEB7282F30E0F90124
:103DA000E35BFD4F8491F901E35AFD4F1491F90152
:103DB000E558FD4F04910023C9F0882321F0698361
:103DC0000E94501E6981E02FF0E0EE0FFF1FE756C2
:103DD000FD4FA591B4919FB7F8948C91611103C0E8
:103DE0001095812301C0812B8C939FBF0F90DF9191
:103DF000CF911F910F910895CF92DF92EF92FF9292
:103E00000F931F93CF93DF936C017A01EB01E60EC2
:103E1000F71E00E010E0CE15DF0561F06991D601D4
:103E2000ED91FC910190F081E02DC6010995080FFC
:103E3000191FF1CFC801DF91CF911F910F91FF9012
:103E4000EF90DF90CF900895F8940C94571FFB01EA
:103E5000DC0104C08D910190801921F44150504043
:103E6000C8F7881B990B0895FB01DC0102C0019083
:103E70000D9241505040D8F70895AA1BBB1B51E149
:103E800007C0AA1FBB1FA617B70710F0A61BB70BCA
:103E9000881F991F5A95A9F780959095BC01CD016F
:103EA0000895EE0FFF1F0590F491E02D0994F8940A
:023EB000FFCF42
:103EB20000002F058000E803010100E1000000007E
:103EC2000000646174612E74787400000000001AAE
:103ED200040F04000000001204160400000000FA9F
:103EE20009FC1E6D0ADB0A230B000000003D0B8457
:103EF2000B670B770B530B640B000000006F0C4237
:0A3F02000C170C1F0C320C410C00D0
:00000001FF
