:100000000C945F010C9487010C9487010C94870178
:100010000C9487010C9487010C9487010C94870140
:100020000C9487010C9487010C94AE0B0C947A0A03
:100030000C9487010C9487010C9487010C94870120
:100040000C9487010C9487010C9487010C94870110
:100050000C9487010C9487010C9487010C9457062B
:100060000C9487010C9487010C9487010C948701F0
:100070000C9487010C9487010C9487010C948701E0
:100080000C9487010C9487010C9487010C948701D0
:100090000C94F20F0C9487010C9487010C94870147
:1000A0000C9487010C9487010C948701D220D520F1
:1000B000C420C820CE20F620F620F620D920DD204E
:1000C000E120E720EB20F620F12000C18081C11261
:1000D000010002020000404F1B04920001010200D7
:1000E0000112010002000000404F1B0492000101B8
:1000F000020001537061726B46756E0055534220C9
:10010000494F20426F61726400040309040000003B
:1001100000000000002A2B28000000000000000062
:10012000000000000000000000000000002C9EB451
:10013000A0A1A2A434A6A7A5AE362D3738271E1F2E
:1001400020212223242526B333B62EB7B89F8485D9
:10015000868788898A8B8C8D8E8F909192939495C7
:10016000969798999A9B9C9D2F3130A3AD350405A5
:10017000060708090A0B0C0D0E0F101112131415A7
:10018000161718191A1B1C1DAFB1B0B500090402CF
:1001900000010300000009210101000122650007A0
:1001A00005840340000105010902A1010901A10024
:1001B000850105091901290315002501950375011C
:1001C000810295017505810305010930093109385E
:1001D0001581257F750895038106C0C005010906B4
:1001E000A1018502050719E029E715002501750120
:1001F000950881029501750881039506750815001B
:1002000025650507190029658100C0080B00020259
:100210000201000904000001020200000524001090
:10022000010524010101042402060524060001073A
:1002300005810310004009040100020A00000007C4
:100240000502024000000705830240000000000094
:100250000200090F0000030401000C000004080262
:10026000011040804010204080408008020401803E
:1002700040201002011080102040400404040404B7
:100280000304050202020204030202020206060639
:1002900006060604040202020400000000250028ED
:1002A000002B002E00310000000000240027002A4F
:1002B000002D003000002706580D220E100F1124CB
:1002C0001FBECFEFDAE0DEBFCDBF11E0A0E0B1E0AE
:1002D000EAE7F3E402C005900D92A437B107D9F71D
:1002E00025E0A4E7B1E001C01D92AF34B207E1F709
:1002F00012E0CEEBD2E004C02297FE010E94B721AB
:10030000C63BD107C9F70E946B080C9466210C9478
:100310000000EF92FF920F931F93CF93DF9300D0D3
:10032000CDB7DEB7062F142F682F8BE894E0298312
:100330003A830E94F00E602F8BE894E00E94970EA3
:100340002981022FE22E3A81F32E8E2D801B8117F8
:1003500040F4F70161917F018BE894E00E94970ED1
:10036000F4CF8BE894E00E940D0F91E0811190E0B2
:10037000892F0F900F90DF91CF911F910F91FF90D8
:10038000EF900895CF93DF931F92CDB7DEB74983E7
:100390009E012F5F3F4F41E00E9489010F90DF9146
:1003A000CF9108953F924F925F926F927F928F927A
:1003B0009F92AF92BF92CF92DF92EF92FF920F93F4
:1003C0001F93CF93DF9300D000D000D0CDB7DEB71E
:1003D000682E562E742E3A8329830E94A1066B0143
:1003E0007C01312C412C872D90E09C838B8348012C
:1003F000A12CB12C3714B0F5662D8BE894E00E9447
:10040000F00E652D8BE894E00E94970E8BE894E047
:100410000E940D0F662D8BE894E00E94F00E4B8138
:100420005C81431951094132510514F040E250E01A
:10043000662D8BE894E00E94ED0E8BE894E00E941C
:100440003F0E892B59F10115110599F10E94A10662
:100450006C197D098E099F09681579058A059B0528
:1004600040F11CC001151105A9F10E94A1066C19EB
:100470007D098E099F0920E030E06017710782072F
:10048000930740F1872D90E0242D332727FD3095E9
:1004900028173907FCF444244A941CC08BE894E0E4
:1004A0000E940D0F872D90E2971508F480E2380E18
:1004B000A1CFE981FA81E40DF11D47FCFA95FE8395
:1004C000ED838BE894E00E94470EED81FE818083EE
:1004D0004394B3CF842D26960FB6F894DEBF0FBE9B
:1004E000CDBFDF91CF911F910F91FF90EF90DF90E3
:1004F000CF90BF90AF909F908F907F906F905F90C4
:100500004F903F9008950F931F9389019A0141E006
:100510000E94D2011F910F910895CF92DF92EF9226
:10052000FF920F931F93CF93DF931F92CDB7DEB748
:10053000C42ED22E9701AE014F5F5F4F0E948302FF
:100540008823F1F04C2D50E04D1951094F5F5F4F5A
:1005500061E070E002C0660F771FDA94E2F7615045
:100560007109042E01C0660F0A94EAF72981262337
:1005700030E002C0359527954A95E2F7F8012083CF
:100580000F90DF91CF911F910F91FF90EF90DF902F
:10059000CF900895EF92FF920F931F93CF93DF9325
:1005A0001F92CDB7DEB7182F062FF42EE22E209122
:1005B000060130910701AE014F5F5F4F0E94830239
:1005C000898121E030E00F2C01C0220F0A94EAF764
:1005D000EE2019F0482F422B03C0422F40954823AC
:1005E0004983602F812F0E94C2010F90DF91CF912C
:1005F0001F910F91FF90EF900895DF92EF92FF927D
:100600000F931F93CF93DF931F92CDB7DEB7F82ED2
:10061000E62ED42E122F2091060130910701AE0153
:100620004F5F5F4F0E948302882319F14D2D50E0E8
:10063000411B51094F5F5F4FE1E0F0E002C0EE0F58
:10064000FF1F1A95E2F73197042E01C0EE0F0A94AE
:10065000EAF701C0000F4A95EAF74E2F40958981CD
:100660004823E0234E2B49836E2D8F2D0E94C2011B
:1006700001C080E00F90DF91CF911F910F91FF900B
:10068000EF90DF90089528E6FC01208308950F93F2
:10069000062F22E044E06BE1FC0180810E94FD0214
:1006A0000F9108950F93062F22E044E06CE1FC01C6
:1006B00080810E94FD020F9108954F925F926F9288
:1006C0007F928F929F92AF92BF92CF92DF92EF92E2
:1006D000FF920F931F93CF93DF93EC015B013A01DD
:1006E0004901280100910601109107019C012F5F2B
:1006F0003F4F4EE06BE388810E94D201898190E0F8
:10070000982F88272A81822BF501918380838B8102
:1007100090E0982F88272C81822BF301918380838E
:100720008D8190E0982F88272E81822BF401918370
:100730008083898590E0982F88272A85822BF20173
:10074000918380838B8590E0982F88272C85822B3E
:10075000F701918380838D8590E0982F88272E85DF
:10076000822BF60191838083DF91CF911F910F91AE
:10077000FF90EF90DF90CF90BF90AF909F908F90C1
:100780007F906F905F904F900895262F46E06BE624
:10079000FC0180810C94CA020F93062F23E042E0F3
:1007A0006BE6FC0180810E94FD020F910895CF93BA
:1007B000DF93EC0161E00E94CC0361E0CE010E9476
:1007C000470363E0CE010E94520360E0CE01DF9157
:1007D000CF910C94C503EF92FF920F931F93CF9389
:1007E000DF93EC01E0900601F09007018C010F5FB0
:1007F0001F4F26E046E065E788810E948D028981CF
:10080000DF91CF911F910F91FF90EF9008950E947B
:10081000EB0391E0843309F090E0892F0895FC0107
:10082000848583FF0DC084A195A1A6A1B7A1448DA5
:10083000558D668D778D841B950BA60BB70B03C06A
:1008400080E090E0DC01811520E89207A105B10568
:1008500020F08FEF9FE7A0E0B0E008950C960C9495
:10086000911B0C960C94B11A0C960C94D618CF933D
:10087000DF931F92CDB7DEB741E050E0BE016F5F5E
:100880007F4F0C960E949217019719F4898190E08E
:1008900002C08FEF9FEF0F90DF91CF910895895B9A
:1008A0009D4F0C94C912895B9D4F0C943013CF93CC
:1008B000DF931F92CDB7DEB7698341E050E0BE0100
:1008C0006F5F7F4F0C960E94911B0F90DF91CF912D
:1008D00008958BE894E00E94D60E8CE08093B800D7
:1008E0008EEB91E00E94D7038EEB91E00E9407040B
:1008F000882381F122E04AE06BE174E084E194E036
:100900000E940E12882331F184EF93E00E94031BB2
:1009100061E08DEC91E00E94CE15882349F06DECEA
:1009200071E084EF93E00E947817882399F008C063
:1009300060E08DEC91E00E94CE158111F0CF08951A
:100940008091F403807731F084EF93E090934E052B
:1009500080934D050895CF92DF92EF92FF920F930F
:100960001F93CF93DF93CDB7DEB7AC970FB6F89454
:10097000DEBF0FBECDBF1092B7011092B60110922C
:10098000B5011092B4011092B3011092B20110920D
:10099000AB011092AA011092A9011092A801109225
:1009A000A7011092A6010E94A106609374017093A2
:1009B00075018093760190937701109279011092DE
:1009C00078018091780190917901181619060CF43C
:1009D00072C08CEAC82E81E0D82E9EEAE92E91E002
:1009E000F92E00EB11E028EB31E04AEB51E06CEB23
:1009F00071E08EEB91E00E945D038091B6019091D1
:100A0000B7012091BC013091BD01820F931F9093DB
:100A1000B7018093B6018091B4019091B501209106
:100A2000BA013091BB01820F931F9093B50180935F
:100A3000B4018091B2019091B3012091B80130913D
:100A4000B901820F931F9093B3018093B2018091FB
:100A5000AA019091AB012091B0013091B101820FB8
:100A6000931F9093AB018093AA018091A80190916C
:100A7000A9012091AE013091AF01820F931F909395
:100A8000A9018093A8018091A6019091A7012091CE
:100A9000AC013091AD01820F931F9093A701809319
:100AA000A601809178019091790101969093790146
:100AB0008093780186CF1D861E861C821B8288EE5D
:100AC00093E0A0E0B0E08D839E83AF83B88781E29E
:100AD00091E09A83898326E442E151E064EF73E078
:100AE000CE010D960E940C1B80E2FE013D96A6E809
:100AF000B1E001900D928A95E1F78B819C819093F2
:100B00007D0180937C018D819E81AF81B88580932A
:100B10007E0190937F01A0938001B093810189852C
:100B20009A85AB85BC858093820190938301A093C5
:100B30008401B093850180918601882309F474C0F3
:100B40004091740150917501609176017091770127
:100B50002AE030E08AE791E00E945D086BE171E0F5
:100B60008AE791E00E948D076091B6017091B7010C
:100B70004AE050E08AE791E00E943D086BE171E0B5
:100B80008AE791E00E948D076091B4017091B501F0
:100B90004AE050E08AE791E00E943D086BE171E095
:100BA0008AE791E00E948D076091B2017091B301D4
:100BB0004AE050E08AE791E00E943D086BE171E075
:100BC0008AE791E00E948D076091AA017091AB01C4
:100BD0004AE050E08AE791E00E943D086BE171E055
:100BE0008AE791E00E948D076091A8017091A901A8
:100BF0004AE050E08AE791E00E943D086BE171E035
:100C00008AE791E00E948D076091A6017091A7018B
:100C10004AE050E08AE791E00E9445086BE171E00C
:100C20008AE791E00E948D0786E891E00E94031B0D
:100C3000AC960FB6F894DEBF0FBECDBFDF91CF915B
:100C40001F910F91FF90EF90DF90CF900895109239
:100C5000D2011092F4031092F50389E180931704F6
:100C600010921A0481E391E09093CE018093CD011C
:100C70008EEB91E00E94430310928601109287014F
:100C800010927D0110927C0188EE93E0A0E0B0E02C
:100C900080937E0190937F01A0938001B0938101A6
:100CA00081E291E090937B0180937A0108951F92F5
:100CB0000F920FB60F9211242F933F938F939F9310
:100CC000AF93BF9380911D0490911E04A0911F04C7
:100CD000B091200430911C0426E0230F2D3720F41E
:100CE0000296A11DB11D05C029E8230F0396A11D81
:100CF000B11D20931C0480931D0490931E04A093A7
:100D00001F04B09320048091210490912204A091AB
:100D10002304B09124040196A11DB11D80932104E8
:100D200090932204A0932304B0932404BF91AF9125
:100D30009F918F913F912F910F900FBE0F901F9019
:100D400018952FB7F89460911D0470911E0480913E
:100D50001F04909120042FBF08953FB7F89480910D
:100D6000210490912204A0912304B091240426B57B
:100D7000A89B05C02F3F19F00196A11DB11D3FBFD3
:100D80006627782F892F9A2F620F711D811D911D63
:100D900043E0660F771F881F991F4A95D1F7089582
:100DA000CF92DF92EF92FF92CF93DF936B017C01A2
:100DB0000E94AD06EB01C114D104E104F10489F0F5
:100DC0000E944E070E94AD066C1B7D0B683E73406F
:100DD00090F381E0C81AD108E108F108C851DC4F4E
:100DE000EACFDF91CF91FF90EF90DF90CF90089501
:100DF000789484B5826084BD84B5816084BD85B5F6
:100E0000826085BD85B5816085BDEEE6F0E08081BC
:100E100081608083E1E8F0E01082808182608083DD
:100E2000808181608083E0E8F0E080818160808360
:100E3000E1E9F0E08081826080838081816080834D
:100E4000E0E9F0E0808181608083E1ECF0E0808186
:100E500084608083808182608083808181608083E0
:100E6000E3ECF0E0808181608083E0ECF0E0808161
:100E700082608083E2ECF0E0808181608083EAE739
:100E8000F0E08081846080838081826080838081C3
:100E90008E7F808380818068808308950895CF92BB
:100EA000DF92EF92FF920F931F93CF93DF936C012A
:100EB0007A01EB01E60EF71E00E010E0CE15DF052B
:100EC00061F06991D601ED91FC910190F081E02DE6
:100ED000C6010995080F191FF1CFC801DF91CF9105
:100EE0001F910F91FF90EF90DF90CF9008956115C3
:100EF000710581F0DB010D900020E9F7AD01415053
:100F00005109461B570BDC01ED91FC910280F381E6
:100F1000E02D099480E090E008950C947707DC01BF
:100F2000ED91FC910190F081E02D099465E371E071
:100F30000C9477078F929F92AF92BF92CF92DF92DD
:100F4000EF92FF920F931F93CF93DF93CDB7DEB74E
:100F5000A1970FB6F894DEBF0FBECDBF7C01C42EA3
:100F6000E52FCB01D22E19A221E02D1510F02AE099
:100F7000D22E8E010F5D1F4F8D2C912CA12CB12CE8
:100F80006C2D7E2FA50194010E9493218C2DD29E61
:100F900080191124015011098A3014F4805D01C0B8
:100FA000895CF8018083211531054105510521F047
:100FB000C22EE32FCA01E4CFB801C7010E94770710
:100FC000A1960FB6F894DEBF0FBECDBFDF91CF91D3
:100FD0001F910F91FF90EF90DF90CF90BF90AF9057
:100FE0009F908F900895CF92DF92EF92FF920F9390
:100FF0001F93CF93DF93EC016A017B01211531052B
:1010000079F4E881F9810190F081E02D642FDF917E
:10101000CF911F910F91FF90EF90DF90CF900994A7
:101020002A303105E9F477FF1AC06DE20E948F077C
:101030008C0144275527BA014C195D096E097F09B7
:101040002AE0CE010E949A07800F911FDF91CF9175
:101050001F910F91FF90EF90DF90CF9008952AE0BD
:10106000B701A601CE01DF91CF911F910F91FF90A3
:10107000EF90DF90CF900C949A079A01AB0166270E
:1010800057FD6095762F0C94F3070F931F93CF9322
:10109000DF93EC019A01AB01662757FD6095762F2F
:1010A0000E94F3078C01CE010E949607800F911FCA
:1010B000DF91CF911F910F9108952115310541F4D2
:1010C000DC01ED91FC910190F081E02D642F0994F9
:1010D0000C949A0708950E94F8060E946A0885E217
:1010E00094E00E94040C0E946904C0E0D0E00E94D9
:1010F000AB042097E1F30E940000F9CF409129044E
:1011000050912A0420912704309128044217530754
:10111000B4F49091E8009570E1F39091E80092FDAD
:1011200019C08093F1008091290490912A040196BE
:101130008F739927892B19F48EEF8093E8008091A3
:10114000290490912A04019690932A0480932904FB
:1011500081E0089580E00895CF92DF92FF920F938F
:101160001F93CF93DF931F92CDB7DEB7082F162FB3
:10117000862F880F8E5F99830E947E0883E00E94ED
:101180007E08F02EC02E9981D92E8C2D8F198117B3
:1011900078F4F60184910E947E08082F80E00E9476
:1011A0007E088023FFEFCF1ADF0A8111EECF01C046
:1011B00081E00F90DF91CF911F910F91FF90DF9011
:1011C000CF900895615030F02091F100FC01208310
:1011D0000196F8CF289884E680932C0408952FB7C1
:1011E000FC012083F89467706093E9000895CF9321
:1011F000DF931F92CDB7DEB7682FCE0101960E9414
:10120000EF088091F20099819FBF0F90DF91CF91FD
:101210000895FF920F931F93CF93DF9300D0CDB724
:10122000DEB7F62E8A0190912B04992311F057FF17
:1012300003C08FEF9FEF2BC0682FCE0101967A83FA
:101240000E94EF088091F20090E0A8017A81801757
:1012500091070CF4AC01EF2DF72FF40E84E6FE1687
:1012600039F0289880932C049091F1009193F7CF56
:101270004115510521F08091F200882321F08981E8
:101280008FBFCA0104C08BE68093E800F8CF0F90AF
:101290000F90DF91CF911F910F91FF900895CF9301
:1012A000DF931F92CDB7DEB741E050E0BE016F5F24
:1012B0007F4F0E940909019719F4898190E002C0CB
:1012C0008FEF9FEF0F90DF91CF910895CF93DF9332
:1012D0001F92CDB7DEB7682FCE0101960E94EF08AE
:1012E0009091E800892F807295FF04C09091F200E0
:1012F00080E4891B99819FBF0F90DF91CF91089562
:101300006F927F928F929F92AF92BF92CF92DF9215
:10131000EF92FF920F931F93CF93DF931F92CDB75E
:10132000DEB7782E7B01C42EB52E80912B04882346
:1013300069F0042F152F8AEFD82E872D8072982EF2
:101340009AE3A92E872D8074882E11C08FEF9FEF0E
:1013500057C0872D0E946609682E81110CC0DA944F
:10136000A9F361E070E080E090E00E94D0060115F2
:10137000110579F73BC0282F30E0021713070CF452
:10138000602E672DCE0101960E94EF088091E80043
:1013900085FF29C0262D30E0021B130B992039F060
:1013A0006A948FEF6816B1F01092F100F9CFF7014F
:1013B000862D77FE07C0815058F094919093F100EC
:1013C0003196F9CF815020F091919093F100FACFAE
:1013D000E20EF31E8091E80085FF0FC00115110594
:1013E00011F481100AC089818FBFC1CF5D9884E656
:1013F00080932D048C2D9B2D03C0A092E800F3CF89
:101400000F90DF91CF911F910F91FF90EF90DF90A0
:10141000CF90BF90AF909F908F907F906F900895E6
:101420001092E90010922A04109229049093280443
:10143000809327040895CF92DF92FF920F931F931A
:10144000CF93DF9300D0CDB7DEB7F82E8A016B01C2
:1014500001151105B1F0F601F7FE02C0849101C03B
:10146000808149835A830E947E0801501109FFEF51
:10147000CF1ADF0A49815A818111EACF8FEF9FEF9E
:1014800001C0CA010F900F90DF91CF911F910F9172
:10149000FF90DF90CF9008951F93CF93DF931F921B
:1014A000CDB7DEB7162F2091E80022FFFCCF612FC9
:1014B00079830E94E2088BEF8093E800812F798185
:1014C000972F0F90DF91CF911F910895CF93DF93C6
:1014D0001F92CDB7DEB71982CE0101960E94C20DD0
:1014E000CE0101960E94400C898190E00F90DF911F
:1014F000CF9108951F920F920FB60F921124EF9281
:10150000FF920F931F932F933F934F935F936F938C
:101510007F938F939F93AF93BF93EF93FF93CF935B
:10152000DF93CDB7DEB76297DEBFCDBF1092E90083
:101530008091E80083FFEBC068E0CE010A960E942C
:10154000E20882EF8093E8009A8597FF05C08091BA
:10155000E80080FFFCCF03C08EEF8093E800892F66
:10156000807609F0B9C08B85811105C01092F10019
:101570001092F100C5C0282F2D7F213009F4C0C082
:10158000853049F48091E80080FFFCCF8C8580682D
:101590008093E300B5C0863009F076C02D85E888D9
:1015A000F988223071F580E090E02A8B0E94100AC1
:1015B0000E94660A99E08E010F5F1F4FF801392FD4
:1015C00011923A95E9F799832A892A8391E09E83BB
:1015D00090E898879AEF99872091290430912A04FE
:1015E000275F3F4F3C832B838D83C7010E94100AE6
:1015F00049E050E0B80180E00E941B0A0E94660AA0
:101600007FC0C7012A8B0E94100A2A89223241F426
:1016100082E290E00E944B0C892B09F071C074C0EB
:10162000213069F488899989089711F42093260458
:1016300080912604811118C061EE70E01AC0233039
:1016400009F062C08C85882391F0823021F46CE02F
:101650008CEF90E006C0813009F056C068E083EF5F
:1016600090E00E94AC084AC06FEC70E002C069E0F4
:1016700071E06115710509F447C0FB01449150E028
:1016800080E80E941B0A3CC0873009F43DC08830C6
:1016900021F481E08093F10033C0893089F59370A3
:1016A00099F5EBECF0E081E021E096E38093E9002E
:1016B0002093EB0034913093EC009093ED008F5F1A
:1016C0003196853099F78EE78093EA001092EA0010
:1016D0008C8580932B0414C0888999890E94100AF4
:1016E0008E85811105C0CE010A960E94CD0D06C0DF
:1016F000823051F4CE010A960E94730C882321F0A7
:101700008EEF8093E80003C081E28093EB00629645
:101710000FB6F894DEBF0FBECDBFDF91CF91FF9122
:10172000EF91BF91AF919F918F917F916F915F9159
:101730004F913F912F911F910F91FF90EF900F903C
:101740000FBE0F901F9018958093E9008091F200D2
:10175000882319F08AE38093E80008951F920F927E
:101760000FB60F9211242F933F934F935F936F9374
:101770007F938F939F93AF93BF93EF93FF9380914A
:10178000E1001092E10083FF0FC01092E90091E0A8
:101790009093EB001092EC0092E39093ED00109286
:1017A0002B0498E09093F00082FF1DC083E00E941C
:1017B000A40B80912D04882339F080912D04815051
:1017C00080932D04882369F080912C04882359F09C
:1017D00080912C04815080932C04811104C0289A9C
:1017E00002C05D9AF1CFFF91EF91BF91AF919F91B0
:1017F0008F917F916F915F914F913F912F910F90BA
:101800000FBE0F901F90189510922B0481E08093CB
:10181000D70080EA8093D80082E089BD09B400FE39
:10182000FDCF61E070E080E090E00E94D00680E9AA
:101830008093D8008CE08093E2001092E000559AEB
:10184000209A0895FF920F931F93CF93DF93EC019B
:10185000F62EE881F9810480F581E02D09958C014F
:10186000E881F9810680F781E02D6F2DCE01099581
:10187000C8019927DF91CF911F910F91FF90089593
:10188000FC0120812F5F208349E150E06DE871E089
:1018900080E80C941B0A45E650E066EA71E080E8B7
:1018A0000C941B0AEF92FF920F931F93CF93DF9339
:1018B0001F92CDB7DEB789838B017A0141E050E0FA
:1018C000BE016F5F7F4F84E00E948009A701B801CD
:1018D00084E40E9480090F90DF91CF911F910F91B6
:1018E000FF90EF900895FC0191818081813A31F45D
:1018F00081E0913091F0933089F411C0813271F41C
:101900009B3021F482818093090105C09A3031F423
:1019100082818093080181E00895089580E0089510
:1019200048E050E082E00C94520CCF93DF93DC014E
:10193000683818F0E8E7E60F25C0E62FF0E067FF0B
:1019400011C0E058F10981E090E001C0880FEA95EC
:10195000EAF714969C911497982B14969C931497DD
:10196000E0E010C0E35FFE4FE491EE2309F440C0D5
:10197000E7FF08C014968C911497826014968C939C
:101980001497EF7716968C9116978E1741F117964C
:101990008C9117978E1719F118968C9118978E17AE
:1019A000F1F019968C9119978E17C9F01A968C91AF
:1019B0001A978E17A1F01B968C911B978E1779F0B2
:1019C00080E090E0ED01C80FD91F2E81211102C0E7
:1019D000EE8305C0019686309105A1F709C0BD01CF
:1019E0006C5F7F4FCD010E94900C81E090E008C0B9
:1019F00081E090E013969C938E93129780E090E0A4
:101A0000DF91CF910895683818F0E8E7E60F25C018
:101A1000E62FF0E067FF12C0E058F10921E030E066
:101A200001C0220FEA95EAF72095DC0114963C915B
:101A30001497322314963C93E0E00FC0E35FFE4F0F
:101A4000E491EE2329F1E7FF08C0DC0114962C9104
:101A500014972D7F14962C93EF7720E030E0EE233F
:101A600051F0DC01A20FB31F16964C9116974E133E
:101A700002C016961C922F5F3F4F2630310579F732
:101A8000BC016C5F7F4F0E94900C81E090E0089554
:101A900080E090E00895FC0116821782108611867E
:101AA000128613861482BC016C5F7F4F0C94900CDD
:101AB00010923A0410923104109230048AE491E0BA
:101AC00090932F0480932E040895CF93DF931F9259
:101AD000CDB7DEB76983DC01ED91FC910280F38123
:101AE000E02D41E050E0BE016F5F7F4F09950F9000
:101AF000DF91CF910895CF93DF93EC018C859D8585
:101B000097FF05C082E00E944F099D878C878C85D6
:101B10009D85DF91CF91089583E00C94A40BFC0187
:101B20008485958597FD06C082E00E94F70890E0C5
:101B30000196089582E00E94F70890E00895FC0164
:101B40008485958597FD05C02FEF3FEF3587248766
:101B5000089582E00C944F09CF93DF93EC018091BC
:101B60001101882331F083E00E94800918161906BC
:101B700034F081E090E09B838A8380E090E0DF9105
:101B8000CF910895FC0120812E5F208342E450E034
:101B90006BE072E080E80C941B0AFC01818190816B
:101BA000913A59F4813209F03CC047E050E06AE0D4
:101BB00071E080E00E941B0A43C0913291F58032AF
:101BC00039F467E070E08AE091E00E944C0A06C0B8
:101BD000823209F035C082818093110180910A011F
:101BE00090910B01A0910C01B0910D01803B9440AC
:101BF000A105B105C1F48091110180FD14C087E7F2
:101C000097E790930108809300082BE088E190E02B
:101C10000FB6F894A895809360000FBE20936000E3
:101C20000FC080E0089588E10FB6F89480936000BB
:101C3000109260000FBEA895109201081092000843
:101C400081E0089510923E0410923D0488EE93E0E6
:101C5000A0E0B0E080933F0490934004A09341043F
:101C6000B093420488E591E090933C0480933B0458
:101C70008FEF9FEF909348048093470408958091DD
:101C8000BB0490E02091BC04821B9109089520912F
:101C9000BC048091BB04281750F4E22FF0E0E35419
:101CA000FB4F808190E02F5F2093BC0408958FEF5D
:101CB0009FEF0895E091BC048091BB04E81730F4D5
:101CC000F0E0E354FB4F808190E008958FEF9FEFA9
:101CD00008950895CF92DF92EF92FF920F931F9392
:101CE000CF93DF937C01CB018A01209197042223BB
:101CF00089F0EB016B01C40ED51ECC15DD0569F032
:101D00006991D701ED91FC910190F081E02DC7011F
:101D10000995F3CF642F0E94C90FC801DF91CF91BD
:101D20001F910F91FF90EF90DF90CF900895CF9388
:101D3000DF931F92CDB7DEB76983209197042223EA
:101D4000D1F020919804203240F021E030E0FC01F5
:101D50003383228380E090E015C080919904E82FBE
:101D6000F0E0E656FB4F998190838F5F8093990452
:101D70008093980405C061E0CE0101960E94C90FCE
:101D800081E090E00F90DF91CF910895FC011382E4
:101D9000128248EE53E060E070E04483558366832E
:101DA000778388E691E09183808308951092BC0444
:101DB0001092BB0410929904109298040C94140F82
:101DC000862F413208F040E26DEB74E00E94320F42
:101DD0001092BC048093BB04089521E00C94E00EA3
:101DE00081E0809397046093BA0410929904109252
:101DF000980408950F93062F21E0409198046AE912
:101E000074E08091BA040E94760F109299041092A7
:101E10009804109297040F91089561E00C94FA0EC3
:101E20008BE894E00C94C60E10924A0581E08093F2
:101E300048051092470561E082E00E94302161E090
:101E400083E00E943021E9EBF0E080818E7F808387
:101E500080818D7F808382E08093B80085E48093C9
:101E6000BC000895413208F03FC090914A0591119D
:101E7000FCCF91E090934A05209348052FEF2093E3
:101E8000DD0410922205240F20932105909349052B
:101E900090914905880F892B8093490580914705CA
:101EA000813041F410924705809149058093BB0031
:101EB00085EC01C085EE8093BC0080914A0581309D
:101EC000E1F380912205841710F44091220523E26A
:101ED00035E0FB01D9018A2F821B841718F48D91FC
:101EE0008193F9CF842F089580E008950F934132B4
:101EF00008F046C090914A059111FCCF92E0909372
:101F00004A05009348059FEF9093DD041092220547
:101F100040932105FB0163E275E0DB019A2F961BDC
:101F2000941718F491919D93F9CF109249059091CF
:101F30004905880F892B8093490580914705813099
:101F400041F410924705809149058093BB0085ECD0
:101F500001C085EE8093BC00222321F080914A05C8
:101F60008230E1F38091DD048F3F61F08091DD04E8
:101F7000803251F08091DD04803341F483E007C06A
:101F800081E005C080E003C082E001C084E00F91E1
:101F90000895613298F420914A05243089F46093C1
:101FA000FF04FC0181E095E0DC012A2F281B2617A5
:101FB00018F421912D93F9CF80E0089581E00895E0
:101FC00082E0089585ED8093BC008091BC0084FD83
:101FD000FCCF10924A05089585EC8093BC001092C6
:101FE0004A0508951F920F920FB60F9211242F9356
:101FF0003F934F935F936F937F938F939F93AF9391
:10200000BF93EF93FF938091B900887F803609F4E6
:102010009CC068F5883209F45BC090F4803109F403
:1020200054C038F4882309F4F5C0883009F44DC051
:10203000F5C0883109F44CC0803209F45DC0EEC0AF
:10204000803409F468C048F4803309F455C08833FB
:1020500009F0E4C08093DD04A8C0803509F44FC0C6
:10206000883509F45DC0883409F0D8C0D5C08839F6
:1020700009F4C6C0A8F4883709F467C038F4883674
:1020800009F463C0803709F460C0C8C0883809F417
:10209000B7C0803909F45FC0803809F0BFC05BC0A9
:1020A000803B09F485C038F4803A09F466C0883A68
:1020B00009F47EC0B3C0803C09F4A6C0883C09F492
:1020C000A3C0883B09F489C0A9C08091490510C00C
:1020D0009091220580912105981770F5E0912205D5
:1020E00081E08E0F80932205F0E0ED5DFA4F808154
:1020F0008093BB0085EC85C08093DD048DC0E091AA
:10210000220581E08E0F809322058091BB00F0E0D4
:10211000ED5DFA4F808390912205809121056DC07D
:10212000E091220581E08E0F809322058091BB0013
:10213000F0E0ED5DFA4F80838091480581116CC01D
:1021400081E08093470584EA60C083E080934A057C
:102150001092DE04CFCF8091DE04803208F050C0B0
:10216000E091DE0481E08E0F8093DE048091BB005D
:10217000F0E0E152FB4F8083BDCF8091DE048032DE
:1021800030F4E091DE04F0E0E152FB4F10820E9457
:10219000E20F6091DE0470E0E0914305F0914405A8
:1021A0008FED94E009951092DE040E94EC0F36C08A
:1021B00084E080934A05109200051092FF04E0919C
:1021C0004505F091460509958091FF04811105C0F0
:1021D00081E08093FF0410920105E091000581E009
:1021E0008E0F80930005F0E0EF5FFA4F80818093BF
:1021F000BB00909100058091FF04981708F47ACFF6
:1022000085E88093BC000AC085EC8093BC001092E6
:102210004A0504C01092DD040E94E20FFF91EF9185
:10222000BF91AF919F918F917F916F915F914F91EE
:102230003F912F910F900FBE0F901F90189590E037
:1022400022E0281740F0892F806A86958CBD9095F2
:1022500091709DBD08959730B0F7220F953010F41E
:1022600031E001C032E0930FECCF8FEF8EBD0DB4A3
:1022700007FEFDCF8EB508958EBD0DB407FEFDCFD0
:10228000089561E0FC0182810E9430218FEF0C945F
:102290003C11CF93DF93EC018C810E941F1160E011
:1022A0008A81DF91CF910C943021CF92DF92EF920F
:1022B000FF920F931F93CF93DF93EC018B017A0171
:1022C0000E94A1066B010E9435118D838F3F49F456
:1022D0000E94A1066C197D096D327140A0F381E165
:1022E00003C08E3F39F08FE08B83CE010E944111F5
:1022F00080E028C0E114F104E1F081E0E81AF1087F
:102300008FEF8EBDF8012FEFCF01801B910B8E1543
:102310009F0538F40DB407FEFDCF8EB52EBD819319
:10232000F3CF0DB407FEFDCF8EB5F801EE0DFF1D06
:1023300080831D820E9435110E943511CE010E94BA
:10234000411181E0DF91CF911F910F91FF90EF90AC
:10235000DF90CF9008950F931F93CF93DF93EB01FE
:102360000E94A1068B010E9435118F3F49F00E9407
:10237000A106601B710B6C177D07A8F380E001C0FC
:1023800081E0DF91CF911F910F910895FF920F93FC
:102390001F93CF93DF9300D000D0CDB7DEB78C0171
:1023A000F62E29833A834B835C830E94491168E5AA
:1023B00072E0C8010E94AB118F2D80640E943C1115
:1023C0008C810E943C118B810E943C118A810E9469
:1023D0003C1189810E943C11F11002C085E901C0C5
:1023E00087E80E943C118CE0F81202C00E9435116F
:1023F000F12C0E943511F801858387FF05C0FFEF9E
:10240000FF1611F0F394F5CF0F900F900F900F90EF
:10241000DF91CF911F910F91FF900895BF92CF92BE
:10242000DF92EF92FF920F931F93CF93DF93EC0114
:10243000B22E1E821B82798368834A830E94A10682
:102440008B0161E08A810E94F72061E08A810E940D
:10245000302161E081E10E94302161E081E10E9450
:10246000F72061E080E10E94F72061E08FE00E94A8
:10247000F72080E48C830E941F112AE0F22E8FEF58
:102480000E943C11FA94D9F720E030E0A90160E005
:10249000CE010E94C611813049F00E94A106601B46
:1024A000710B613D774080F381E051C02AEA31E051
:1024B00040E050E068E0CE010E94C611853011F482
:1024C00081E00AC094E0F92E0E9435118D83FA94C0
:1024D000D9F78A3A59F482E08E838E81823079F47A
:1024E000C12CD12CE12C80E4F82E0CC00E94A10656
:1024F000601B710B613D7740C8F282E028C0C12C9F
:10250000D12C760120E030E0A90167E3CE010E94E2
:10251000C611A701960169E2CE010E94C611882367
:1025200049F00E94A106601B710B613D774050F39A
:102530008AE00DC08E818230E9F420E030E0A9010C
:102540006AE3CE010E94C611882339F088E08B83AC
:10255000CE010E94411180E012C00E943511807CA2
:10256000803C11F483E08E830E9435110E94351166
:102570000E943511CE010E944111BC8281E0DF91A1
:10258000CF911F910F91FF90EF90DF90CF90BF9070
:1025900008950F931F93CF93DF93EC0189018E81F0
:1025A000833039F039E0440F551F661F771F3A9585
:1025B000D1F79A01AB0161E1CE010E94C6118111F0
:1025C0000AC040E052E0B801CE01DF91CF911F91E7
:1025D0000F910C94551184E08B83CE010E94411120
:1025E00080E0DF91CF911F910F9108950F931F937A
:1025F000CF93DF93EC01862F8A010E943C11F801F2
:1026000080818EBD818122E030E00DB407FEFDCFD8
:102610008EBD2115F2E03F0739F0F801E20FF31FFC
:1026200080812F5F3F4FF1CF0DB407FEFDCF8FEFBD
:102630000E943C118FEF0E943C110E9435118D8346
:102640008F71853039F083E18B83CE010E94411177
:1026500080E001C081E0DF91CF911F910F9108953B
:102660000F931F93CF93DF93EC0189018E81833009
:1026700039F089E0440F551F661F771F8A95D1F7FF
:102680009A01AB0168E1CE010E94C611882319F0BE
:1026900086E08B830CC0A8016EEFCE010E94F6127B
:1026A000182F882321F0CE010E94411104C0CE01D1
:1026B0000E94411110E0812FDF91CF911F910F9166
:1026C0000895BF92CF92DF92EF92FF920F931F93E4
:1026D000CF93DF93EC01888180FF39C089819A8193
:1026E0008E01095F1F4FDC01ED91FC914B815C81F4
:1026F0006D817E810280F381E02D98010995B82ECD
:10270000811102C0B12C25C0888181FD04C088815F
:102710008E7F88831EC0A981BA81ED91FC911197AB
:102720001C964D915D916D917C911F97CB80DC80C3
:10273000ED80FE804C0D5D1D6E1D7F1D0280F381BE
:10274000E02D9801CD0109958111E1CFDBCFBB24AC
:10275000B3948B2DDF91CF911F910F91FF90EF904C
:10276000DF90CF90BF900895CF92DF92EF92FF92CB
:102770001F93CF93DF93EC016A017B01122F4B81F2
:102780005C816D817E814C155D056E057F0501F1D3
:102790000E946113811103C080E090E01FC012FF0E
:1027A00006C01882CB82DC82ED82FE8211C0898154
:1027B0009A81DC01ED91FC910190F081E02D9E0168
:1027C000295F3F4FB701A60109958111EACFE4CFF8
:1027D00013708881812B8883CE010796DF91CF917A
:1027E0001F91FF90EF90DF90CF90089542505109D4
:1027F00061097109FC01048004C0440F551F661F64
:10280000771F0A94D2F780899189A289B389480FEA
:10281000591F6A1F7B1FCB01BA010895CF92DF9227
:10282000EF92FF920F931F93CF93DF93EC016A0116
:102830007B0189018D81803251F5E7E076956795BE
:1028400057954795EA95D1F78C899D89AE89BF89BF
:10285000480F591F6A1F7B1F22E0CE0180960E94FD
:10286000B413009711F48FEF40C0E894C7F8DD244B
:10287000EE24FF24F601EE0FFF1FEE0FFF1FE80FFF
:10288000F91F40815181628173817F701DC0803149
:1028900051F74C895D896E897F894D0D511D611DF0
:1028A000711D22E0CE0180960E94B4130097D9F2E8
:1028B000DD24EE24FF24F601EE0FFF1FE80FF91FC1
:1028C0004081518160E070E0888D998DAA8DBB8D2B
:1028D00084179507A607B70738F0F801408351839E
:1028E0006283738381E001C080E0DF91CF911F910B
:1028F0000F91FF90EF90DF90CF9008958F929F926D
:10290000AF92BF92CF92DF92EF92FF920F931F93FD
:102910006A017B0148015901FC012581203231F512
:1029200017E076956795579547951A95D1F70489DD
:10293000158926893789400F511F621F731F23E0B5
:1029400080960E94B413009799F0E894C7F8DD24AC
:10295000EE24FF24F601EE0FFF1FEE0FFF1FE80F1E
:10296000F91F80829182A282B3821DC0203111F0B2
:1029700080E01AC0FC0144895589668977894D0D2C
:10298000511D611D711D23E080960E94B4130097B4
:1029900079F3DD24EE24FF24F601EE0FFF1FE80F8C
:1029A000F91F9182808281E01F910F91FF90EF903B
:1029B000DF90CF90BF90AF909F908F9008953F92FF
:1029C0004F925F926F927F928F929F92AF92BF923F
:1029D000CF92DF92EF92FF920F931F93CF93DF93EB
:1029E000CDB7DEB728970FB6F894DEBF0FBECDBFC8
:1029F0009E838D832A013B0138872F834115510522
:102A00006105710531F4FC0180849184A284B38452
:102A100002C04A015B0175016401FFEFCF1ADF0AB2
:102A2000EF0AFF0AED81FE81808D918DA28DB38D1D
:102A30008C159D05AE05BF0528F402E0C02ED12CF3
:102A4000E12CF12C9E012F5F3F4FB701A6018D8134
:102A50009E810E940E1487FD1DC0882341F089814C
:102A60009A81AB81BC81892B8A2B8B2B31F0C814C6
:102A7000D904EA04FB0489F60DC00FEF1FEF2FEF16
:102A80003FE0B701A6018D819E810E947E14382E01
:102A9000811102C0312C1CC0411451046104710425
:102AA00059F097018601B301A2018D819E810E9498
:102AB0007E14811107C0EECFED81FE81C086D186E4
:102AC000E286F386EF81F885C082D182E282F382CA
:102AD000832D28960FB6F894DEBF0FBECDBFDF91D1
:102AE000CF911F910F91FF90EF90DF90CF90BF900B
:102AF000AF909F908F907F906F905F904F903F909E
:102B000008959F92AF92BF92CF92DF92EF92FF9281
:102B10000F931F93CF93DF9300D000D0CDB7DEB7D4
:102B20005C016A017B019E012F5F3F4FB701A60147
:102B3000C5010E940E14982E87FF02C080E01EC0BF
:102B400000E010E09801B701A601C5010E947E14C3
:102B50008823A1F3F5014085518562857385C416EC
:102B6000D506E606F70620F4C086D186E286F3860F
:102B7000C980DA80EB80FC809110D5CF0F900F9048
:102B80000F900F90DF91CF911F910F91FF90EF90D9
:102B9000DF90CF90BF90AF909F900895CF92DF923B
:102BA000EF92FF920F931F93CF93DF93EC01162FB9
:102BB0001D8281E090E0A0E0B0E088879987AA8735
:102BC000BB87DAA3C9A318A28FEF9FEFDC018BA309
:102BD0009CA3ADA3BEA3662321F1653008F0BFC05E
:102BE00020E040E050E0BA01CE0180960E94B4138C
:102BF000009709F4B4C0FC0100E1109FE00DF11D45
:102C00001124E255FE4F80818F7709F0A8C0C0845F
:102C1000D184E284F384C114D104E104F10421F4E9
:102C20009EC0C12CD12C760120E0B701A601CE01B7
:102C300080960E94B413FC01009709F490C083852C
:102C400094858115924009F08AC08089823009F00C
:102C500086C086859785892B09F481C035853A839E
:102C60008FEF830F8B831C8289E090E021E0321785
:102C700041F0019709F473C0220F4C814F5F4C83E0
:102C8000F6CF468957894115510519F060E070E08B
:102C900004C044A155A166A177A14C875D876E87CA
:102CA0007F878685978597018601080F191F211D4B
:102CB000311D0C8B1D8B2E8B3F8B818992899F83BD
:102CC0008E83440F551F661F771F400F511F621FD1
:102CD000731F4C8F5D8F6E8F7F8FB5E0880F991FAC
:102CE000BA95E1F781509E4F892F99278695480F15
:102CF000591F611D711D488B598B6A8B7B8B838992
:102D00009489009719F0A0E0B0E004C080A191A1DF
:102D1000A2A1B3A197018601041B150B260B370B4B
:102D2000B901A801480F591F6A1F7B1F0C8004C0FE
:102D300076956795579547950A94D2F7DB01CA01B6
:102D40000196A11DB11D888F998FAA8FBB8F453F1A
:102D50001FE051076105710520F48CE08D8380E050
:102D600012C0453F5F4F6105710510F480E109C055
:102D700084A595A5A6A5B7A58C8F9D8FAE8FBF8F77
:102D800080E28D8381E0DF91CF911F910F91FF90C1
:102D9000EF90DF90CF900895FC018281806882835C
:102DA0009F01245F3F4F44855585668577858681E1
:102DB00097810C94DF149F92AF92BF92CF92DF92D3
:102DC000EF92FF920F931F93CF93DF93EC018881D3
:102DD00085FF02C0912C5EC088899989AA89BB8928
:102DE00081159E4FAF41B105A8F7CE010E94CC16C8
:102DF000982E882379F34C855D856E857F858E813D
:102E00009F810E94F6136B017C018E819F8125E0DA
:102E1000B701A60180960E94B4135C010097D1F21D
:102E200080E092E0F5019C01119221503040E1F7E1
:102E300011E0AE81BF8112960C9112971017A0F489
:102E4000ED91FC9111970280F381E02D9501B7017E
:102E5000A601410F511D611D711DCD0109958823EA
:102E600009F4B8CF1F5FE5CF10E020E030E089E043
:102E7000000F111F221F331F8A95D1F748895989E6
:102E80006A897B89400F511F621F731F488B598BC2
:102E90006A8B7B8B892DDF91CF911F910F91FF90D2
:102EA000EF90DF90CF90BF90AF909F900895CF9319
:102EB000DF93EC01262F4C895D896E897F898E8195
:102EC0009F8180960E94B4139C01009761F08C81D1
:102ED0009D818F70992745E0880F991F4A95E1F7EA
:102EE000820F931F02C080E090E0DF91CF910895A0
:102EF000FC018081811114C080E2DF01982F1D92B6
:102F00009A95E9F777836683DB0115969C9190315A
:102F100019F0903229F480E4808381E0828308955F
:102F200080E008952F923F924F925F926F927F922E
:102F30008F929F92AF92BF92CF92DF92EF92FF92C9
:102F40000F931F93CF93DF9300D000D0CDB7DEB7A0
:102F50009C838B834B017A01DC018C91882309F1DE
:102F600012969C9190FF1DC027C0D380D822A11437
:102F7000B10409F09CC0D1109AC0452B462B472BB9
:102F800009F47EC0AB81BC811C964D915D916D9121
:102F90007C911F9729813A81CF010E940E1487FFEF
:102FA0007EC0AB81BC8111968C9111978260119685
:102FB0008C938FEF9FEFE3C083FF17C0EB81FC8101
:102FC000808D918DA28DB38D4089518962897389DD
:102FD000841B950BA60BB70BA70160E070E04817A8
:102FE00059076A077B07D0F018C085FF17C0AB816F
:102FF000BC811696ED91FC9117978681978155E0DB
:10300000880F991F5A95E1F750962D913C91519751
:10301000821B930B8E159F0508F47C018701EB81C1
:10302000FC813C96FA83E983612C42E0742E011501
:10303000110509F468C0AB81BC8150964D915D913A
:103040006D917C9153975A01B1E0BB22EB81FC81D9
:1030500020810680F781E02DDB01CA0139E0B695B9
:10306000A795979587953A95D1F725FF7ECF448D03
:10307000558D668D778D480F591F6A1F7B1F2BC09A
:1030800026FD02C0EB81FC81848D958DA68DB78DC8
:10309000EB81FC8184879587A687B78708C081115B
:1030A00006C0EB81FC818081807769F57ACFAB81A6
:1030B000BC811C964D915D916D917C911F971696E8
:1030C0008D919C9117970E94F613AB01BC014D0D99
:1030D000511D611D711DEB81FC8186819781A114B9
:1030E000B104B1F50115F2E01F0790F1DC019396F0
:1030F0002D903D904D905C90969742155305640538
:10310000750529F425C0C701801B910B38C0DC016F
:10311000ED91FC910190F081E02D940109958823B7
:1031200009F43FCFC12CF2E0DF2E8C0C9D1CEB810B
:10313000FC8180899189A289B3898C0D9D1DA11D77
:10314000B11D808B918BA28BB38B0C191D096FCF96
:1031500093012A193B0968012017310708F4690116
:1031600020E080960E94B413009709F41ACFBC01A6
:103170006A0D7B1DA601C4010E947621D6CF0F9057
:103180000F900F900F90DF91CF911F910F91FF90B3
:10319000EF90DF90CF90BF90AF909F908F907F90F7
:1031A0006F905F904F903F902F9008958F929F92D5
:1031B000AF92BF92CF92DF92EF92FF920F931F9345
:1031C000CF93DF931F92CDB7DEB78C01FC018088CF
:1031D0009188A288B388C484D584E684F78441E0CA
:1031E00050E0BE016F5F7F4F0E949217019719F464
:1031F000898190E002C08FEF9FEF8F3FFFEF9F0725
:1032000049F0F801808A918AA28AB38AC486D58659
:10321000E686F7860F90DF91CF911F910F91FF9077
:10322000EF90DF90CF90BF90AF909F908F900895D8
:10323000FF920F931F93CF93DF931F92CDB7DEB70B
:103240008C01262FFC014089518962897389DB0139
:10325000CA01E5E0B695A79597958795EA95D1F7C8
:10326000F82FFF70FF2E11F0211117C041E050E040
:10327000BE016F5F7F4FC8010E949217813019F025
:1032800080E090E01CC0F80140895189628973890F
:10329000415E5F4F6F4F7F4F05C0405E5F4F6F4F86
:1032A0007F4FF801408B518B628B738BF8018681C5
:1032B00097818796F0E2FF9E800D911D11240F905B
:1032C000DF91CF911F910F91FF9008954F925F92E0
:1032D0006F927F928F929F92AF92BF92CF92DF9226
:1032E000EF92FF920F931F93CF93DF93EC016A014C
:1032F0007B014C845D846E847F84A881AA2309F4B9
:103300008CC0411551056105710529F41C861D8687
:103310001E861F867CC0A3FF0BC0488D598D6A8D09
:103320007B8D4C155D056E057F0508F476C014C0D5
:10333000A5FF12C0EE81FF8186819781F5E0880F9D
:10334000991FFA95E1F7A0E0B0E084179507A6076A
:10335000B70708F462C05BC0088919892A893B89CC
:10336000EE81FF81848190E00996B901A801415066
:10337000510961097109082E04C076956795579522
:1033800047950A94D2F746015701B1E08B1A91088C
:10339000A108B10804C0B694A794979487948A951D
:1033A000D2F784169506A606B70620F0012B022B4D
:1033B000032B81F4A6FF05C0848D958DA68DB78D56
:1033C00004C08C8D9D8DAE8DBF8D8C879D87AE8703
:1033D000BF8704C0841A950AA60AB70A8E01045F43
:1033E0001F4F81149104A104B10489F04C855D85BF
:1033F0006E857F8598018E819F810E940E1491E0D9
:10340000891A9108A108B10818165CF306C0C88A89
:10341000D98AEA8AFB8A81E005C04C865D866E8681
:103420007F8680E0DF91CF911F910F91FF90EF9009
:10343000DF90CF90BF90AF909F908F907F906F90D4
:103440005F904F9008958F929F92AF92BF92FF929C
:103450000F931F93CF93DF93EC01F22E80E2DE01F6
:103460001D928A95E9F7FB01868197819F838E8360
:103470005D834C83848C958CA68CB78C88869986CA
:10348000AA86BB86FC01B7964F705527B5E0440F5E
:10349000551FBA95E1F7E40FF51F338533FF03C0DD
:1034A000188280E054C0377138832385287111F465
:1034B000386038830B832F2D227319F028812171F6
:1034C00079F72F2D2F702A83DC0193964D915D9112
:1034D0006D917C9196974C8B5D8B6E8B7F8B448925
:1034E000558960E070E0BA0155274427028D138D9D
:1034F00020E030E0402B512B622B732BF4FE0AC0EE
:103500004115510561057105E9F00E948115811190
:1035100019C0C6CF4C8F5D8F6E8F7F8F448D558DB8
:10352000668D778D488F598F6A8F7B8FF5FE0EC021
:10353000488D598D6A8D7B8DCE010E94661981114F
:1035400005C0AECF8A8180688A83F0CF81E0DF91A9
:10355000CF911F910F91FF90BF90AF909F908F9050
:1035600008950F931F93CF93DF93EC0188818823F5
:1035700009F443C08A8187FF38C061E0CE010E9410
:1035800057178C01009729F489818160898380E035
:1035900035C0FC018081853EB9F3888183FF08C076
:1035A000488D598D6A8D7B8D448F558F668F778FAF
:1035B0004C8D5D8D6E8D7F8DF801538F428F758B95
:1035C000648BE0914B05F0914C05309759F0B801B0
:1035D0006A5E7F4FC80148960995F801808D918DEC
:1035E000938B828B8A818F778A838E819F8180964D
:1035F0000E946113882341F201C081E0DF91CF91E5
:103600001F910F910895CF93DF93EC010E94B11A9F
:103610001882DF91CF910895CF92DF92EF92FF92BF
:103620000F931F93CF93DF93CDB7DEB7E3970FB61A
:10363000F894DEBF0FBECDBF8C017B015BAB4AAB04
:10364000D22E19821A82FC018081882311F080E039
:1036500059C0FB0180818077D1F3EAA9FBA9808161
:103660008F32D9F4EAA9FBA980818F3221F43196F7
:10367000FBABEAABF7CFF70166817781811104C01C
:10368000C8010E9478173EC0CE0101960E947817AB
:103690008823E9F2CE0101967C0150E2C52EAE01ED
:1036A0004E5C5F4FBE016F5D7F4F8AA99BA90E9450
:1036B000031D882361F2EAA9FBA980818823D1F048
:1036C00021E0AE014F5D5F4FB701C8010E94841E2B
:1036D000882309F4BCCFF801DE0111968C2D0190EE
:1036E0000D928A95E1F7C8010E94031BFE013196F5
:1036F0007F01D5CF2D2DAE014F5D5F4FB701C801C2
:103700000E94841EE3960FB6F894DEBF0FBECDBFB5
:10371000DF91CF911F910F91FF90EF90DF90CF90AD
:1037200008952F923F924F925F926F927F928F9265
:103730009F92AF92BF92CF92DF92EF92FF920F9340
:103740001F93CF93DF93EC015B014A01888183FFD4
:103750000EC08A8181FF0BC082FF0FC0488D598D3A
:103760006A8D7B8DCE010E946619811106C0898108
:10377000816089838FEF9FEF06C1A40160E070E054
:1037800088899989AA89BB8980959095A095B095DB
:1037900084179507A607B70750F364011E012CE0B4
:1037A000220E311C488959896A897B89C114D10448
:1037B00009F4C7C08E819F812A013B0129E07694DC
:1037C0006794579447942A95D1F7DC0113961C917E
:1037D00014217A01B1E0FB22111134C0E114F1048B
:1037E00089F54C855D856E857F854115510561059F
:1037F000710569F091010E940E1487FDB8CF811107
:1038000021C0CE010E94CC1681111CC0B0CF8C8D7E
:103810009D8DAE8DBF8D0097A105B10579F4CE01C8
:103820000E94CC16882309F4A2CF8C859D85AE8595
:10383000BF858C8F9D8FAE8FBF8F04C08C879D8777
:10384000AE87BF874C855D856E857F858E819F8124
:103850000E94F613AB01BC01410F511D611D711D8A
:10386000EE81FF81E114F10421F4C11422E0D206BB
:10387000B8F580E092E08E199F0986018C159D05B0
:1038800008F48C01E114F10479F4488859886A88B5
:103890007B88888D998DAA8DBB8D481659066A063E
:1038A0007B0610F025E001C021E0CF0180960E9448
:1038B000B413009709F45BCFA801B5018E0D9F1DCD
:1038C0000E947621E00EF11EE11482E0F80641F537
:1038D0008E819F8180960E946113811121C047CF04
:1038E00083A194A1A5A1B6A184179507A607B70740
:1038F00041F410A28FEF9FEFDC0183A394A3A5A353
:10390000B6A38E819F81DC01ED91FC910280F38151
:10391000E02D95010995882309F429CF00E012E0F4
:1039200088899989AA89BB89800F911FA11DB11D22
:10393000888B998BAA8BBB8BA00EB11EC01AD10AA3
:1039400031CF888D998DAA8DBB8D2A8184179507DB
:10395000A607B70728F4488F598F6A8F7B8F06C058
:1039600080914B0590914C05892B11F020682A839A
:103970008A8183FD02C0C40106C0CE010E94B11A33
:103980008111F9CFF4CEDF91CF911F910F91FF906C
:10399000EF90DF90CF90BF90AF909F908F907F90EF
:1039A0006F905F904F903F902F900895653040F456
:1039B000FC01E60FF11DE60FF11D81819281089552
:1039C0006B3040F4FC01E60FF11DE60FF11D848120
:1039D00095810895613140F4FC01E60FF11DE60F79
:1039E000F11D86819781089580E090E00895FC01A3
:1039F00090E080E080FB879587F92191820F9F5F9F
:103A00009B30C1F70895CF92DF92EF92FF920F9310
:103A10001F93CF93DF93FB01DC0101962C912032A1
:103A2000D9F3B483A383ED01BE016A1B7B0B89919B
:103A3000811105C0CD01860F971FEC0118C08F3290
:103A4000C9F38C3511F480E0D0C0982F977F923263
:103A5000D1F38A33C1F3982F9F7B9C33A1F392EC6F
:103A6000980F923080F380528F35F0F2ECCF1C2FFC
:103A70003D2F29912032D9F32F32C9F3EA0118835F
:103A80003983EC016115710561F08A918E3211F074
:103A9000803219F461507109F5CF6F3F710509F05B
:103AA00094F67283618380E090E020E2EF01C80F1A
:103AB000D91F2E8301968B309105C1F7ED01CE0100
:103AC0008A1B9B0B29912E32D1F32032C1F351E096
:103AD000009709F050E09B012150310938F407E0CC
:103AE00010E0C12CF12CC8E0EC2E0FC0ED01C20F8C
:103AF000D31F48814E3281F7F2CFED01C80FD91F95
:103B00004881403231F450E0019686179707ACF3B4
:103B100043C04E3221F428173907A9F704C04232B6
:103B2000A1F04C3791F0C6EDC40FC63010F44D3201
:103B300061F4C6ECC40FC63040F0C5EAC40FC33010
:103B400020F0CFEDC40FCE3530F08217930709F186
:103B500050E04FE503C082179307D9F00117D0F169
:103B6000CFE9C40FCA3118F44052FE2805C0CFEB8C
:103B7000C40FCA3108F4CE28DD24D394D10EEF014E
:103B8000C10FD11D4E8346E04D1508F0D5821D2D85
:103B9000BBCF0A30C9F450E08681803209F453CF9C
:103BA000552339F0CF2011F082E001C08F2D8083A2
:103BB00009C081E080838581E80FF11D8EE786834F
:103BC00081E3878381E011C0C9010AE018E040E188
:103BD000E42E9ACF0A30F9F228173907E4F2C90126
:103BE0000AE018E050E1E52E8ECFDF91CF911F91D2
:103BF0000F91FF90EF90DF90CF900895AF92BF921A
:103C0000CF92DF92EF92FF920F931F93CF93DF93A8
:103C10007C01EB01AD8002E010E07EE7B72E6E0183
:103C200086E0C80ED11C89819A819801280F391F1E
:103C3000EB81FC81AF01480F591FE417F50779F0BC
:103C4000C90165E0880F991F6A95E1F7820F931FFC
:103C50002191332727FD309528273927EECFE3E040
:103C6000EA1510F453E0A52E84E08A0D922F9F7080
:103C7000E82FF0E09A3010F4905D01C0995CEC0FF1
:103C8000FD1F968344E0369527954A95E1F78150CC
:103C9000A81660F3FE01EA0DF11DB68240E050E087
:103CA000BA01C7010E94661961E0C7010E94181994
:103CB000BC01009731F481E0F70191819923C9F0AB
:103CC00017C0FC018081882359F0838583FDECCFE8
:103CD0004BE050E0C6010E946921892B29F702C000
:103CE00081E007C00F5F1F4F0436110509F09BCF1D
:103CF00080E0DF91CF911F910F91FF90EF90DF90C7
:103D0000CF90BF90AF9008952F923F924F925F92C5
:103D10006F927F928F929F92AF92BF92CF92DF92DB
:103D2000EF92FF920F931F93CF93DF93CDB7DEB740
:103D30002B970FB6F894DEBF0FBECDBF3C017B873B
:103D40006A877A012A83DA0111968D909C901297E6
:103D5000FB018081807711F480E0F3C1D3018C9165
:103D60008111FACFFA018081837009F4E1C1C401A5
:103D70000C966DE070E00E947F2155245394560EFE
:103D800040E050E0BA018A859B850E9466191C823A
:103D90001D821982412C10E000E01B821701B6E061
:103DA0002B0E311CAA85BB8550962D913D914D91CE
:103DB0005C91539765E056954795379527956A9599
:103DC000D1F7590161E0CD0128873E8349875F83A0
:103DD0000E9418196C0128853E81009739F4EA8504
:103DE000FB858181882309F488C0B6CFDC018C91E2
:103DF000853E11F081110AC0111102C02C833D8350
:103E0000151508F41F5F811104C077C0151528F03F
:103E100005C0853E19F400E0C5CF10E08E32D9F31D
:103E2000F60193859F3009F046C0011108C086FF56
:103E3000B9CF082F0F7125852983402E07C04A94DA
:103E40008411E9CF858529812813E5CF842D90E061
:103E50000197ADE0A89F5001A99FB00C1124A814B0
:103E6000B904C8F620E0622FC60128870E94D61C3C
:103E70002885A814B90419F4892B69F693CF8F3FCC
:103E8000910509F040F63FEB380F3A3108F4805EB7
:103E9000A5014F5F5F4FD7011396ED91FC911497E9
:103EA000EA0DFB1D90813FEB390F3A3108F4905E2B
:103EB0008913B1CF40C193FDAECF002351F0B1E0E3
:103EC0004B124ACFC6010E94F71C2981821344CFAE
:103ED00010C04BE050E0B101C6010E946921892B5E
:103EE00009F060CFD7018C9180FF03C021E02B83C4
:103EF00059CF2A8127FF14C12FCF8A81827482343F
:103F000009F02ACF112359F0AC80BD8008C060E0D1
:103F10008A859B850E941819892B21F01F5F151532
:103F2000B0F318C0AA85BB8511968C91882391F0B7
:103F300013CF8A859B850E94DB16882309F40CCF5A
:103F4000AA85BB851696ED91FC91179782818230E8
:103F500018F4105F151568F32B81222341F0B70187
:103F60008A859B850E94FE1D882309F4F5CEA50154
:103F700060E070E025E0440F551F661F771F2A950B
:103F8000D1F78A859B850E946619882309F4E4CEBF
:103F90000FEF050D102F8FE0482E670186E0C80E49
:103FA000D11C9DE0592E49C060E08A859B850E9406
:103FB00018195C01009709F4CFCEAA85BB85169627
:103FC000ED91FC91179780A1816080A3412F101380
:103FD00001C04064F501408343861486C6014987C9
:103FE0000E94F71CD5011D968C931D975B961C9221
:103FF0001E925A97F7012381348149854F7150E011
:1040000041505109549EC001559E900D1124F50157
:1040100060E088159905A0F4D901A80FB91F4C914B
:10402000552747FD50956530B0F4528341836F5F4B
:10403000019632966D3069F711501111B5CF13C04A
:1040400041E050E08815990511F440E050E05195A9
:1040500041955109E8CF6B3018F455834483E7CF7D
:1040600057834683E4CFEA85FB8580899189A289BD
:10407000B38915E0B695A795979587951A95D1F7C9
:104080005C0160E0CF010E9418196C01009709F4EF
:1040900063CE80E2D6011D928A95E9F7F701369644
:1040A0008BE0D60101900D928A95E1F7F7018081AE
:1040B0008871D6011C968C93E0914B05F0914C05CC
:1040C000309739F0B601625F7F4FC601409609957F
:1040D00009C081E298E2F601918B808B80E098E044
:1040E00097878687D60150968D919C9151975396CC
:1040F0009C938E93529759969C938E9358971E96A5
:104100008D919C911F9757969C938E935697AA8555
:10411000BB851696ED91FC91179780A1816080A3D5
:104120002A81A5016A857B85C3010E94231A09C0E3
:104130005524539425CE2F5F2D3009F433CE5A01E8
:1041400092CE2B960FB6F894DEBF0FBECDBFDF9197
:10415000CF911F910F91FF90EF90DF90CF90BF9084
:10416000AF909F908F907F906F905F904F903F9017
:104170002F90089590E0FC013197EF30F105B0F5F4
:10418000EA5AFF4F0C94B521809180008F7703C0CD
:10419000809180008F7D80938000089580918000C1
:1041A000877FF9CF84B58F7702C084B58F7D84BDBA
:1041B0000895809190008F7707C0809190008F7D47
:1041C00003C080919000877F809390000895809134
:1041D000C0008F7703C08091C0008F7D8093C000A6
:1041E00008958091C200877F8093C2000895CF9385
:1041F000DF9390E0FC01E35AFD4F2491FC01E55868
:10420000FD4F8491882349F190E0880F991FFC01AC
:10421000E955FD4FA591B49187569D4FFC01C5917D
:10422000D4919FB7611108C0F8948C912095822396
:104230008C93888182230AC0623051F4F8948C9167
:10424000322F309583238C938881822B888304C0FE
:10425000F8948C91822B8C939FBFDF91CF9108951E
:104260000F931F93CF93DF931F92CDB7DEB7282F05
:1042700030E0F901E35BFD4F8491F901E35AFD4F12
:104280001491F901E558FD4F04910023C9F08823EA
:1042900021F069830E94BA206981E02FF0E0EE0FDF
:1042A000FF1FE756FD4FA591B4919FB7F8948C91ED
:1042B000611103C01095812301C0812B8C939FBF96
:1042C0000F90DF91CF911F910F910895F8940C9466
:1042D000BB21FB01DC0104C08D910190801921F408
:1042E00041505040C8F7881B990B0895FB01DC0131
:1042F00002C001900D9241505040D8F70895AA1B7A
:10430000BB1B51E107C0AA1FBB1FA617B70710F0C0
:10431000A61BB70B881F991F5A95A9F780959095F2
:10432000BC01CD010895A1E21A2EAA1BBB1BFD0101
:104330000DC0AA1FBB1FEE1FFF1FA217B307E40784
:10434000F50720F0A21BB30BE40BF50B661F771FDC
:10435000881F991F1A9469F76095709580959095BC
:104360009B01AC01BD01CF010895EE0FFF1F059029
:0A437000F491E02D0994F894FFCFBA
:10437A0000004F058000E803010100E10000000091
:10438A000000646174612E747874000900000000F2
:10439A000057042E040F04370434043104000000CB
:1043AA00004F0453040D0A006E616E00696E6600C8
:1043BA006F7666002E0000000000220C4F07950C55
:1043CA00030D4B0D00000000650DAC0D8F0D9F0D08
:1043DA007B0D8C0D00000000970E6A0E3F0E470EF3
:0443EA005A0E690EF0
:00000001FF
