:100000000C945F010C9487010C9487010C94870178
:100010000C9487010C9487010C9487010C94870140
:100020000C9487010C9487010C94A4090C9470081B
:100030000C9487010C9487010C9487010C94870120
:100040000C9487010C9487010C9487010C94870110
:100050000C9487010C9487010C9487010C9468051B
:100060000C9487010C9487010C9487010C948701F0
:100070000C9487010C9487010C9487010C948701E0
:100080000C9487010C9487010C9487010C948701D0
:100090000C94E80D0C9487010C9487010C94870153
:1000A0000C9487010C9487010C948701861E891E8D
:1000B000781E7C1E821EAA1EAA1EAA1E8D1E911EBE
:1000C000951E9B1E9F1EAA1EA51E00C18081C112E7
:1000D000010002020000404F1B04920001010200D7
:1000E0000112010002000000404F1B0492000101B8
:1000F000020001537061726B46756E0055534220C9
:10010000494F20426F61726400040309040000003B
:1001100000000000002A2B28000000000000000062
:10012000000000000000000000000000002C9EB451
:10013000A0A1A2A434A6A7A5AE362D3738271E1F2E
:1001400020212223242526B333B62EB7B89F8485D9
:10015000868788898A8B8C8D8E8F909192939495C7
:10016000969798999A9B9C9D2F3130A3AD350405A5
:10017000060708090A0B0C0D0E0F101112131415A7
:10018000161718191A1B1C1DAFB1B0B500090402CF
:1001900000010300000009210101000122650007A0
:1001A00005840340000105010902A1010901A10024
:1001B000850105091901290315002501950375011C
:1001C000810295017505810305010930093109385E
:1001D0001581257F750895038106C0C005010906B4
:1001E000A1018502050719E029E715002501750120
:1001F000950881029501750881039506750815001B
:1002000025650507190029658100C0080B00020259
:100210000201000904000001020200000524001090
:10022000010524010101042402060524060001073A
:1002300005810310004009040100020A00000007C4
:100240000502024000000705830240000000000094
:100250000200090F0000030401000C000004080262
:10026000011040804010204080408008020401803E
:1002700040201002011080102040400404040404B7
:100280000304050202020204030202020206060639
:1002900006060604040202020400000000250028ED
:1002A000002B002E00310000000000240027002A4F
:1002B000002D0030000045054E0B180C060D1124D2
:1002C0001FBECFEFDAE0DEBFCDBF11E0A0E0B1E0AE
:1002D000EEEEFEE302C005900D92AA35B107D9F704
:1002E00027E0AAE5B1E001C01D92AD31B207E1F708
:1002F00012E0CEEBD2E004C02297FE010E94711FF3
:10030000C63BD107C9F70E9461060C94421F0C94AA
:100310000000EF92FF920F931F93CF93DF9300D0D3
:10032000CDB7DEB7062F142F682F89E596E0298315
:100330003A830E94E60C602F89E596E00E948D0CBE
:100340002981022FE22E3A81F32E8E2D801B8117F8
:1003500040F4F70161917F0189E596E00E948D0CE0
:10036000F4CF89E596E00E94030D91E0811190E0C1
:10037000892F0F900F90DF91CF911F910F91FF90D8
:10038000EF900895CF93DF931F92CDB7DEB74983E7
:100390009E012F5F3F4F41E00E9489010F90DF9146
:1003A000CF9108953F924F925F926F927F928F927A
:1003B0009F92AF92BF92CF92DF92EF92FF920F93F4
:1003C0001F93CF93DF9300D000D000D0CDB7DEB71E
:1003D000682E562E742E3A8329830E94B2056B0133
:1003E0007C01312C412C872D90E09C838B8348012C
:1003F000A12CB12C3714B0F5662D89E596E00E944A
:10040000E60C652D89E596E00E948D0C89E596E065
:100410000E94030D662D89E596E00E94E60C4B8153
:100420005C81431951094132510514F040E250E01A
:10043000662D89E596E00E94E30C89E596E00E942E
:10044000350C892B59F10115110599F10E94B2055E
:100450006C197D098E099F09681579058A059B0528
:1004600040F11CC001151105A9F10E94B2056C19DB
:100470007D098E099F0920E030E06017710782072F
:10048000930740F1872D90E0242D332727FD3095E9
:1004900028173907FCF444244A941CC089E596E0E7
:1004A0000E94030D872D90E2971508F480E2380E24
:1004B000A1CFE981FA81E40DF11D47FCFA95FE8395
:1004C000ED8389E596E00E943D0CED81FE818083FD
:1004D0004394B3CF842D26960FB6F894DEBF0FBE9B
:1004E000CDBFDF91CF911F910F91FF90EF90DF90E3
:1004F000CF90BF90AF909F908F907F906F905F90C4
:100500004F903F9008950F931F9389019A0141E006
:100510000E94D2011F910F910895CF92DF92EF9226
:10052000FF920F931F93CF93DF931F92CDB7DEB748
:10053000C42ED22E9701AE014F5F5F4F0E948302FF
:100540008823F1F04C2D50E04D1951094F5F5F4F5A
:1005500061E070E002C0660F771FDA94E2F7615045
:100560007109042E01C0660F0A94EAF72981262337
:1005700030E002C0359527954A95E2F7F8012083CF
:100580000F90DF91CF911F910F91FF90EF90DF902F
:10059000CF900895EF92FF920F931F93CF93DF9325
:1005A0001F92CDB7DEB7182F062FF42EE22E209122
:1005B000060130910701AE014F5F5F4F0E94830239
:1005C000898121E030E00F2C01C0220F0A94EAF764
:1005D000EE2019F0482F422B03C0422F40954823AC
:1005E0004983602F812F0E94C2010F90DF91CF912C
:1005F0001F910F91FF90EF900895DF92EF92FF927D
:100600000F931F93CF93DF931F92CDB7DEB7F82ED2
:10061000E62ED42E122F2091060130910701AE0153
:100620004F5F5F4F0E948302882319F14D2D50E0E8
:10063000411B51094F5F5F4FE1E0F0E002C0EE0F58
:10064000FF1F1A95E2F73197042E01C0EE0F0A94AE
:10065000EAF701C0000F4A95EAF74E2F40958981CD
:100660004823E0234E2B49836E2D8F2D0E94C2011B
:1006700001C080E00F90DF91CF911F910F91FF900B
:10068000EF90DF90089528E6FC01208308950F93F2
:10069000062F22E044E06BE1FC0180810E94FD0214
:1006A0000F9108950F93062F22E044E06CE1FC01C6
:1006B00080810E94FD020F9108954F925F926F9288
:1006C0007F928F929F92AF92BF92CF92DF92EF92E2
:1006D000FF920F931F93CF93DF93EC015B013A01DD
:1006E0004901280100910601109107019C012F5F2B
:1006F0003F4F4EE06BE388810E94D201898190E0F8
:10070000982F88272A81822BF501918380838B8102
:1007100090E0982F88272C81822BF301918380838E
:100720008D8190E0982F88272E81822BF401918370
:100730008083898590E0982F88272A85822BF20173
:10074000918380838B8590E0982F88272C85822B3E
:10075000F701918380838D8590E0982F88272E85DF
:10076000822BF60191838083DF91CF911F910F91AE
:10077000FF90EF90DF90CF90BF90AF909F908F90C1
:100780007F906F905F904F900895262F46E06BE624
:10079000FC0180810C94CA020F93062F23E042E0F3
:1007A0006BE6FC0180810E94FD020F910895CF93BA
:1007B000DF93EC0161E00E94CC0362E0CE010E9475
:1007C000470363E0CE010E94520360E0CE01DF9157
:1007D000CF910C94C503EF92FF920F931F93CF9389
:1007E000DF93EC01E0900601F09007018C010F5FB0
:1007F0001F4F26E046E065E788810E948D028981CF
:10080000DF91CF911F910F91FF90EF9008950E947B
:10081000EB0391E0843309F090E0892F089504966A
:100820000C944519895B9D4F0C94BF10895B9D4FBB
:100830000C942611CF93DF931F92CDB7DEB7698357
:1008400041E050E0BE016F5F7F4F04960E94451962
:100850000F90DF91CF91089589E596E00E94CC0C2E
:100860008CE08093B80088E693E00E94D70388E686
:1008700093E00E940704882309F44FC022E04AE075
:1008800069EE75E082EE95E00E940410882309F479
:1008900044C082EC95E00E94B71861E08BE993E0D8
:1008A0000E94C413882349F06BE973E082EC95E061
:1008B0000E946E15882389F108C060E08BE993E0FF
:1008C0000E94C4138111F0CF08958091C2058077F2
:1008D00021F182EC95E090931C0780931B0726E49E
:1008E00042E151E0BC018BE793E00E94C0188823ED
:1008F000A1F020E030E080E090E08C3F910548F4EA
:10090000F901E65AFE4F118210822E5F3F4F019689
:10091000F4CF90935B0380935A030895CF92DF92B4
:10092000EF92FF920F931F9310925B0310925A0362
:1009300080915A0390915B038C3F910508F093C01E
:100940000E94B20560935603709357038093580337
:100950009093590300915203109153032091540333
:1009600030915503E0915A03F0915B0360177107D2
:100970008207930731F43797F0935B03E0935A03B0
:1009800068C0EE0FFF1FE65AFE4F718360836093CD
:1009900052037093530380935403909355033CE5A3
:1009A000C32E33E0D32E4EE5E42E43E0F42E00E6D2
:1009B00013E022E633E044E653E066E673E088E6BF
:1009C00093E00E945D0380915A0390915B03FC01C8
:1009D000EE0FFF1FE45AFE4F20916603309167032C
:1009E00031832083FC01EE0FFF1FE25AFE4F20915E
:1009F00064033091650331832083FC01EE0FFF1FF8
:100A0000E05AFE4F209162033091630331832083CB
:100A1000FC01EE0FFF1FEE59FE4F20916003309155
:100A2000610331832083FC01EE0FFF1FEC59FE4F61
:100A300020915E0330915F0331832083FC01EE0F30
:100A4000FF1FEA59FE4F80915C0390915D039183F3
:100A5000808380915A0390915B03079690935B0388
:100A600080935A0365CF48EF51E06AE571E08BE768
:100A700093E00E9445198BE793E01F910F91FF903F
:100A8000EF90DF90CF900C9465181092A003109215
:100A9000C2051092C30589E18093E5051092E8052F
:100AA00087E291E090939C0380939B0310927B03D9
:100AB00010927C0310927A03109279038FE191E0F7
:100AC000909378038093770388E693E00C94430334
:100AD0001F920F920FB60F9211242F933F938F9373
:100AE0009F93AF93BF938091EB059091EC05A091FC
:100AF000ED05B091EE053091EA0526E0230F2D3784
:100B000020F40296A11DB11D05C029E8230F03960C
:100B1000A11DB11D2093EA058093EB059093EC0590
:100B2000A093ED05B093EE058091EF059091F0054F
:100B3000A091F105B091F2050196A11DB11D809320
:100B4000EF059093F005A093F105B093F205BF91E6
:100B5000AF919F918F913F912F910F900FBE0F906A
:100B60001F9018952FB7F8946091EB057091EC05E4
:100B70008091ED059091EE052FBF08953FB7F89451
:100B80008091EF059091F005A091F105B091F205EB
:100B900026B5A89B05C02F3F19F00196A11DB11DD8
:100BA0003FBF6627782F892F9A2F620F711D811DF5
:100BB000911D43E0660F771F881F991F4A95D1F753
:100BC0000895CF92DF92EF92FF92CF93DF936B0164
:100BD0007C010E94BE05EB01C114D104E104F104C3
:100BE00089F00E945F060E94BE056C1B7D0B683E6B
:100BF000734090F381E0C81AD108E108F108C851A8
:100C0000DC4FEACFDF91CF91FF90EF90DF90CF9054
:100C10000895789484B5826084BD84B5816084BD74
:100C200085B5826085BD85B5816085BDEEE6F0E065
:100C3000808181608083E1E8F0E0108280818260C1
:100C40008083808181608083E0E8F0E08081816042
:100C50008083E1E9F0E0808182608083808181602F
:100C60008083E0E9F0E0808181608083E1ECF0E066
:100C700080818460808380818260808380818160C4
:100C80008083E3ECF0E0808181608083E0ECF0E041
:100C9000808182608083E2ECF0E0808181608083EB
:100CA000EAE7F0E0808184608083808182608083D5
:100CB00080818E7F808380818068808308950895FD
:100CC00008950E9409060E94600683EF95E00E9445
:100CD000FA090E942C04C0E0D0E00E948E04209704
:100CE000E1F30E940000F9CF4091F7055091F8051B
:100CF0002091F5053091F60542175307B4F4909111
:100D0000E8009570E1F39091E80092FD19C080939E
:100D1000F1008091F7059091F80501968F7399275E
:100D2000892B19F48EEF8093E8008091F70590915C
:100D3000F80501969093F8058093F70581E00895F2
:100D400080E00895CF92DF92FF920F931F93CF938D
:100D5000DF931F92CDB7DEB7082F162F862F880F8F
:100D60008E5F99830E94740683E00E947406F02EC1
:100D7000C02E9981D92E8C2D8F19811778F4F60108
:100D800084910E947406082F80E00E9474068023DC
:100D9000FFEFCF1ADF0A8111EECF01C081E00F9083
:100DA000DF91CF911F910F91FF90DF90CF90089529
:100DB000615030F02091F100FC0120830196F8CFC2
:100DC000289884E68093FA0508952FB7FC012083C4
:100DD000F89467706093E9000895CF93DF931F92B2
:100DE000CDB7DEB7682FCE0101960E94E50680914F
:100DF000F20099819FBF0F90DF91CF910895FF92EC
:100E00000F931F93CF93DF9300D0CDB7DEB7F62EAD
:100E10008A019091F905992311F057FF03C08FEFD4
:100E20009FEF2BC0682FCE0101967A830E94E506C2
:100E30008091F20090E0A8017A81801791070CF46C
:100E4000AC01EF2DF72FF40E84E6FE1639F028984A
:100E50008093FA059091F1009193F7CF41155105D8
:100E600021F08091F200882321F089818FBFCA018F
:100E700004C08BE68093E800F8CF0F900F90DF91CD
:100E8000CF911F910F91FF900895CF93DF931F9201
:100E9000CDB7DEB741E050E0BE016F5F7F4F0E94EB
:100EA000FF06019719F4898190E002C08FEF9FEF50
:100EB0000F90DF91CF910895CF93DF931F92CDB71D
:100EC000DEB7682FCE0101960E94E5069091E800FA
:100ED000892F807295FF04C09091F20080E4891BF5
:100EE00099819FBF0F90DF91CF9108956F927F926C
:100EF0008F929F92AF92BF92CF92DF92EF92FF922A
:100F00000F931F93CF93DF931F92CDB7DEB7782E49
:100F10007B01C42EB52E8091F905882369F0042F3A
:100F2000152F8AEFD82E872D8072982E9AE3A92E3E
:100F3000872D8074882E11C08FEF9FEF57C0872DAB
:100F40000E945C07682E81110CC0DA94A9F361E05D
:100F500070E080E090E00E94E1050115110579F74D
:100F60003BC0282F30E0021713070CF4602E672DCA
:100F7000CE0101960E94E5068091E80085FF29C018
:100F8000262D30E0021B130B992039F06A948FEF65
:100F90006816B1F01092F100F9CFF701862D77FEB7
:100FA00007C0815058F094919093F1003196F9CF99
:100FB000815020F091919093F100FACFE20EF31E50
:100FC0008091E80085FF0FC00115110511F4811013
:100FD0000AC089818FBFC1CF5D9884E68093FB05ED
:100FE0008C2D9B2D03C0A092E800F3CF0F90DF91D2
:100FF000CF911F910F91FF90EF90DF90CF90BF9016
:10100000AF909F908F907F906F9008951092E9001D
:101010001092F8051092F7059093F6058093F50568
:101020000895CF92DF92FF920F931F93CF93DF9398
:1010300000D0CDB7DEB7F82E8A016B01011511057E
:10104000B1F0F601F7FE02C0849101C080814983AE
:101050005A830E94740601501109FFEFCF1ADF0A6C
:1010600049815A818111EACF8FEF9FEF01C0CA01F8
:101070000F900F90DF91CF911F910F91FF90DF9014
:10108000CF9008951F93CF93DF931F92CDB7DEB714
:10109000162F2091E80022FFFCCF612F79830E9458
:1010A000D8068BEF8093E800812F7981972F0F90DE
:1010B000DF91CF911F910895CF93DF931F92CDB70A
:1010C000DEB71982CE0101960E94B80BCE010196BF
:1010D0000E94360A898190E00F90DF91CF910895A8
:1010E0001F920F920FB60F921124EF92FF920F935F
:1010F0001F932F933F934F935F936F937F938F93A0
:101100009F93AF93BF93EF93FF93CF93DF93CDB7AD
:10111000DEB76297DEBFCDBF1092E9008091E80094
:1011200083FFEBC068E0CE010A960E94D80682EFEA
:101130008093E8009A8597FF05C08091E80080FFC2
:10114000FCCF03C08EEF8093E800892F807609F0F2
:10115000B9C08B85811105C01092F1001092F10089
:10116000C5C0282F2D7F213009F4C0C0853049F437
:101170008091E80080FFFCCF8C8580688093E3003D
:10118000B5C0863009F076C02D85E888F988223010
:1011900071F580E090E02A8B0E9406080E945C08AE
:1011A00099E08E010F5F1F4FF801392F11923A9588
:1011B000E9F799832A892A8391E09E8390E89887AA
:1011C0009AEF99872091F7053091F805275F3F4FF7
:1011D0003C832B838D83C7010E94060849E050E0C1
:1011E000B80180E00E9411080E945C087FC0C7011E
:1011F0002A8B0E9406082A89223241F482E290E07A
:101200000E94410A892B09F071C074C0213069F431
:1012100088899989089711F42093F4058091F40541
:10122000811118C061EE70E01AC0233009F062C06D
:101230008C85882391F0823021F46CE08CEF90E073
:1012400006C0813009F056C068E083EF90E00E944C
:10125000A2064AC06FEC70E002C069E071E061155F
:10126000710509F447C0FB01449150E080E80E94F9
:1012700011083CC0873009F43DC0883021F481E07A
:101280008093F10033C0893089F5937099F5EBECC8
:10129000F0E081E021E096E38093E9002093EB0009
:1012A00034913093EC009093ED008F5F3196853050
:1012B00099F78EE78093EA001092EA008C8580937C
:1012C000F90514C0888999890E9406088E858111C4
:1012D00005C0CE010A960E94C30B06C0823051F4AD
:1012E000CE010A960E94690A882321F08EEF80932E
:1012F000E80003C081E28093EB0062960FB6F89499
:10130000DEBF0FBECDBFDF91CF91FF91EF91BF91B7
:10131000AF919F918F917F916F915F914F913F918D
:101320002F911F910F91FF90EF900F900FBE0F9094
:101330001F9018958093E9008091F200882319F09E
:101340008AE38093E80008951F920F920FB60F92E0
:1013500011242F933F934F935F936F937F938F93BA
:101360009F93AF93BF93EF93FF938091E10010920F
:10137000E10083FF0FC01092E90091E09093EB0031
:101380001092EC0092E39093ED001092F90598E032
:101390009093F00082FF1DC083E00E949A09809123
:1013A000FB05882339F08091FB0581508093FB0574
:1013B000882369F08091FA05882359F08091FA0515
:1013C00081508093FA05811104C0289A02C05D9A69
:1013D000F1CFFF91EF91BF91AF919F918F917F914D
:1013E0006F915F914F913F912F910F900FBE0F9092
:1013F0001F9018951092F90581E08093D70080EA3C
:101400008093D80082E089BD09B400FEFDCF61E081
:1014100070E080E090E00E94E10580E98093D800D0
:101420008CE08093E2001092E000559A209A089593
:10143000FF920F931F93CF93DF93EC01F62EE88179
:10144000F9810480F581E02D09958C01E881F9810D
:101450000680F781E02D6F2DCE010995C8019927EF
:10146000DF91CF911F910F91FF900895FC01208192
:101470002F5F208349E150E06DE871E080E80C9433
:10148000110845E650E066EA71E080E80C94110826
:10149000EF92FF920F931F93CF93DF931F92CDB7DD
:1014A000DEB789838B017A0141E050E0BE016F5FB6
:1014B0007F4F84E00E947607A701B80184E40E9470
:1014C00076070F90DF91CF911F910F91FF90EF90D2
:1014D0000895FC0191818081813A31F481E091305D
:1014E00091F0933089F411C0813271F49B3021F472
:1014F00082818093090105C09A3031F48281809302
:10150000080181E00895089580E0089548E050E0E2
:1015100082E00C94480ACF93DF93DC01683818F01E
:10152000E8E7E60F25C0E62FF0E067FF11C0E058BE
:10153000F10981E090E001C0880FEA95EAF714967E
:101540009C911497982B14969C931497E0E010C0EC
:10155000E35FFE4FE491EE2309F440C0E7FF08C0CB
:1015600014968C911497826014968C931497EF774D
:1015700016968C9116978E1741F117968C911797A6
:101580008E1719F118968C9118978E17F1F01996FD
:101590008C9119978E17C9F01A968C911A978E17FD
:1015A000A1F01B968C911B978E1779F080E090E04C
:1015B000ED01C80FD91F2E81211102C0EE8305C095
:1015C000019686309105A1F709C0BD016C5F7F4F80
:1015D000CD010E94860A81E090E008C081E090E0A1
:1015E00013969C938E93129780E090E0DF91CF91B9
:1015F0000895683818F0E8E7E60F25C0E62FF0E018
:1016000067FF12C0E058F10921E030E001C0220F6D
:10161000EA95EAF72095DC0114963C911497322361
:1016200014963C93E0E00FC0E35FFE4FE491EE239D
:1016300029F1E7FF08C0DC0114962C9114972D7F47
:1016400014962C93EF7720E030E0EE2351F0DC018C
:10165000A20FB31F16964C9116974E1302C0169602
:101660001C922F5F3F4F2630310579F7BC016C5F2C
:101670007F4F0E94860A81E090E0089580E090E02C
:101680000895FC0116821782108611861286138631
:101690001482BC016C5F7F4F0C94860A109208067E
:1016A0001092FF051092FE058FE291E09093FD05E8
:1016B0008093FC050895CF93DF931F92CDB7DEB7DB
:1016C0006983DC01ED91FC910280F381E02D41E022
:1016D00050E0BE016F5F7F4F09950F90DF91CF9172
:1016E0000895CF93DF93EC018C859D8597FF05C00E
:1016F00082E00E9445079D878C878C859D85DF91C0
:10170000CF91089583E00C949A09FC018485958516
:1017100097FD06C082E00E94ED0690E001960895D4
:1017200082E00E94ED0690E00895FC018485958595
:1017300097FD05C02FEF3FEF35872487089582E09E
:101740000C944507CF93DF93EC018091110188231E
:1017500031F083E00E9476071816190634F081E014
:1017600090E09B838A8380E090E0DF91CF910895A1
:10177000FC0120812E5F208342E450E06BE072E0A8
:1017800080E80C941108FC0181819081913A59F410
:10179000813209F03CC047E050E06AE071E080E04F
:1017A0000E94110843C0913291F5803239F467E00C
:1017B00070E08AE091E00E94420806C0823209F09F
:1017C00035C082818093110180910A0190910B01B3
:1017D000A0910C01B0910D01803B9440A105B10591
:1017E000C1F48091110180FD14C087E797E79093C1
:1017F0000108809300082BE088E190E00FB6F89490
:10180000A895809360000FBE209360000FC080E019
:10181000089588E10FB6F8948093600010926000FC
:101820000FBEA895109201081092000881E008955B
:1018300010920C0610920B0688EE93E0A0E0B0E048
:1018400080930D0690930E06A0930F06B09310069A
:101850008DE391E090930A06809309068FEF9FEF46
:10186000909316068093150608958091890690E05E
:1018700020918A06821B9109089520918A06809101
:101880008906281750F4E22FF0E0E557F94F8081E0
:1018900090E02F5F20938A0608958FEF9FEF0895C1
:1018A000E0918A0680918906E81730F4F0E0E55768
:1018B000F94F808190E008958FEF9FEF089508958C
:1018C000CF92DF92EF92FF920F931F93CF93DF930C
:1018D0007C01CB018A0120916506222389F0EB016E
:1018E0006B01C40ED51ECC15DD0569F06991D701D9
:1018F000ED91FC910190F081E02DC7010995F3CFA6
:10190000642F0E94BF0DC801DF91CF911F910F91ED
:10191000FF90EF90DF90CF900895CF93DF931F92C9
:10192000CDB7DEB76983209165062223D1F02091DF
:101930006606203240F021E030E0FC013383228350
:1019400080E090E015C080916706E82FF0E0E8594C
:10195000F94F998190838F5F809367068093660625
:1019600005C061E0CE0101960E94BF0D81E090E0CC
:101970000F90DF91CF910895FC011382128248EEFF
:1019800053E060E070E044835583668377838DE4A1
:1019900091E091838083089510928A0610928906BF
:1019A00010926706109266060C940A0D862F41323B
:1019B00008F040E26BE876E00E94280D10928A065B
:1019C00080938906089521E00C94D60C81E08093E1
:1019D0006506609388061092670610926606089561
:1019E0000F93062F21E04091660668E676E080912D
:1019F00088060E946C0D109267061092660610927F
:101A000065060F91089561E00C94F00C89E596E06D
:101A10000C94BC0C1092180781E08093160710926A
:101A2000150761E082E00E94E41E61E083E00E940D
:101A3000E41EE9EBF0E080818E7F808380818D7FE2
:101A4000808382E08093B80085E48093BC00089591
:101A5000413208F03FC0909118079111FCCF91E0FE
:101A600090931807209316072FEF2093AB06109240
:101A7000F006240F2093EF06909317079091170715
:101A8000880F892B8093170780911507813041F4C7
:101A900010921507809117078093BB0085EC01C059
:101AA00085EE8093BC00809118078130E1F380912E
:101AB000F006841710F44091F00621EF36E0FB01A8
:101AC000D9018A2F821B841718F48D918193F9CF45
:101AD000842F089580E008950F93413208F046C0A6
:101AE000909118079111FCCF92E090931807009302
:101AF00016079FEF9093AB061092F0064093EF0607
:101B0000FB0161EF76E0DB019A2F961B941718F426
:101B100091919D93F9CF1092170790911707880F15
:101B2000892B8093170780911507813041F410921B
:101B30001507809117078093BB0085EC01C085EEE7
:101B40008093BC00222321F0809118078230E1F3BA
:101B50008091AB068F3F61F08091AB06803251F0EF
:101B60008091AB06803341F483E007C081E005C07B
:101B700080E003C082E001C084E00F9108956132EB
:101B800098F420911807243089F46093CD06FC0165
:101B90008FEC96E0DC012A2F281B261718F42191E0
:101BA0002D93F9CF80E0089581E0089582E00895B3
:101BB00085ED8093BC008091BC0084FDFCCF109229
:101BC0001807089585EC8093BC00109218070895BB
:101BD0001F920F920FB60F9211242F933F934F93A2
:101BE0005F936F937F938F939F93AF93BF93EF9385
:101BF000FF938091B900887F803609F49CC068F516
:101C0000883209F45BC090F4803109F454C038F490
:101C1000882309F4F5C0883009F44DC0F5C0883137
:101C200009F44CC0803209F45DC0EEC0803409F480
:101C300068C048F4803309F455C0883309F0E4C023
:101C40008093AB06A8C0803509F44FC0883509F4ED
:101C50005DC0883409F0D8C0D5C0883909F4C6C041
:101C6000A8F4883709F467C038F4883609F463C0EB
:101C7000803709F460C0C8C0883809F4B7C080391B
:101C800009F45FC0803809F0BFC05BC0803B09F435
:101C900085C038F4803A09F466C0883A09F47EC0F9
:101CA000B3C0803C09F4A6C0883C09F4A3C0883BBB
:101CB00009F489C0A9C08091170710C09091F0065F
:101CC0008091EF06981770F5E091F00681E08E0F95
:101CD0008093F006F0E0EF50F94F80818093BB00D5
:101CE00085EC85C08093AB068DC0E091F00681E065
:101CF0008E0F8093F0068091BB00F0E0EF50F94F1B
:101D000080839091F0068091EF066DC0E091F0061F
:101D100081E08E0F8093F0068091BB00F0E0EF50E1
:101D2000F94F80838091160781116CC081E0809308
:101D3000150784EA60C083E0809318071092AC0610
:101D4000CFCF8091AC06803208F050C0E091AC0655
:101D500081E08E0F8093AC068091BB00F0E0E355EC
:101D6000F94F8083BDCF8091AC06803230F4E09192
:101D7000AC06F0E0E355F94F10820E94D80D609157
:101D8000AC0670E0E0911107F09112078DEA96E041
:101D900009951092AC060E94E20D36C084E0809353
:101DA00018071092CE061092CD06E0911307F0911D
:101DB000140709958091CD06811105C081E08093BB
:101DC000CD061092CF06E091CE0681E08E0F809373
:101DD000CE06F0E0E153F94F80818093BB009091F3
:101DE000CE068091CD06981708F47ACF85E88093C7
:101DF000BC000AC085EC8093BC001092180704C098
:101E00001092AB060E94D80DFF91EF91BF91AF9158
:101E10009F918F917F916F915F914F913F912F9102
:101E20000F900FBE0F901F90189590E022E028179A
:101E300040F0892F806A86958CBD909591709DBDEC
:101E400008959730B0F7220F953010F431E001C0BB
:101E500032E0930FECCF8FEF8EBD0DB407FEFDCFB8
:101E60008EB508958EBD0DB407FEFDCF089561E0D7
:101E7000FC0182810E94E41E8FEF0C94320FCF93FD
:101E8000DF93EC018C810E94150F60E08A81DF9165
:101E9000CF910C94E41ECF92DF92EF92FF920F93BA
:101EA0001F93CF93DF93EC018B017A010E94B2055F
:101EB0006B010E942B0F8D838F3F49F40E94B20566
:101EC0006C197D096D327140A0F381E103C08E3F32
:101ED00039F08FE08B83CE010E94370F80E028C05D
:101EE000E114F104E1F081E0E81AF1088FEF8EBD12
:101EF000F8012FEFCF01801B910B8E159F0538F451
:101F00000DB407FEFDCF8EB52EBD8193F3CF0DB47A
:101F100007FEFDCF8EB5F801EE0DFF1D80831D82FB
:101F20000E942B0F0E942B0FCE010E94370F81E0E1
:101F3000DF91CF911F910F91FF90EF90DF90CF90A5
:101F400008950F931F93CF93DF93EB010E94B20587
:101F50008B010E942B0F8F3F49F00E94B205601B3E
:101F6000710B6C177D07A8F380E001C081E0DF9161
:101F7000CF911F910F910895FF920F931F93CF93CD
:101F8000DF9300D000D0CDB7DEB78C01F62E2983C9
:101F90003A834B835C830E943F0F68E572E0C8017F
:101FA0000E94A10F8F2D80640E94320F8C810E94AD
:101FB000320F8B810E94320F8A810E94320F8981F9
:101FC0000E94320FF11002C085E901C087E80E942B
:101FD000320F8CE0F81202C00E942B0FF12C0E94ED
:101FE0002B0FF801858387FF05C0FFEFFF1611F067
:101FF000F394F5CF0F900F900F900F90DF91CF914A
:102000001F910F91FF900895BF92CF92DF92EF92B0
:10201000FF920F931F93CF93DF93EC01B22E1E829A
:102020001B82798368834A830E94B2058B0161E039
:102030008A810E94AB1E61E08A810E94E41E61E0F9
:1020400081E10E94E41E61E081E10E94AB1E61E03B
:1020500080E10E94AB1E61E08FE00E94AB1E80E435
:102060008C830E94150F2AE0F22E8FEF0E94320F10
:10207000FA94D9F720E030E0A90160E0CE010E9497
:10208000BC0F813049F00E94B205601B710B613DAD
:10209000774080F381E051C02AEA31E040E050E02F
:1020A00068E0CE010E94BC0F853011F481E00AC0C7
:1020B00094E0F92E0E942B0F8D83FA94D9F78A3A77
:1020C00059F482E08E838E81823079F4C12CD12C38
:1020D000E12C80E4F82E0CC00E94B205601B710B4D
:1020E000613D7740C8F282E028C0C12CD12C760136
:1020F00020E030E0A90167E3CE010E94BC0FA701F8
:10210000960169E2CE010E94BC0F882349F00E942B
:10211000B205601B710B613D774050F38AE00DC042
:102120008E818230E9F420E030E0A9016AE3CE013B
:102130000E94BC0F882339F088E08B83CE010E9477
:10214000370F80E012C00E942B0F807C803C11F47E
:1021500083E08E830E942B0F0E942B0F0E942B0F77
:10216000CE010E94370FBC8281E0DF91CF911F9199
:102170000F91FF90EF90DF90CF90BF9008950F9355
:102180001F93CF93DF93EC0189018E81833039F067
:1021900039E0440F551F661F771F3A95D1F79A0112
:1021A000AB0161E1CE010E94BC0F81110AC040E089
:1021B00052E0B801CE01DF91CF911F910F910C94A5
:1021C0004B0F84E08B83CE010E94370F80E0DF91BC
:1021D000CF911F910F9108950F931F93CF93DF938A
:1021E000EC01862F8A010E94320FF80180818EBD9A
:1021F000818122E030E00DB407FEFDCF8EBD2115B8
:10220000F2E03F0739F0F801E20FF31F80812F5F02
:102210003F4FF1CF0DB407FEFDCF8FEF0E94320F7D
:102220008FEF0E94320F0E942B0F8D838F718530AC
:1022300039F083E18B83CE010E94370F80E001C02B
:1022400081E0DF91CF911F910F9108950F931F931C
:10225000CF93DF93EC0189018E81833039F089E0DF
:10226000440F551F661F771F8A95D1F79A01AB015E
:1022700068E1CE010E94BC0F882319F086E08B83B1
:102280000CC0A8016EEFCE010E94EC10182F88231D
:1022900021F0CE010E94370F04C0CE010E94370FFB
:1022A00010E0812FDF91CF911F910F910895BF9280
:1022B000CF92DF92EF92FF920F931F93CF93DF9312
:1022C000EC01888180FF39C089819A818E01095F84
:1022D0001F4FDC01ED91FC914B815C816D817E8112
:1022E0000280F381E02D98010995B82E811102C07A
:1022F000B12C25C0888181FD04C088818E7F8883B0
:102300001EC0A981BA81ED91FC9111971C964D9147
:102310005D916D917C911F97CB80DC80ED80FE807C
:102320004C0D5D1D6E1D7F1D0280F381E02D980117
:10233000CD0109958111E1CFDBCFBB24B3948B2D67
:10234000DF91CF911F910F91FF90EF90DF90CF9091
:10235000BF900895CF92DF92EF92FF921F93CF9399
:10236000DF93EC016A017B01122F4B815C816D814F
:102370007E814C155D056E057F0501F10E945711A8
:10238000811103C080E090E01FC012FF06C01882D8
:10239000CB82DC82ED82FE8211C089819A81DC01D0
:1023A000ED91FC910190F081E02D9E01295F3F4F5E
:1023B000B701A60109958111EACFE4CF1370888196
:1023C000812B8883CE010796DF91CF911F91FF90DB
:1023D000EF90DF90CF900895425051096109710943
:1023E000FC01048004C0440F551F661F771F0A9428
:1023F000D2F780899189A289B389480F591F6A1F32
:102400007B1FCB01BA010895CF92DF92EF92FF922A
:102410000F931F93CF93DF93EC016A017B01890136
:102420008D81803251F5E7E0769567955795479510
:10243000EA95D1F78C899D89AE89BF89480F591FCC
:102440006A1F7B1F22E0CE0180960E94AA1100978E
:1024500011F48FEF40C0E894C7F8DD24EE24FF2488
:10246000F601EE0FFF1FEE0FFF1FE80FF91F40816F
:102470005181628173817F701DC0803151F74C8919
:102480005D896E897F894D0D511D611D711D22E091
:10249000CE0180960E94AA110097D9F2DD24EE2485
:1024A000FF24F601EE0FFF1FE80FF91F4081518155
:1024B00060E070E0888D998DAA8DBB8D841795079B
:1024C000A607B70738F0F80140835183628373830E
:1024D00081E001C080E0DF91CF911F910F91FF90CB
:1024E000EF90DF90CF9008958F929F92AF92BF921E
:1024F000CF92DF92EF92FF920F931F936A017B01BD
:1025000048015901FC012581203231F517E076950B
:102510006795579547951A95D1F7048915892689A6
:102520003789400F511F621F731F23E080960E945E
:10253000AA11009799F0E894C7F8DD24EE24FF244F
:10254000F601EE0FFF1FEE0FFF1FE80FF91F80824D
:102550009182A282B3821DC0203111F080E01AC0A6
:10256000FC0144895589668977894D0D511D611D8E
:10257000711D23E080960E94AA11009779F3DD2453
:10258000EE24FF24F601EE0FFF1FE80FF91F9182E2
:10259000808281E01F910F91FF90EF90DF90CF90AC
:1025A000BF90AF909F908F9008953F924F925F920F
:1025B0006F927F928F929F92AF92BF92CF92DF9253
:1025C000EF92FF920F931F93CF93DF93CDB7DEB7B8
:1025D00028970FB6F894DEBF0FBECDBF9E838D83C4
:1025E0002A013B0138872F8341155105610571058B
:1025F00031F4FC0180849184A284B38402C04A0136
:102600005B0175016401FFEFCF1ADF0AEF0AFF0AD1
:10261000ED81FE81808D918DA28DB38D8C159D05F0
:10262000AE05BF0528F402E0C02ED12CE12CF12C20
:102630009E012F5F3F4FB701A6018D819E810E94B1
:10264000041287FD1DC0882341F089819A81AB81E6
:10265000BC81892B8A2B8B2B31F0C814D904EA0456
:10266000FB0489F60DC00FEF1FEF2FEF3FE0B7011E
:10267000A6018D819E810E947412382E811102C0A4
:10268000312C1CC0411451046104710459F09701AC
:102690008601B301A2018D819E810E947412811175
:1026A00007C0EECFED81FE81C086D186E286F3863B
:1026B000EF81F885C082D182E282F382832D289651
:1026C0000FB6F894DEBF0FBECDBFDF91CF911F9143
:1026D0000F91FF90EF90DF90CF90BF90AF909F90C1
:1026E0008F907F906F905F904F903F9008959F9252
:1026F000AF92BF92CF92DF92EF92FF920F931F9310
:10270000CF93DF9300D000D0CDB7DEB75C016A0174
:102710007B019E012F5F3F4FB701A601C5010E94BB
:102720000412982E87FF02C080E01EC000E010E077
:102730009801B701A601C5010E9474128823A1F374
:10274000F5014085518562857385C416D506E60678
:10275000F70620F4C086D186E286F386C980DA8047
:10276000EB80FC809110D5CF0F900F900F900F90C1
:10277000DF91CF911F910F91FF90EF90DF90CF905D
:10278000BF90AF909F900895CF92DF92EF92FF920B
:102790000F931F93CF93DF93EC01162F1D8281E0DF
:1027A00090E0A0E0B0E088879987AA87BB87DAA38A
:1027B000C9A318A28FEF9FEFDC018BA39CA3ADA34D
:1027C000BEA3662321F1653008F0BFC020E040E0E1
:1027D00050E0BA01CE0180960E94AA11009709F438
:1027E000B4C0FC0100E1109FE00DF11D1124E25581
:1027F000FE4F80818F7709F0A8C0C084D184E28425
:10280000F384C114D104E104F10421F49EC0C12C6D
:10281000D12C760120E0B701A601CE0180960E945E
:10282000AA11FC01009709F490C083859485811555
:10283000924009F08AC08089823009F086C086857E
:102840009785892B09F481C035853A838FEF830FF3
:102850008B831C8289E090E021E0321741F00197E0
:1028600009F473C0220F4C814F5F4C83F6CF468929
:1028700057894115510519F060E070E004C044A18A
:1028800055A166A177A14C875D876E877F87868576
:10289000978597018601080F191F211D311D0C8B8B
:1028A0001D8B2E8B3F8B818992899F838E83440F52
:1028B000551F661F771F400F511F621F731F4C8FDC
:1028C0005D8F6E8F7F8FB5E0880F991FBA95E1F706
:1028D00081509E4F892F99278695480F591F611D5A
:1028E000711D488B598B6A8B7B8B838994890097E8
:1028F00019F0A0E0B0E004C080A191A1A2A1B3A111
:1029000097018601041B150B260B370BB901A80193
:10291000480F591F6A1F7B1F0C8004C0769567956E
:10292000579547950A94D2F7DB01CA010196A11D7C
:10293000B11D888F998FAA8FBB8F453F1FE051072C
:102940006105710520F48CE08D8380E012C0453F65
:102950005F4F6105710510F480E109C084A595A55C
:10296000A6A5B7A58C8F9D8FAE8FBF8F80E28D837C
:1029700081E0DF91CF911F910F91FF90EF90DF9059
:10298000CF900895FC018281806882839F01245F3B
:102990003F4F4485558566857785868197810C9460
:1029A000D5129F92AF92BF92CF92DF92EF92FF9299
:1029B0000F931F93CF93DF93EC01888185FF02C0B3
:1029C000912C5EC088899989AA89BB8981159E4FFF
:1029D000AF41B105A8F7CE010E94C214982E8823FA
:1029E00079F34C855D856E857F858E819F810E9400
:1029F000EC116B017C018E819F8125E0B701A6015E
:102A000080960E94AA115C010097D1F280E092E0CA
:102A1000F5019C01119221503040E1F711E0AE81A7
:102A2000BF8112960C9112971017A0F4ED91FC91B2
:102A300011970280F381E02D9501B701A601410FA6
:102A4000511D611D711DCD010995882309F4B8CF71
:102A50001F5FE5CF10E020E030E089E0000F111F9C
:102A6000221F331F8A95D1F7488959896A897B8942
:102A7000400F511F621F731F488B598B6A8B7B8BD2
:102A8000892DDF91CF911F910F91FF90EF90DF90F3
:102A9000CF90BF90AF909F900895CF93DF93EC01BC
:102AA000262F4C895D896E897F898E819F818096D2
:102AB0000E94AA119C01009761F08C819D818F700A
:102AC000992745E0880F991F4A95E1F7820F931FD8
:102AD00002C080E090E0DF91CF910895FC018081F9
:102AE000811114C080E2DF01982F1D929A95E9F7B9
:102AF00077836683DB0115969C91903119F09032B3
:102B000029F480E4808381E08283089580E0089541
:102B10002F923F924F925F926F927F928F929F92ED
:102B2000AF92BF92CF92DF92EF92FF920F931F93DB
:102B3000CF93DF9300D000D0CDB7DEB79C838B83DB
:102B40004B017A01DC018C91882309F112969C914A
:102B500090FF1DC027C0D380D822A114B10409F072
:102B60009CC0D1109AC0452B462B472B09F47EC040
:102B7000AB81BC811C964D915D916D917C911F97AD
:102B800029813A81CF010E94041287FF7EC0AB8168
:102B9000BC8111968C911197826011968C938FEF66
:102BA0009FEFE3C083FF17C0EB81FC81808D918D87
:102BB000A28DB38D4089518962897389841B950BDD
:102BC000A60BB70BA70160E070E0481759076A072A
:102BD0007B07D0F018C085FF17C0AB81BC8116966B
:102BE000ED91FC9117978681978155E0880F991F89
:102BF0005A95E1F750962D913C915197821B930B7A
:102C00008E159F0508F47C018701EB81FC813C96C1
:102C1000FA83E983612C42E0742E0115110509F451
:102C200068C0AB81BC8150964D915D916D917C9156
:102C300053975A01B1E0BB22EB81FC8120810680D1
:102C4000F781E02DDB01CA0139E0B695A79597958C
:102C500087953A95D1F725FF7ECF448D558D668DAA
:102C6000778D480F591F6A1F7B1F2BC026FD02C09E
:102C7000EB81FC81848D958DA68DB78DEB81FC81D8
:102C800084879587A687B78708C0811106C0EB8126
:102C9000FC818081807769F57ACFAB81BC811C96FD
:102CA0004D915D916D917C911F9716968D919C91A0
:102CB00017970E94EC11AB01BC014D0D511D611D18
:102CC000711DEB81FC8186819781A114B104B1F55E
:102CD0000115F2E01F0790F1DC0193962D903D90D5
:102CE0004D905C909697421553056405750529F43F
:102CF00025C0C701801B910B38C0DC01ED91FC9110
:102D00000190F081E02D94010995882309F43FCFCB
:102D1000C12CF2E0DF2E8C0C9D1CEB81FC818089A4
:102D20009189A289B3898C0D9D1DA11DB11D808B38
:102D3000918BA28BB38B0C191D096FCF93012A19AC
:102D40003B0968012017310708F4690120E08096EB
:102D50000E94AA11009709F41ACFBC016A0D7B1DCD
:102D6000A601C4010E94521FD6CF0F900F900F9062
:102D70000F90DF91CF911F910F91FF90EF90DF9017
:102D8000CF90BF90AF909F908F907F906F905F900B
:102D90004F903F902F900895FF920F931F93CF93E2
:102DA000DF931F92CDB7DEB78C01262FFC0140893F
:102DB000518962897389DB01CA01E5E0B695A7955F
:102DC00097958795EA95D1F7F82FFF70FF2E11F0B0
:102DD000211117C041E050E0BE016F5F7F4FC80175
:102DE0000E948815813019F080E090E01CC0F80145
:102DF0004089518962897389415E5F4F6F4F7F4F70
:102E000005C0405E5F4F6F4F7F4FF801408B518B85
:102E1000628B738BF801868197818796F0E2FF9E23
:102E2000800D911D11240F90DF91CF911F910F9173
:102E3000FF9008954F925F926F927F928F929F9230
:102E4000AF92BF92CF92DF92EF92FF920F931F93B8
:102E5000CF93DF93EC016A017B014C845D846E8427
:102E60007F84A881AA2309F48CC04115510561050E
:102E7000710529F41C861D861E861F867CC0A3FF53
:102E80000BC0488D598D6A8D7B8D4C155D056E0587
:102E90007F0508F476C014C0A5FF12C0EE81FF8143
:102EA00086819781F5E0880F991FFA95E1F7A0E0F8
:102EB000B0E084179507A607B70708F462C05BC0A7
:102EC000088919892A893B89EE81FF81848190E0F4
:102ED0000996B901A8014150510961097109082EEB
:102EE00004C076956795579547950A94D2F74601A1
:102EF0005701B1E08B1A9108A108B10804C0B6943B
:102F0000A794979487948A95D2F784169506A60677
:102F1000B70620F0012B022B032B81F4A6FF05C07E
:102F2000848D958DA68DB78D04C08C8D9D8DAE8DB5
:102F3000BF8D8C879D87AE87BF8704C0841A950A92
:102F4000A60AB70A8E01045F1F4F81149104A104E1
:102F5000B10489F04C855D856E857F8598018E81F1
:102F60009F810E94041291E0891A9108A108B1087A
:102F700018165CF306C0C88AD98AEA8AFB8A81E0FF
:102F800005C04C865D866E867F8680E0DF91CF919E
:102F90001F910F91FF90EF90DF90CF90BF90AF9077
:102FA0009F908F907F906F905F904F9008958F9239
:102FB0009F92AF92BF92FF920F931F93CF93DF9395
:102FC000EC01F22E80E2DE011D928A95E9F7FB0109
:102FD000868197819F838E835D834C83848C958CBF
:102FE000A68CB78C88869986AA86BB86FC01B79684
:102FF0004F705527B5E0440F551FBA95E1F7E40F20
:10300000F51F338533FF03C0188280E054C0377149
:1030100038832385287111F4386038830B832F2D72
:10302000227319F02881217179F72F2D2F702A83AF
:10303000DC0193964D915D916D917C9196974C8BAF
:103040005D8B6E8B7F8B4489558960E070E0BA019F
:1030500055274427028D138D20E030E0402B512B63
:10306000622B732BF4FE0AC04115510561057105F1
:10307000E9F00E947713811119C0C6CF4C8F5D8F84
:103080006E8F7F8F448D558D668D778D488F598FCC
:103090006A8F7B8FF5FE0EC0488D598D6A8D7B8DB2
:1030A000CE010E941A17811105C0AECF8A818068B7
:1030B0008A83F0CF81E0DF91CF911F910F91FF9034
:1030C000BF90AF909F908F9008950F931F93CF93D1
:1030D000DF93EC018881882309F443C08A8187FF4C
:1030E00038C061E0CE010E944D158C01009729F493
:1030F00089818160898380E035C0FC018081853EC3
:10310000B9F3888183FF08C0488D598D6A8D7B8D06
:10311000448F558F668F778F4C8D5D8D6E8D7F8D33
:10312000F801538F428F758B648BE0911907F091F2
:103130001A07309759F0B8016A5E7F4FC801489668
:103140000995F801808D918D938B828B8A818F7781
:103150008A838E819F8180960E945711882341F235
:1031600001C081E0DF91CF911F910F910895CF931E
:10317000DF93EC010E9465181882DF91CF910895CA
:10318000CF92DF92EF92FF920F931F93CF93DF9333
:10319000CDB7DEB7E3970FB6F894DEBF0FBECDBF55
:1031A0008C017B015BAB4AABD22E19821A82FC01E7
:1031B0008081882311F080E059C0FB0180818077F5
:1031C000D1F3EAA9FBA980818F32D9F4EAA9FBA93E
:1031D00080818F3221F43196FBABEAABF7CFF70158
:1031E00066817781811104C0C8010E946E153EC0BE
:1031F000CE0101960E946E158823E9F2CE01019658
:103200007C0150E2C52EAE014E5C5F4FBE016F5D8A
:103210007F4F8AA99BA90E94B71A882361F2EAA965
:10322000FBA980818823D1F021E0AE014F5D5F4F83
:10323000B701C8010E94381C882309F4BCCFF801EB
:10324000DE0111968C2D01900D928A95E1F7C8014F
:103250000E94B718FE0131967F01D5CF2D2DAE010A
:103260004F5D5F4FB701C8010E94381CE3960FB64F
:10327000F894DEBF0FBECDBFDF91CF911F910F91AC
:10328000FF90EF90DF90CF9008952F923F924F9252
:103290005F926F927F928F929F92AF92BF92CF92E6
:1032A000DF92EF92FF920F931F93CF93DF93EC0186
:1032B0005B014A01888183FF0EC08A8181FF0BC0B8
:1032C00082FF0FC0488D598D6A8D7B8DCE010E9483
:1032D0001A17811106C08981816089838FEF9FEF62
:1032E00006C1A40160E070E088899989AA89BB8938
:1032F00080959095A095B09584179507A607B70778
:1033000050F364011E012CE0220E311C48895989BA
:103310006A897B89C114D10409F4C7C08E819F8159
:103320002A013B0129E076946794579447942A95A3
:10333000D1F7DC0113961C9114217A01B1E0FB2234
:10334000111134C0E114F10489F54C855D856E8559
:103350007F85411551056105710569F091010E9454
:10336000041287FDB8CF811121C0CE010E94C21482
:1033700081111CC0B0CF8C8D9D8DAE8DBF8D0097FF
:10338000A105B10579F4CE010E94C214882309F485
:10339000A2CF8C859D85AE85BF858C8F9D8FAE8F8E
:1033A000BF8F04C08C879D87AE87BF874C855D85A6
:1033B0006E857F858E819F810E94EC11AB01BC01DF
:1033C000410F511D611D711DEE81FF81E114F1045A
:1033D00021F4C11422E0D206B8F580E092E08E1903
:1033E0009F0986018C159D0508F48C01E114F104F8
:1033F00079F4488859886A887B88888D998DAA8D48
:10340000BB8D481659066A067B0610F025E001C000
:1034100021E0CF0180960E94AA11009709F45BCFAA
:10342000A801B5018E0D9F1D0E94521FE00EF11ED6
:10343000E11482E0F80641F58E819F8180960E941A
:103440005711811121C047CF83A194A1A5A1B6A195
:1034500084179507A607B70741F410A28FEF9FEFD7
:10346000DC0183A394A3A5A3B6A38E819F81DC0175
:10347000ED91FC910280F381E02D9501099588235F
:1034800009F429CF00E012E088899989AA89BB89CB
:10349000800F911FA11DB11D888B998BAA8BBB8BAF
:1034A000A00EB11EC01AD10A31CF888D998DAA8D78
:1034B000BB8D2A8184179507A607B70728F4488F84
:1034C000598F6A8F7B8F06C08091190790911A07D8
:1034D000892B11F020682A838A8183FD02C0C401F0
:1034E00006C0CE010E9465188111F9CFF4CEDF919C
:1034F000CF911F910F91FF90EF90DF90CF90BF90F1
:10350000AF909F908F907F906F905F904F903F9083
:103510002F900895653040F4FC01E60FF11DE60F91
:10352000F11D8181928108956B3040F4FC01E60F1A
:10353000F11DE60FF11D848195810895613140F4FC
:10354000FC01E60FF11DE60FF11D868197810895BC
:1035500080E090E00895FC0190E080E080FB87959A
:1035600087F92191820F9F5F9B30C1F70895CF9219
:10357000DF92EF92FF920F931F93CF93DF93FB01A4
:10358000DC0101962C912032D9F3B483A383ED01A1
:10359000BE016A1B7B0B8991811105C0CD01860F8D
:1035A000971FEC0118C08F32C9F38C3511F480E0FD
:1035B000D0C0982F977F9232D1F38A33C1F3982FDE
:1035C0009F7B9C33A1F392EC980F923080F3805252
:1035D0008F35F0F2ECCF1C2F3D2F29912032D9F3FB
:1035E0002F32C9F3EA0118833983EC0161157105A3
:1035F00061F08A918E3211F0803219F461507109B4
:10360000F5CF6F3F710509F094F67283618380E016
:1036100090E020E2EF01C80FD91F2E8301968B3076
:103620009105C1F7ED01CE018A1B9B0B29912E322A
:10363000D1F32032C1F351E0009709F050E09B0133
:103640002150310938F407E010E0C12CF12CC8E01A
:10365000EC2E0FC0ED01C20FD31F48814E3281F70F
:10366000F2CFED01C80FD91F4881403231F450E04C
:10367000019686179707ACF343C04E3221F4281702
:103680003907A9F704C04232A1F04C3791F0C6EDDA
:10369000C40FC63010F44D3261F4C6ECC40FC6300E
:1036A00040F0C5EAC40FC33020F0CFEDC40FCE35D3
:1036B00030F08217930709F150E04FE503C08217FD
:1036C0009307D9F00117D0F1CFE9C40FCA3118F42C
:1036D0004052FE2805C0CFEBC40FCA3108F4CE28F3
:1036E000DD24D394D10EEF01C10FD11D4E8346E0EE
:1036F0004D1508F0D5821D2DBBCF0A30C9F450E01E
:103700008681803209F453CF552339F0CF2011F050
:1037100082E001C08F2D808309C081E08083858194
:10372000E80FF11D8EE7868381E3878381E011C076
:10373000C9010AE018E040E1E42E9ACF0A30F9F21C
:1037400028173907E4F2C9010AE018E050E1E52E34
:103750008ECFDF91CF911F910F91FF90EF90DF906F
:10376000CF900895AF92BF92CF92DF92EF92FF92E7
:103770000F931F93CF93DF937C01EB01AD8002E0A9
:1037800010E07EE7B72E6E0186E0C80ED11C89815D
:103790009A819801280F391FEB81FC81AF01480FF6
:1037A000591FE417F50779F0C90165E0880F991FE3
:1037B0006A95E1F7820F931F2191332727FD3095FA
:1037C00028273927EECFE3E0EA1510F453E0A52EC1
:1037D00084E08A0D922F9F70E82FF0E09A3010F469
:1037E000905D01C0995CEC0FFD1F968344E0369517
:1037F00027954A95E1F78150A81660F3FE01EA0D7E
:10380000F11DB68240E050E0BA01C7010E941A17CC
:1038100061E0C7010E94CC16BC01009731F481E041
:10382000F70191819923C9F017C0FC018081882399
:1038300059F0838583FDECCF4BE050E0C6010E9438
:10384000451F892B29F702C081E007C00F5F1F4F7A
:103850000436110509F09BCF80E0DF91CF911F91D5
:103860000F91FF90EF90DF90CF90BF90AF900895B1
:103870002F923F924F925F926F927F928F929F9280
:10388000AF92BF92CF92DF92EF92FF920F931F936E
:10389000CF93DF93CDB7DEB72B970FB6F894DEBF8B
:1038A0000FBECDBF3C017B876A877A012A83DA018C
:1038B00011968D909C901297FB018081807711F476
:1038C00080E0F3C1D3018C918111FACFFA0180819C
:1038D000837009F4E1C1C4010C966DE070E00E94B0
:1038E0005B1F55245394560E40E050E0BA018A8580
:1038F0009B850E941A171C821D821982412C10E0A0
:1039000000E01B821701B6E02B0E311CAA85BB8597
:1039100050962D913D914D915C91539765E0569550
:103920004795379527956A95D1F7590161E0CD0103
:1039300028873E8349875F830E94CC166C012885C7
:103940003E81009739F4EA85FB858181882309F45B
:1039500088C0B6CFDC018C91853E11F081110AC080
:10396000111102C02C833D83151508F41F5F8111CE
:1039700004C077C0151528F005C0853E19F400E095
:10398000C5CF10E08E32D9F3F60193859F3009F050
:1039900046C0011108C086FFB9CF082F0F712585D9
:1039A0002983402E07C04A948411E9CF8585298157
:1039B0002813E5CF842D90E00197ADE0A89F50013A
:1039C000A99FB00C1124A814B904C8F620E0622FF6
:1039D000C60128870E948A1A2885A814B90419F4F8
:1039E000892B69F693CF8F3F910509F040F63FEBA5
:1039F000380F3A3108F4805EA5014F5F5F4FD70161
:103A00001396ED91FC911497EA0DFB1D90813FEB0D
:103A1000390F3A3108F4905E8913B1CF40C193FD5C
:103A2000AECF002351F0B1E04B124ACFC6010E9445
:103A3000AB1A2981821344CF10C04BE050E0B10192
:103A4000C6010E94451F892B09F060CFD7018C91D8
:103A500080FF03C021E02B8359CF2A8127FF14C1A7
:103A60002FCF8A818274823409F02ACF112359F032
:103A7000AC80BD8008C060E08A859B850E94CC1622
:103A8000892B21F01F5F1515B0F318C0AA85BB85DF
:103A900011968C91882391F013CF8A859B850E9483
:103AA000D114882309F40CCFAA85BB851696ED9115
:103AB000FC9117978281823018F4105F151568F316
:103AC0002B81222341F0B7018A859B850E94B21B7E
:103AD000882309F4F5CEA50160E070E025E0440FED
:103AE000551F661F771F2A95D1F78A859B850E94EF
:103AF0001A17882309F4E4CE0FEF050D102F8FE07D
:103B0000482E670186E0C80ED11C9DE0592E49C0A1
:103B100060E08A859B850E94CC165C01009709F4C1
:103B2000CFCEAA85BB851696ED91FC91179780A103
:103B3000816080A3412F101301C04064F5014083D0
:103B400043861486C60149870E94AB1AD5011D968B
:103B50008C931D975B961C921E925A97F7012381B6
:103B6000348149854F7150E041505109549EC00144
:103B7000559E900D1124F50160E088159905A0F47B
:103B8000D901A80FB91F4C91552747FD50956530B5
:103B9000B0F4528341836F5F019632966D3069F7BE
:103BA00011501111B5CF13C041E050E088159905AF
:103BB00011F440E050E0519541955109E8CF6B3048
:103BC00018F455834483E7CF57834683E4CFEA85CF
:103BD000FB8580899189A289B38915E0B695A7955F
:103BE000979587951A95D1F75C0160E0CF010E9407
:103BF000CC166C01009709F463CE80E2D6011D92C9
:103C00008A95E9F7F70136968BE0D60101900D927F
:103C10008A95E1F7F70180818871D6011C968C9313
:103C2000E0911907F0911A07309739F0B601625FF9
:103C30007F4FC6014096099509C081E298E2F601DE
:103C4000918B808B80E098E097878687D60150968D
:103C50008D919C91519753969C938E935297599620
:103C60009C938E9358971E968D919C911F97579673
:103C70009C938E935697AA85BB851696ED91FC91E1
:103C8000179780A1816080A32A81A5016A857B8521
:103C9000C3010E94D71709C05524539425CE2F5F26
:103CA0002D3009F433CE5A0192CE2B960FB6F894EC
:103CB000DEBF0FBECDBFDF91CF911F910F91FF905F
:103CC000EF90DF90CF90BF90AF909F908F907F90BC
:103CD0006F905F904F903F902F90089590E0FC017F
:103CE0003197EF30F105B0F5EA5AFF4F0C946F1F92
:103CF000809180008F7703C0809180008F7D8093BA
:103D00008000089580918000877FF9CF84B58F77F8
:103D100002C084B58F7D84BD0895809190008F7717
:103D200007C0809190008F7D03C080919000877FB5
:103D30008093900008958091C0008F7703C0809198
:103D4000C0008F7D8093C00008958091C200877F5E
:103D50008093C2000895CF93DF9390E0FC01E35A73
:103D6000FD4F2491FC01E558FD4F8491882349F1D2
:103D700090E0880F991FFC01E955FD4FA591B49182
:103D800087569D4FFC01C591D4919FB7611108C022
:103D9000F8948C91209582238C93888182230AC089
:103DA000623051F4F8948C91322F309583238C93A8
:103DB0008881822B888304C0F8948C91822B8C9309
:103DC0009FBFDF91CF9108950F931F93CF93DF9300
:103DD0001F92CDB7DEB7282F30E0F901E35BFD4F2E
:103DE0008491F901E35AFD4F1491F901E558FD4F13
:103DF00004910023C9F0882321F069830E946E1E7C
:103E00006981E02FF0E0EE0FFF1FE756FD4FA5910F
:103E1000B4919FB7F8948C91611103C010958123E0
:103E200001C0812B8C939FBF0F90DF91CF911F9189
:103E30000F910895CF92DF92EF92FF920F931F930D
:103E4000CF93DF936C017A01EB01E60EF71E00E0E1
:103E500010E0CE15DF0561F06991D601ED91FC917E
:103E60000190F081E02DC6010995080F191FF1CFCF
:103E7000C801DF91CF911F910F91FF90EF90DF90DC
:103E8000CF900895F8940C94751FFB01DC0104C0D9
:103E90008D910190801921F441505040C8F7881B42
:103EA000990B0895FB01DC0102C001900D92415075
:103EB0005040D8F70895AA1BBB1B51E107C0AA1FA9
:103EC000BB1FA617B70710F0A61BB70B881F991FBB
:103ED0005A95A9F780959095BC01CD010895EE0FF4
:0E3EE000FF1F0590F491E02D0994F894FFCF98
:103EEE0000001D078000E803010100E10000000052
:103EFE000000646174612E74787400000000001A72
:103F0E00040F040000000012041604000000001844
:103F1E000A1A1F8B0AF90A410B000000005B0BA264
:103F2E000B850B950B710B820B000000008D0C6046
:0A3F3E000C350C3D0C500C5F0C001C
:00000001FF
