:100000005EC1000083C1000081C100007FC100000B
:100010007DC100007BC1000079C1000077C10000F4
:1000200075C1000073C100000C94620B0C943B0A74
:100030006DC100006BC1000069C1000067C1000014
:1000400065C1000063C1000061C100005FC1000024
:100050005DC100005BC1000059C1000078C3000011
:1000600055C1000008C5000038C500004FC10000A0
:100070004DC100004BC1000049C1000047C1000054
:1000800045C1000043C1000041C100003FC1000064
:100090009CC100003BC1000039C1000037C1000015
:1000A00035C1000033C1000031C10000A704AA041B
:1000B00099049D04A304CB04CB04CB04AE04B20486
:1000C000B604BC04C004CB04C6040000000200094E
:1000D0000F0000030401000C00000408020110409E
:1000E00080401020408040800802040180402010A1
:1000F000020110801020404004040404040304059D
:1001000002020202040302020202060606060606B4
:1001100004040202020400000000250028002B0055
:100120002E00310000000000240027002A002D00CE
:100130003000080B00020202010009040000010265
:10014000020000052400100105240101010424021D
:10015000060524060001070581031000400904017B
:1001600000020A00000007050202400000070583A4
:100170000240000000C18081C112010002020000A3
:10018000404F1B0492000101020001120100020015
:100190000000404F1B0492000101020001537061F6
:1001A000726B46756E0055534220494F20426F6175
:1001B0007264000403090400000000000000002A2B
:1001C0002B280000000000000000000000000000DC
:1001D000000000000000002C9EB4A0A1A2A434A640
:1001E000A7A5AE362D3738271E1F20212223242510
:1001F00026B333B62EB7B89F8485868788898A8BC5
:100200008C8D8E8F909192939495969798999A9BB6
:100210009C9D2F3130A3AD350405060708090A0B54
:100220000C0D0E0F101112131415161718191A1B96
:100230001C1DAFB1B0B500090402000103000000AD
:100240000921010100012265000705840340000126
:1002500005010902A1010901A10085010509190192
:100260002903150025019503750181029501750586
:10027000810305010930093109381581257F750889
:1002800095038106C0C005010906A1018502050785
:1002900019E029E7150025017501950881029501EE
:1002A0007508810395067508150025650507190071
:1002B00029658100C000A4039B053108020D1124AB
:1002C0001FBECFEFDAE0DEBFCDBF11E0A0E0B1E0AE
:1002D000E2E7FAE102C005900D92A637B107D9F71F
:1002E00023E0A6E7B1E001C01D92A134B207E1F717
:1002F00012E0CEEBD2E004C02297FE010E94330D43
:10030000C63BD107C9F7ACD40C94370D79CE61E068
:100310008091000141D340E855E260E070E08BED50
:1003200092E099D626E040E855E260E070E08EE386
:1003300092E083C5CF93DF936CE071E08BED92E0A8
:100340007ED460E271E08EE392E079D4C0E0D1E047
:1003500060E088815AD35D9A68EE73E080E090E0B7
:1003600063D261E0888151D35D9868EE73E080E0EC
:1003700090E0DF91CF9158C2613298F42091E3016F
:10038000243089F460939801FC018AE991E0DC0152
:100390002A2F281B261718F421912D93F9CF80E0DE
:1003A000089581E0089582E0089585ED8093BC0072
:1003B0008091BC0084FDFCCF1092E301089585EC90
:1003C0008093BC001092E30108951F920F920FB624
:1003D0000F9211242F933F934F935F936F937F93CB
:1003E0008F939F93AF93BF93EF93FF938091B90047
:1003F000887F803609F49CC068F5883209F45BC0B8
:1004000090F4803109F454C038F4882309F4F3C01F
:10041000883009F44DC0F2C0883109F44CC08032F4
:1004200009F45DC0EBC0803409F468C048F480333F
:1004300009F455C0883309F0E1C080937601A7C064
:10044000803509F44FC0883509F45DC0883409F05F
:10045000D5C0D3C0883909F4C4C0A8F4883709F4DA
:1004600067C038F4883609F463C0803709F460C087
:10047000C5C0883809F4B5C0803909F45FC0803838
:1004800009F0BCC05BC0803B09F483C038F4803AFB
:1004900009F466C0883A09F47CC0B0C0803C09F415
:1004A000A4C0883C09F4A1C0883B09F487C0A6C059
:1004B0008091E20110C09091BB018091BA01981720
:1004C00070F5E091BB0181E08E0F8093BB01F0E0FD
:1004D000E454FE4F80818093BB0085EC83C0809301
:1004E00076018BC0E091BB0181E08E0F8093BB0150
:1004F0008091BB00F0E0E454FE4F80839091BB01FB
:100500008091BA016BC0E091BB0181E08E0F8093B6
:10051000BB018091BB00F0E0E454FE4F80838091EA
:10052000E10181116AC081E08093E00184EA5EC04C
:1005300083E08093E30110927701CFCF8091770120
:10054000803208F04EC0E091770181E08E0F8093F9
:1005500077018091BB00F0E0E858FE4F8083BDCF6B
:1005600080917701803230F4E0917701F0E0E85833
:10057000FE4F10821ADF6091770170E0E091DC019C
:10058000F091DD0188E791E009951092770117DF7E
:1005900035C084E08093E301109299011092980194
:1005A000E091DE01F091DF010995809198018111C0
:1005B00005C081E08093980110929A01E091990121
:1005C00081E08E0F80939901F0E0E656FE4F808126
:1005D0008093BB009091990180919801981708F43D
:1005E0007CCF85E88093BC0009C085EC8093BC007B
:1005F0001092E30103C010927601D7DEFF91EF91D4
:10060000BF91AF919F918F917F916F915F914F912A
:100610003F912F910F900FBE0F901F9018958091D2
:10062000130290E020911402821B910908952091F9
:10063000140280911302281750F4E22FF0E0EB5ED1
:10064000FD4F808190E02F5F2093140208958FEF7B
:100650009FEF0895E091140280911302E81730F49F
:10066000F0E0EB5EFD4F808190E008958FEF9FEF0B
:1006700008950895CF92DF92EF92FF920F931F9308
:10068000CF93DF937C01CB018A012091F0012223DB
:1006900089F0EB016B01C40ED51ECC15DD0561F0B0
:1006A0006991D701ED91FC910190F081E02DC70196
:1006B0000995F3CF642F60DEC801DF91CF911F91C0
:1006C0000F91FF90EF90DF90CF900895CF93DF933D
:1006D0001F92CDB7DEB769832091F0012223D1F0BC
:1006E0002091F101203240F021E030E0FC01338321
:1006F000228380E090E014C08091F201E82FF0E0C6
:10070000ED50FE4F998190838F5F8093F20180932B
:10071000F10104C061E0CE0101962EDE81E090E09F
:100720000F90DF91CF910895FC011382128248EE61
:1007300053E060E070E044835583668377838BE207
:1007400091E091838083089584EE91E0EDCF1F9234
:100750000F920FB60F9211242F933F938F939F9375
:10076000AF93BF938091360290913702A0913802E7
:10077000B09139023091350226E0230F2D3720F455
:100780000296A11DB11D05C029E8230F0396A11DE6
:10079000B11D209335028093360290933702A093C7
:1007A0003802B093390280913A0290913B02A091B5
:1007B0003C02B0913D020196A11DB11D80933A0209
:1007C00090933B02A0933C02B0933D02BF91AF9146
:1007D0009F918F913F912F910F900FBE0F901F907F
:1007E00018953FB7F89480913A0290913B02A091FE
:1007F0003C02B0913D0226B5A89B05C02F3F19F0E1
:100800000196A11DB11D3FBF6627782F892F9A2F12
:10081000620F711D811D911D43E0660F771F881FB8
:10082000991F4A95D1F70895CF92DF92EF92FF92E8
:10083000CF93DF936B017C01D4DFEB01C114D104B2
:10084000E104F10479F016D1CCDF6C1B7D0B683E1E
:100850007340A0F381E0C81AD108E108F108C8513B
:10086000DC4FECCFDF91CF91FF90EF90DF90CF90F6
:100870000895789484B5826084BD84B5816084BD18
:1008800085B5826085BD85B5816085BDEEE6F0E009
:10089000808181608083E1E8F0E010828081826065
:1008A0008083808181608083E0E8F0E080818160E6
:1008B0008083E1E9F0E080818260808380818160D3
:1008C0008083E0E9F0E0808181608083E1ECF0E00A
:1008D0008081846080838081826080838081816068
:1008E0008083E3ECF0E0808181608083E0ECF0E0E5
:1008F000808182608083E2ECF0E08081816080838F
:10090000EAE7F0E080818460808380818260808378
:1009100080818E7F8083808180688083089590E0CD
:10092000FC013197EF30F105B0F5EA5AFF4F0C9416
:10093000310D809180008F7703C0809180008F7D82
:1009400080938000089580918000877FF9CF84B5DF
:100950008F7702C084B58F7D84BD0895809190000B
:100960008F7707C0809190008F7D03C080919000A9
:10097000877F8093900008958091C0008F7703C097
:100980008091C0008F7D8093C00008958091C20047
:10099000877F8093C2000895CF93DF9390E0FC019E
:1009A000E652FF4F2491FC01E850FF4F84918823C9
:1009B00049F190E0880F991FFC01EC5DFE4FA59175
:1009C000B4918A5E9E4FFC01C591D4919FB761118D
:1009D00008C0F8948C91209582238C93888182237F
:1009E0000AC0623051F4F8948C91322F30958323F1
:1009F0008C938881822B888304C0F8948C91822BFD
:100A00008C939FBFDF91CF9108950F931F93CF9346
:100A1000DF931F92CDB7DEB7282F30E0F901E65300
:100A2000FF4F8491F901E652FF4F1491F901E8500C
:100A3000FF4F04910023C1F0882319F069836FDF11
:100A40006981E02FF0E0EE0FFF1FEA5EFE4FA591F7
:100A5000B4919FB7F8948C91611103C010958123D4
:100A600001C0812B8C939FBF0F90DF91CF911F917D
:100A70000F91089508951F920F920FB60F921124AF
:100A80002F938F939F93EF93FF93E0914E02F091FA
:100A90004F028081E0915402F091550282FD12C014
:100AA0009081809157028F5F8F7320915802821737
:100AB00051F0E0915702F0E0E25CFD4F958F80939A
:100AC000570201C08081FF91EF919F918F912F91EB
:100AD0000F900FBE0F901F9018951F920F920FB698
:100AE0000F9211242F933F934F935F936F937F93B4
:100AF0008F939F93AF93BF93EF93FF938EE392E017
:100B0000F6D0FF91EF91BF91AF919F918F917F911F
:100B10006F915F914F913F912F910F900FBE0F906A
:100B20001F9018958EE392E0A8D021E0892B09F45C
:100B300020E0822F0895109241021092400288EE28
:100B400093E0A0E0B0E08093420290934302A09330
:100B50004402B09345028CE491E090933F0280936D
:100B60003E028DEC90E090934B0280934A028CEC15
:100B700090E090934D0280934C0288EC90E090932B
:100B80004F0280934E0289EC90E090935102809343
:100B900050028AEC90E090935302809352028EECC4
:100BA00090E0909355028093540210925702109255
:100BB00058021092590210925A020895CF92DF9271
:100BC000EF92FF920F931F93CF93DF936C017A0103
:100BD000EB01E60EF71E00E010E0CE15DF0561F038
:100BE0006991D601ED91FC910190F081E02DC60153
:100BF0000995080F191FF1CFC801DF91CF911F91FF
:100C00000F91FF90EF90DF90CF90089561157105DF
:100C100081F0DB010D900020E9F7AD014150510951
:100C2000461B570BDC01ED91FC910280F381E02D16
:100C3000099480E090E0089567E371E0E7CF0F93B7
:100C40001F93CF93DF93EC01E1DF8C01CE01F4DF42
:100C5000800F911FDF91CF911F910F9108950895FB
:100C600008DEFDDF8BE293E082D551DBCAE6D6E0F9
:100C700061DB2097E9F32ED0FBCFFC01818D228D23
:100C800090E0805C9F4F821B91098F739927089594
:100C9000FC01918D828D981731F0828DE80FF11D46
:100CA000858D90E008958FEF9FEF0895FC01918D61
:100CB000828D981761F0828DDF01A80FB11D5D96BE
:100CC0008C91928D9F5F9F73928F90E008958FEF2C
:100CD0009FEF089582E995E0892B41F080E090E054
:100CE000892B21F01FDF81110C9400000895FC0175
:100CF000848DDF01A80FB11DA35ABF4F2C91848DA5
:100D000090E001968F739927848FA689B7892C93D9
:100D1000A089B1898C9180648C93938D848D981374
:100D200006C00288F389E02D80818F7D808308953D
:100D3000CF93DF93EC01888D8823C1F0EA89FB898A
:100D4000808185FD05C0A889B9898C9186FD0EC07A
:100D50000FB607FCF5CF808185FFF2CFA889B9894E
:100D60008C9185FFEDCFCE01C2DFE8CFDF91CF912F
:100D70000895CF92DF92FF920F931F93CF93DF934B
:100D80001F92CDB7DEB76C0181E0D60158968C93E7
:100D900058975B969C915B975C968C915C979813A7
:100DA00007C05096ED91FC915197808185FD2DC033
:100DB000F601038D10E00F5F1F4F0F731127F02E08
:100DC000F601848DF81210C00FB607FCF9CFD601DA
:100DD0005096ED91FC915197808185FFF1CFC6012E
:100DE000698385DF6981ECCF838DE80FF11DE35ABC
:100DF000FF4F6083D6015B960C935B975296ED9103
:100E0000FC915397808180620CC0D6015696ED917B
:100E1000FC91579760835096ED91FC91519780819A
:100E20008064808381E090E00F90DF91CF911F91EB
:100E30000F91FF90DF90CF900895BF92CF92DF92F5
:100E4000EF92FF92CF93DF93EC016A017B01B22E08
:100E500060E874E88EE190E0A7019601E0D52150AA
:100E60003109410951095695479537952795E889E4
:100E7000F98982E08083211580E1380790F0E889C4
:100E8000F989108260E472E48FE090E0A701960196
:100E9000C6D52150310941095109569547953795D5
:100EA0002795EC85FD853083EE85FF852083188EA0
:100EB000EC89FD89B082EA89FB8980818061808329
:100EC000EA89FB89808188608083EA89FB89808147
:100ED00080688083EA89FB8980818F7D8083DF91B0
:100EE000CF91FF90EF90DF90CF90BF900895CF9378
:100EF000DF931F92CDB7DEB76983DC01ED91FC91E2
:100F00000280F381E02D41E050E0BE016F5F7F4F32
:100F100009950F90DF91CF910895CF93DF93EC0166
:100F20008C859D8597FF04C082E083D19D878C8747
:100F30008C859D85DF91CF91089583E0B9C3FC0135
:100F40008485958597FD05C082E01DD190E00196CE
:100F5000089582E018D190E00895FC01848595857C
:100F600097FD05C02FEF3FEF35872487089582E076
:100F700060C1CF93DF93EC0180910901882329F0B0
:100F800083E086D11816190634F081E090E09B8347
:100F90008A8380E090E0DF91CF910895FC01208169
:100FA0002E5F208342E450E062E371E080E808C2F3
:100FB000FC0181819081913A51F4813209F03AC06B
:100FC00047E050E062E071E080E0FAD142C0913247
:100FD00089F5803231F467E070E082E091E020D260
:100FE00006C0823209F035C0828180930901809168
:100FF000020190910301A0910401B0910501803B91
:101000009440A105B105C1F48091090180FD14C08F
:1010100087E797E790930108809300082BE088E129
:1010200090E00FB6F894A895809360000FBE2093CF
:1010300060000FC080E0089588E10FB6F8948093B7
:101040006000109260000FBEA895109201081092E7
:10105000000881E008952FEF3FEFFC0135872487DA
:1010600008951092DE021092DD0288EE93E0A0E077
:10107000B0E08093DF029093E002A093E102B0938E
:10108000E2028CE591E09093DC028093DB028FEF2B
:101090009FEF9093E8028093E702089540912F0319
:1010A0005091300320912D0330912E0342175307A6
:1010B000B4F49091E8009570E1F39091E80092FD0E
:1010C00019C08093F10080912F0390913003019615
:1010D0008F739927892B19F48EEF8093E800809104
:1010E0002F039091300301969093300380932F0348
:1010F00081E0089580E00895CF92DF92FF920F93F0
:101100001F93CF93DF931F92CDB7DEB7082F162F13
:10111000862F880F8E5F9983C1DF83E0BFDFF02EBB
:10112000C02E9981D92E8C2D8F19811768F4F60164
:101130008491B4DF082F80E0B1DF8023FFEFCF1A66
:10114000DF0A8111F0CF01C081E00F90DF91CF91D4
:101150001F910F91FF90DF90CF900895615030F074
:101160002091F100FC0120830196F8CF289884E6B5
:101170008093320308952FB7FC012083F8946770A1
:101180006093E9000895CF93DF931F92CDB7DEB748
:10119000682FCE010196EFDF8091F20099819FBF09
:1011A0000F90DF91CF910895FF920F931F93CF93EC
:1011B000DF9300D0CDB7DEB7F62E8A0190913103D0
:1011C000992311F057FF03C08FEF9FEF2AC0682FBC
:1011D000CE0101967A83CFDF8091F20090E0A801E2
:1011E0007A81801791070CF4AC01EF2DF72FF40EE4
:1011F00084E6FE1639F02898809332039091F1002E
:101200009193F7CF4115510521F08091F200882389
:1012100021F089818FBFCA0104C08BE68093E8006A
:10122000F8CF0F900F90DF91CF911F910F91FF900A
:101230000895CF93DF931F92CDB7DEB741E050E022
:10124000BE016F5F7F4FB0DF019719F4898190E095
:1012500002C08FEF9FEF0F90DF91CF910895CF9352
:10126000DF931F92CDB7DEB7682FCE01019683DFE3
:101270009091E800892F807295FF04C09091F20050
:1012800080E4891B99819FBF0F90DF91CF910895D2
:101290006F927F928F929F92AF92BF92CF92DF9286
:1012A000EF92FF920F931F93CF93DF931F92CDB7CF
:1012B000DEB7782E7B01C42EB52E809131038823B2
:1012C00069F0042F152F8AEFD82E872D8072982E63
:1012D0009AE3A92E872D8074882E0FC08FEF9FEF81
:1012E00054C0872DBCDF682E81110BC0DA94B1F396
:1012F00061E070E080E090E097DA0115110589F770
:101300003AC0282F30E0021713070CF4602E672D27
:10131000CE01019630DF8091E80085FF29C0262D9F
:1013200030E0021B130B992039F06A948FEF681696
:10133000B1F01092F100F9CFF701862D77FE07C0CA
:10134000815058F094919093F1003196F9CF8150EB
:1013500020F091919093F100FACFE20EF31E80916C
:10136000E80085FF0FC00115110511F481100AC0B6
:1013700089818FBFC2CF5D9884E6809333038C2D23
:101380009B2D03C0A092E800F3CF0F90DF91CF9187
:101390001F910F91FF90EF90DF90CF90BF90AF9093
:1013A0009F908F907F906F9008951092E900109217
:1013B000300310922F0390932E0380932D030895F2
:1013C000CF92DF92FF920F931F93CF93DF9300D0C2
:1013D000CDB7DEB7F82E8A016B0101151105A9F012
:1013E000F601F7FE02C0849101C0808149835A83CF
:1013F00055DE01501109FFEFCF1ADF0A49815A81EA
:101400008111EBCF8FEF9FEF01C0CA010F900F90BA
:10141000DF91CF911F910F91FF90DF90CF900895B2
:101420001F93CF93DF931F92CDB7DEB7162F209176
:10143000E80022FFFCCF612F798390DE8BEF809351
:10144000E800812F7981972F0F90DF91CF911F9125
:101450000895CF93DF931F92CDB7DEB71982CE01E7
:1014600001969CDDCE010196BDD1898190E00F905F
:10147000DF91CF9108951F920F920FB60F92112412
:10148000EF92FF920F931F932F933F934F935F938E
:101490006F937F938F939F93AF93BF93EF93FF933C
:1014A000CF93DF93CDB7DEB76297DEBFCDBF10928B
:1014B000E9008091E80083FFDEC068E0CE010A9673
:1014C0004DDE82EF8093E8009A8597FF05C08091FA
:1014D000E80080FFFCCF03C08EEF8093E800892FE7
:1014E000807609F0B0C08B85811105C01092F100A3
:1014F0001092F100B9C0282F2D7F213009F4B4C01B
:10150000853049F48091E80080FFFCCF8C858068AD
:101510008093E300A9C0863009F06DC02D85E8886E
:10152000F988223049F580E090E02A8B3EDF91DF98
:1015300099E08E010F5F1F4FF801392F11923A95F4
:10154000E9F799832A892A8391E09E8390E8988716
:101550009AEF998720912F0330913003275F3F4FF7
:101560003C832B838D83C70120DF49E050E0B80125
:1015700080E026DF6EDF78C0C7012A8B16DF2A895C
:10158000223239F482E290E037D1892B09F06CC025
:101590006FC0213069F488899989089711F42093E4
:1015A0002C0380912C03811117C06BE871E019C0E6
:1015B000233009F05DC08C85882389F0823021F4C6
:1015C0006CE086EA91E006C0813009F051C068E025
:1015D0008DE991E091DD46C069E771E002C063EBFF
:1015E00071E06115710509F443C0FB01449150E0BD
:1015F00080E8E6DE39C0873009F43AC0883021F44B
:1016000081E08093F10030C0893071F5937081F5ED
:10161000E5E7F1E081E021E096E38093E9002093A3
:10162000EB0034913093EC009093ED008F5F319696
:10163000853099F78EE78093EA001092EA008C8556
:101640008093310311C088899989AFDE8E8581111D
:1016500004C0CE010A96ACDC05C0823049F4CE014C
:101660000A96EFD0882321F08EEF8093E80003C024
:1016700081E28093EB0062960FB6F894DEBF0FBE56
:10168000CDBFDF91CF91FF91EF91BF91AF919F912E
:101690008F917F916F915F914F913F912F911F910A
:1016A0000F91FF90EF900F900FBE0F901F90189525
:1016B0008093E9008091F200882319F08AE38093F7
:1016C000E80008951F920F920FB60F9211242F93E6
:1016D0003F934F935F936F937F938F939F93AF93BA
:1016E000BF93EF93FF938091E1001092E10083FF9D
:1016F0000FC01092E90091E09093EB001092EC0083
:1017000092E39093ED001092310398E09093F000F3
:1017100082FF1CC083E0CCDF80913303882339F043
:1017200080913303815080933303882369F0809143
:101730003203882359F08091320381508093320321
:10174000811104C0289A02C05D9AF1CFFF91EF91F8
:10175000BF91AF919F918F917F916F915F914F91C9
:101760003F912F910F900FBE0F901F9018951092E0
:10177000310381E08093D70080EA8093D80082E033
:1017800089BD09B400FEFDCF61E070E080E090E02B
:101790004BD880E98093D8008CE08093E2001092CF
:1017A000E000559A209A0895FF920F931F93CF93CC
:1017B000DF93EC01F62EE881F9810480F581E02DBC
:1017C00009958C01E881F9810680F781E02D6F2D64
:1017D000CE010995C8019927DF91CF911F910F91F3
:1017E000FF900895FC0120812F5F208349E150E0A4
:1017F00067E372E080E8E4CD45E650E060E572E042
:1018000080E8DECDEF92FF920F931F93CF93DF938B
:101810001F92CDB7DEB789838B017A0141E050E09A
:10182000BE016F5F7F4F84E033DDA701B80184E420
:101830002FDD0F90DF91CF911F910F91FF90EF90CF
:101840000895FC0191818081813A31F481E09130E9
:1018500091F0933089F411C0813271F49B3021F4FE
:10186000828180930B0105C09A3031F4828180938C
:101870000A0181E00895089580E0089548E050E06D
:1018800082E0C0CFCF93DF93DC01683818F0E8E73F
:10189000E60F25C0E62FF0E067FF11C0E058F10920
:1018A00081E090E001C0880FEA95EAF714969C91D8
:1018B0001497982B14969C931497E0E010C0E95469
:1018C000FE4FE491EE2309F43FC0E7FF08C01496F1
:1018D0008C911497826014968C931497EF771696D8
:1018E0008C9116978E1741F117968C9117978E173A
:1018F00019F118968C9118978E17F1F019968C9112
:1019000019978E17C9F01A968C911A978E17A1F015
:101910001B968C911B978E1779F080E090E0ED017B
:10192000C80FD91F2E81211102C0EE8305C0019678
:1019300086309105A1F708C0BD016C5F7F4FCD01D6
:101940009DDF81E090E008C081E090E013969C93D9
:101950008E93129780E090E0DF91CF9108956838E0
:1019600018F0E8E7E60F25C0E62FF0E067FF12C0A9
:10197000E058F10921E030E001C0220FEA95EAF7D2
:101980002095DC0114963C911497322314963C93D5
:10199000E0E00FC0E954FE4FE491EE2321F1E7FFB0
:1019A00008C0DC0114962C9114972D7F14962C936B
:1019B000EF7720E030E0EE2351F0DC01A20FB31FFF
:1019C00016964C9116974E1302C016961C922F5FD6
:1019D0003F4F2630310579F7BC016C5F7F4F4EDFFA
:1019E00081E090E0089580E090E00895FC01168287
:1019F000178210861186128613861482BC016C5FD2
:101A00007F4F3CCF10924003109237031092360361
:101A10008CE691E090933503809334030895A1E21E
:101A20001A2EAA1BBB1BFD010DC0AA1FBB1FEE1F58
:101A3000FF1FA217B307E407F50720F0A21BB30BA3
:101A4000E40BF50B661F771F881F991F1A9469F71F
:101A500060957095809590959B01AC01BD01CF017B
:101A60000895EE0FFF1F0590F491E02D0994F8946E
:021A7000FFCFA6
:101A7200110000E100000000000001016D616B65D2
:101A820066696C6520736179732068656C6C6F00A0
:101A920048656C6C6F21000000000066033A030F7A
:101AA2000317032A0339030D0A006E616E00696E83
:101AB20066006F7666002E0000000000B906DE05A3
:101AC2003D06560648069806000000007707B9074B
:101AD2009F07AD078D079D0700000000D40BDE05B0
:061AE200420CAF0CF60CF3
:00000001FF
